:020000040800F2
:10000000600600206D0100084D030008450300084C
:10001000490300081F0200088D07000800000000C7
:100020000000000000000000000000003D06000885
:100030002302000800000000190600082907000834
:100040008701000887010008870100088701000870
:100050008701000887010008870100088701000860
:100060008701000887010008870100088701000850
:100070008701000887010008870100088701000840
:100080008701000887010008870100088701000830
:100090008701000887010008870100088701000820
:1000A0008701000887010008870100088701000810
:1000B0008701000887010008870100088701000800
:1000C00087010008870100088701000887010008F0
:1000D00087010008870100088701000887010008E0
:1000E00087010008870100088701000800F002F876
:1000F00000F02CF80AA090E8000C82448344AAF196
:100100000107DA4501D100F021F8AFF2090EBAE893
:100110000F0013F0010F18BFFB1A43F0010318473B
:10012000840C0000940C000000230024002500260D
:10013000103A28BF78C1FBD8520728BF30C148BF4A
:100140000B6070471FB51FBD10B510BD00F031F832
:100150001146FFF7F7FF00F01BFB00F04FF803B468
:10016000FFF7F2FF03BC00F053F800000948804796
:1001700009480047FEE7FEE7FEE7FEE7FEE7FEE789
:10018000FEE7FEE7FEE7FEE704480549054A064BA1
:10019000704700002D070008ED00000860000020F7
:1001A0006006002060020020600200207047704757
:1001B0007047754600F028F8AE460500694653467C
:1001C00020F00700854618B020B5FFF7DDFFBDE839
:1001D00020404FF000064FF000074FF000084FF0AE
:1001E000000B21F00701AC46ACE8C009ACE8C0093F
:1001F000ACE8C009ACE8C0098D4670470446AFF3CF
:1002000000802046FFF7ABFF004870470000002049
:1002100001491820ABBEFEE726000200704700BF70
:10022000FEE770472DE9F041024600250026002038
:1002300000230024002791F803C00CF00F0591F86B
:1002400003C00CF0100CBCF1000F03D091F802C0F9
:100250004CEA050591F800C0BCF1000F31D01468DC
:1002600000202BE04FF0010C0CFA00F3B1F800C0B5
:100270000CEA03069E4220D183004FF00F0C0CFACB
:1002800003F7BC4305FA03FC4CEA040491F803C0ED
:10029000BCF1280F06D14FF0010C0CFA00FCC2F89B
:1002A00014C00AE091F803C0BCF1480F05D14FF02B
:1002B000010C0CFA00FCC2F810C0401C0828D1D375
:1002C0001460B1F800C0BCF1FF0F34DD54680020A9
:1002D0002EE000F1080C4FF0010808FA0CF3B1F819
:1002E00000C00CEA03069E4221D183004FF00F0CA0
:1002F0000CFA03F7BC4305FA03FC4CEA040491F83A
:1003000003C0BCF1280F05D100F1080C08FA0CF865
:10031000C2F8148091F803C0BCF1480F07D100F176
:10032000080C4FF0010808FA0CF8C2F81080401CC5
:100330000828CED35460BDE8F0810AB1016100E025
:100340004161704700BFFEE700BFFEE7704770B530
:1003500000240EE00021204600F0DFF8002504E034
:10036000002000F049F9681CC5B2802DF8DB601C44
:10037000C4B2082CEEDB70BD08B50121042000F0EA
:100380004DF914208DF8030003208DF8020004209D
:10039000ADF8000069460A48FFF744FF0820ADF8B1
:1003A000000069460648FFF73DFF0122042104488A
:1003B000FFF7C3FF012208210148FFF7BEFF08BD78
:1003C0000008014070B50546002413E0802020415C
:1003D00000EA050208210E48FFF7AFFF01220421C1
:1003E0000B48FFF7AAFF002204210948FFF7A5FFE9
:1003F000601CC4B2082CE9DB012204210448FFF789
:100400009CFF002204210248FFF797FF70BD000007
:100410000008014010B5012208210948FFF78DFFAF
:10042000012204210648FFF788FF00220821044822
:10043000FFF783FF002204210148FFF77EFF10BD74
:100440000008014010B5002208210748FFF775FF9A
:10045000012204210448FFF770FF0122082102480D
:10046000FFF76BFF10BD00000008014070B50024CD
:1004700006E0002500E06D1CB5F57A7FFBD3641C17
:10048000B4F57A7FF5D3FFF777FFAE2000F0A4F83C
:10049000D52000F0A1F8802000F09EF8A82000F000
:1004A0009BF83F2000F098F8D32000F095F800204A
:1004B00000F092F8402000F08FF8A12000F08CF8B6
:1004C000C82000F089F8DA2000F086F8122000F049
:1004D00083F8812000F080F8CF2000F07DF8D9204B
:1004E00000F07AF8F12000F077F8DB2000F074F8E3
:1004F000302000F071F8A42000F06EF8A62000F083
:100500006BF88D2000F068F8142000F065F8AF203B
:1005100000F062F8FFF71BFF70BD70B505460C4692
:1005200045F0B00000F058F8102141EA141000F036
:1005300053F804F00F0000F04FF870BD2DE9F041C2
:1005400005460E461746721ED206110E6A1E520648
:10055000100EFFF7E2FF002409E0A7F12001134A83
:1005600002EB0111085D00F047F8601CC4B2082CD2
:10057000F3DB721ED206110E6A1E012303EB420248
:10058000D0B2FFF7CAFF00240BE0A7F12001074A11
:1005900002EB011204F10801505C00F02DF8601C20
:1005A000C4B2082CF1DBBDE8F0810000B4070008FC
:1005B0002DE9F04107460E461546002407E02A5D66
:1005C0003019C1B23846FFF7B9FF601CC4B2285DCC
:1005D0000028F4D1BDE8F08110B50446FFF71AFFFA
:1005E0007820FFF7EFFE0020FFF7ECFE2046FFF734
:1005F000E9FEFFF727FF10BD10B50446FFF70AFF1D
:100600007820FFF7DFFE4020FFF7DCFE2046FFF7F3
:10061000D9FEFFF717FF10BD7047000029B1064A49
:1006200092690243044B9A6104E0034A926982434F
:10063000014B9A617047000000100240704710B5EE
:1006400000F002F810BD00000CB5002001900090F1
:100650003348006840F480303149086000BF3048BA
:10066000006800F4003000900198401C0190009850
:1006700018B90198B0F5A06FF1D12948006800F4CD
:10068000003010B10120009001E00020009000989F
:10069000012843D12348006840F010002149086038
:1006A0000846006820F0030008600846006840F033
:1006B000020008601A4840681949486008464068C6
:1006C00048600846406840F48060486008464068DA
:1006D00020F47C1048600846406840F4E810486008
:1006E0000846006840F08070086000BF0C48006851
:1006F00000F000700028F9D00948406820F003009D
:10070000074948600846406840F00200486000BF62
:100710000348406800F00C000828F9D10CBD000027
:1007200000100240002002407047000010B513483E
:10073000006840F00100114908600846406810490F
:1007400008400E494860084600680E4908400B49B9
:1007500008600846006820F4802008600846406869
:1007600020F4FE0048604FF41F008860FFF767FF29
:100770004FF000600449086010BD00000010024006
:100780000000FFF8FFFFF6FE08ED00E000BFFEE707
:10079000FFF76CFE03A201210846FFF709FF00BF27
:1007A000FEE7000068656C6C6F7720776F726C6491
:1007B0000000000000000000000000000000000039
:1007C00000000000000000F80000000000000033FE
:1007D0003000000000100C06100C060000000000A5
:1007E0000000000040C07840C0784000043F04048E
:1007F0003F040400007088FC08300000001820FF4F
:10080000211E0000F008F000E018000000211C0389
:100810001E211E0000F00888700000001E21232405
:100820001927211010160E00000000000000000023
:1008300000000000000000E01804020000000007B3
:100840001820400000020418E000000000402018BA
:1008500007000000404080F0804040000202010F8D
:1008600001020200000000F0000000000101011F71
:1008700001010100000000000000000080B07000D5
:100880000000000000000000000000000001010165
:1008900001010101000000000000000000303000F4
:1008A00000000000000000008060180400601806CE
:1008B0000100000000E010080810E000000F102008
:1008C00020100F00001010F8000000000020203F52
:1008D00020200000007008080888700000302824DC
:1008E000222130000030088888483000001820207D
:1008F00020110E000000C02010F8000000070424A2
:10090000243F240000F808888808080000192120E6
:1009100020110E0000E0108888180000000F112040
:1009200020110E0000380808C83808000000003FF9
:10093000000000000070880808887000001C222158
:1009400021221C0000E010080810E0000000312205
:1009500022110F00000000C0C000000000000030A5
:1009600030000000000000800000000000008060F7
:100970000000000000008040201008000001020478
:10098000081020004040404040404000040404045F
:10099000040404000008102040800000002010081B
:1009A00004020100007048080808F0000000003050
:1009B00036010000C030C828E810E00007182724DE
:1009C00023140B000000C038E0000000203C23028C
:1009D0000227382008F8888888700000203F2020EF
:1009E00020110E00C0300808080838000718202021
:1009F0002010080008F808080810E000203F202018
:100A000020100F0008F88888E8081000203F2020F8
:100A10002320180008F88888E8081000203F2000EC
:100A200003000000C0300808083800000718202024
:100A3000221E020008F808000008F808203F2101E3
:100A400001213F20000808F8080800000020203F8E
:100A50002020000000000808F8080800C0808080FE
:100A60007F00000008F888C028180800203F2001F7
:100A70002638200008F8080000000000203F202051
:100A80002020300008F8F800F8F80800203F003F68
:100A9000003F200008F830C00008F808203F200080
:100AA00007183F00E01008080810E0000F10202091
:100AB00020100F0008F808080808F000203F210166
:100AC00001010000E01008080810E0000F182424BD
:100AD00038504F0008F8888888887000203F200030
:100AE000030C3020007088080808380000382021E6
:100AF00021221C00180808F8080818000000203FF0
:100B00002000000008F808000008F808001F202056
:100B100020201F000878880000C838080000073827
:100B20000E010000F80800F80008F800033C070078
:100B3000073C0300081868808068180820302C03E0
:100B4000032C30200838C800C83808000000203FB7
:100B50002000000010080808C838080020382621A6
:100B600020201800000000FE020202000000007FAA
:100B700040404000000C30C00000000000000001B8
:100B80000638C00000020202FE00000000404040A3
:100B90007F000000000004020202040000000000C8
:100BA0000000000000000000000000008080808045
:100BB000808080800002020400000000000000002D
:100BC00000000000000080808080000000192422C6
:100BD00022223F2008F8008080000000003F112002
:100BE00020110E000000008080800000000E112007
:100BF00020201100000000808088F800000E1120E5
:100C000020103F200000808080800000001F2222F2
:100C100022221300008080F0888888180020203F5E
:100C2000202000000000808080808000006B949471
:100C30009493600008F8008080800000203F21002D
:100C400000203F2000809898000000000020203FF6
:100C500020200000000000809898000000C08080E4
:100C6000807F000008F8000080808000203F240280
:100C70002D302000000808F8000000000020203F70
:100C8000202000008080808080808000203F200025
:100C90003F20003F8080008080800000203F2100B6
:100CA00000203F200000808080800000001F202066
:100CB00020201F00808000808000000080FFA12095
:100CC00020110E000000008080808000000E1120A6
:100CD00020A0FF80808080008080800020203F2135
:100CE00020000100000080808080800000332424E8
:100CF00024241900008080E0808000000000001F94
:100D0000202000008080000000808000001F202044
:100D100020103F20808080000080808000010E3005
:100D20000806010080800080008080800F300C0366
:100D30000C300F0000808000808080000020312E69
:100D40000E312000808080000080808080818E7045
:100D50001806010000808080808080000021302CF7
:100D60002221300000000000807C02020000000010
:100D7000003F404000000000FF00000000000000B5
:100D8000FF0000000002027C800000000040403FA5
:100D9000000000000006010102020404000000003F
:100DA00000000000B40D00080000002060060000F4
:040DB000280100080E
:04000005080000ED02
:00000001FF
