:020000040800F2
:10000000680600208901000839040008B9030008C7
:10001000350400083B020008690B000800000000DE
:10002000000000000000000000000000510800086F
:100030003F020008000000000D08000881090008C8
:10004000A3010008A3010008A3010008A301000800
:10005000A3010008A3010008A3010008A3010008F0
:10006000A3010008A3010008A3010008A3010008E0
:10007000A3010008A3010008A3010008A3010008D0
:10008000A3010008A3010008A3010008A3010008C0
:10009000A3010008A3010008A3010008A3010008B0
:1000A000A3010008A3010008A3010008A3010008A0
:1000B000A3010008A3010008A3010008A301000890
:1000C000A3010008A3010008A3010008A301000880
:1000D000A3010008A3010008A3010008A301000870
:1000E000A3010008A3010008A301000800F002F822
:1000F00000F03AF80AA090E8000C82448344AAF188
:100100000107DA4501D100F02FF8AFF2090EBAE885
:100110000F0013F0010F18BFFB1A43F0010318473B
:10012000AC160000CC160000103A24BF78C878C185
:10013000FAD8520724BF30C830C144BF04680C60ED
:10014000704700000023002400250026103A28BF35
:1001500078C1FBD8520728BF30C148BF0B60704739
:100160001FB51FBD10B510BD00F031F81146FFF7E7
:10017000F7FF00F0FBFC00F04FF803B4FFF7F2FFCD
:1001800003BC00F053F800000948804709480047C5
:10019000FEE7FEE7FEE7FEE7FEE7FEE7FEE7FEE737
:1001A000FEE7FEE704480549054A064B7047000094
:1001B00085090008ED00000868000020680600209E
:1001C000680200206802002070477047704775463B
:1001D00000F028F8AE4605006946534620F00700B7
:1001E000854618B020B5FFF7DDFFBDE820404FF091
:1001F00000064FF000074FF000084FF0000B21F011
:100200000701AC46ACE8C009ACE8C009ACE8C009DD
:10021000ACE8C0098D4670470446AFF30080204625
:10022000FFF7ABFF00487047080000200149182085
:10023000ABBEFEE726000200704700BFFEE7704736
:1002400000B5034603E04FF47A7000F005F818009B
:10025000A3F10103F7D100BD00EBC001C9004FF0CD
:10026000E0225161002191610521116100BF4FF031
:10027000E021096901F480310029F8D004214FF010
:10028000E022116170472DE9F04102460025002669
:10029000002000230024002791F803C00CF00F0574
:1002A00091F803C00CF0100CBCF1000F03D091F8D2
:1002B00002C04CEA050591F800C0BCF1000F31D036
:1002C000146800202BE04FF0010C0CFA00F3B1F899
:1002D00000C00CEA03069E4220D183004FF00F0CB1
:1002E0000CFA03F7BC4305FA03FC4CEA040491F84A
:1002F00003C0BCF1280F06D14FF0010C0CFA00FC32
:10030000C2F814C00AE091F803C0BCF1480F05D14F
:100310004FF0010C0CFA00FCC2F810C0401C082879
:10032000D1D31460B1F800C0BCF1FF0F34DD5468C4
:1003300000202EE000F1080C4FF0010808FA0CF341
:10034000B1F800C00CEA03069E4221D183004FF0B1
:100350000F0C0CFA03F7BC4305FA03FC4CEA040447
:1003600091F803C0BCF1280F05D100F1080C08FA80
:100370000CF8C2F8148091F803C0BCF1480F07D103
:1003800000F1080C4FF0010808FA0CF8C2F81080D0
:10039000401C0828CED35460BDE8F08102460020FE
:1003A00093680B400BB1012000E0002070470AB1B8
:1003B000016100E04161704700BFFEE708B501211F
:1003C000042000F035FA0121102000F031FA042059
:1003D0008DF803000120ADF800004003ADF80000E7
:1003E00003208DF8020069460348FFF74CFF694679
:1003F0000248FFF748FF08BD000801400010014017
:1004000010B5002401210A48FFF7C8FF01280DD1CB
:100410001420FFF715FF00BF01210548FFF7BEFFBD
:100420000128F9D01420FFF70BFF0124204610BD4E
:100430000008014000BFFEE7704770B500240EE0E1
:100440000021204600F0E9F8002504E0002000F03B
:1004500075F9681CC5B2802DF8DB601CC4B2082C8D
:10046000EEDB70BD08B50121042000F0E1F9142095
:100470008DF8030003208DF802000420ADF8000081
:1004800069460A48FFF7FFFE0820ADF800006946FC
:100490000648FFF7F8FE012204210448FFF787FF12
:1004A000012208210148FFF782FF08BD0008014032
:1004B00070B50546002413E08020204100EA0502C3
:1004C00008210E48FFF773FF012204210B48FFF7B4
:1004D0006EFF002204210948FFF769FF601CC4B2C7
:1004E000082CE9DB012204210448FFF760FF002209
:1004F00004210248FFF75BFF70BD000000080140C7
:1005000010B5012208210948FFF751FF01220421FB
:100510000648FFF74CFF002208210448FFF747FF79
:10052000002204210148FFF742FF10BD00080140EE
:1005300010B5002208210748FFF739FF01220421E6
:100540000448FFF734FF012208210248FFF72FFF7C
:1005500010BD00000008014070B5002406E0002531
:1005600000E06D1CB5F57A7FFBD3641CB4F57A7F8F
:10057000F5D3FFF777FFAE2000F0D0F8D52000F0DC
:10058000CDF8802000F0CAF8A82000F0C7F83F207E
:1005900000F0C4F8D32000F0C1F8002000F0BEF84D
:1005A000402000F0BBF8A12000F0B8F8C82000F00F
:1005B000B5F8DA2000F0B2F8122000F0AFF8812090
:1005C00000F0ACF8CF2000F0A9F8D92000F0A6F890
:1005D000F12000F0A3F8DB2000F0A0F8302000F0BC
:1005E0009DF8A42000F09AF8A62000F097F88D203E
:1005F00000F094F8142000F091F8AF2000F08EF88D
:10060000FFF71BFF70BD10B50246012000E050430C
:100610000B00A1F10101FAD110BD70B505460C46E1
:1006200045F0B00000F07AF8102141EA141000F013
:1006300075F804F00F0000F071F870BD2DE9F0417D
:1006400005460E461746721ED206110E6A1E520647
:10065000100EFFF7E2FF002409E0A7F12001134A82
:1006600002EB0111085D00F069F8601CC4B2082CAF
:10067000F3DB721ED206110E6A1E012303EB420247
:10068000D0B2FFF7CAFF00240BE0A7F12001074A10
:1006900002EB011204F10801505C00F04FF8601CFD
:1006A000C4B2082CF1DBBDE8F0810000DA110008CB
:1006B0002DE9F04780460E4617461D46002415E0FA
:1006C000281B411E0A20FFF79EFFB7FBF0F00A210E
:1006D000B0FBF1F201FB120000F130093019C1B298
:1006E0004A464046FFF7AAFF601CC4B2AC42E7DBB3
:1006F000BDE8F0872DE9F04107460E461546002477
:1007000007E02A5D3019C1B23846FFF797FF601C39
:10071000C4B2285D0028F4D1BDE8F08110B50446CC
:10072000FFF7EEFE7820FFF7C3FE0020FFF7C0FEC4
:100730002046FFF7BDFEFFF7FBFE10BD10B50446D7
:10074000FFF7DEFE7820FFF7B3FE4020FFF7B0FE94
:100750002046FFF7ADFEFFF7EBFE10BD00B589B0F8
:100760000121084600F054F80121042000F060F84F
:100770000121084600F05CF818208DF823000220C3
:10078000ADF8200003208DF8220008A91A48FFF7D1
:100790007AFD4FF0804000F031F90020ADF81A00EA
:1007A000ADF8160044F61F60ADF818004720ADF80C
:1007B000140000208DF81C0005A94FF0804000F0C7
:1007C00081F901A800F072F96020ADF80400002062
:1007D000ADF80C000120ADF806000020ADF80A00CD
:1007E00001A94FF0804000F00FF90121880700F0C7
:1007F000F9F809B000BD00000008014010B504463A
:1008000021464FF0804000F05BF910BD70470000BA
:1008100029B1064AD2690243044BDA6104E0034A73
:10082000D2698243014BDA61704700000010024038
:1008300029B1064A92690243044B9A6104E0034AD3
:1008400092698243014B9A61704700000010024098
:10085000704710B5FFF782FF10BD00002DE9F04191
:1008600004460A49204600F02FFA8046084900F065
:1008700041FB0746074900F0B9F9064600F0E6FAE1
:1008800085B22846FFF7BAFFBDE8F0810000344387
:100890000000FA440000FA4310B500F001F810BD62
:1008A0000CB50020019000903348006840F480307F
:1008B0003149086000BF3048006800F40030009003
:1008C0000198401C0190009818B90198B0F5A06FEC
:1008D000F1D12948006800F4003010B101200090E7
:1008E00001E0002000900098012843D123480068CF
:1008F00040F01000214908600846006820F003001D
:1009000008600846006840F0020008601A48406825
:10091000194948600846406848600846406840F405
:10092000806048600846406820F47C1048600846B3
:10093000406840F4E81048600846006840F0807065
:10094000086000BF0C48006800F000700028F9D073
:100950000948406820F0030007494860084640689D
:1009600040F00200486000BF0348406800F00C00FF
:100970000828F9D10CBD0000001002400020024000
:100980007047000010B51348006840F0010011499D
:10099000086008464068104908400E49486008460B
:1009A00000680E4908400B4908600846006820F4BA
:1009B000802008600846406820F4FE0048604FF43C
:1009C0001F008860FFF768FF4FF00060044908606F
:1009D00010BD0000001002400000FFF8FFFFF6FE0F
:1009E00008ED00E021B1028842F00102028004E03B
:1009F00002884FF6FE731A400280704701894FF655
:100A0000F87211400181704770B500240022002364
:100A1000058C4FF6EF7635400584028C8388048B75
:100A200048F6FF752C404FF6FF452C400D884FF6D9
:100A3000FF7606EA05252C434FF6DF752A400D891F
:100A400006EA05152A434D8806EA05152A43154D81
:100A5000A84202D0144DA8421DD14FF67F752A40FE
:100A60004D894FF6FF7606EA05152A434FF6BF7506
:100A70002A408D8806EA05152A434FF6FF352B409C
:100A80004FF2FF752B408D8906EA85052B43CD89F2
:100A900006EA85052B4383800483CD88058702847D
:100AA00070BD0000002C0140003401400021018095
:100AB00041808180C180018141818181C1817047F4
:100AC00001877047002202881D4B98420ED01D4BB3
:100AD00098420BD0B0F1804F08D01B4B984205D004
:100AE0001A4B984202D01A4B984204D14FF68F739A
:100AF0001A404B881A43174B984207D0164B98421E
:100B000004D04FF6FF431A40CB881A4302808B88EB
:100B100083850B8803850A4B98420BD0094B98427A
:100B200008D00E4B984205D00D4B984202D00D4B89
:100B3000984201D10B7A038601238382704700001B
:100B4000002C014000340140000400400008004037
:100B5000000C004000100040001400400040014024
:100B6000004401400048014000BFFEE7FFF7F4FCED
:100B7000FFF76FFEFFF722FC16A201210846FFF7E0
:100B8000B9FD26E0FFF73CFC1449087008460078E0
:100B900001280FD112491348006800F027F81149C5
:100BA000086011490F48006800F070FA02D2002076
:100BB0000C4908600B480068FFF750FE09480068C0
:100BC00000F044F904460323224607210120FFF7E1
:100BD0006FFDD7E7416E676C653A000000000020AA
:100BE0000000F041040000200000344390EA010FAF
:100BF00048BF81F0004100F18282421A3CBF801A56
:100C000089184FEAD0524FF07F4C1CEA410FA2EBFB
:100C1000D15318BF9CEA026F00F03B804FF0004CAC
:100C20004CEA00204CEA012121FA03FC10EB0C0CE9
:100C30001ED202F1FF325FEA1C2040EBC25038BFE7
:100C400070471CF07F0F4FEA400C18BFBCF17F4F7C
:100C500038BF7047C3F12003994008BF20F001005E
:100C6000BCF17F4F38BF7047A0F1C04000F009BA17
:100C70004FEA3C00000A40EBC25028BF1CF0FF0FB7
:100C80004FEA400CE6D018BFBCF17F4F38BF704729
:100C9000EAE79CEA026F05D010EA5C0F08BF00F09B
:100CA0000040704710B500F0A6F900BF64FBBE3EDF
:100CB000401058BFC0F14040491058BFC1F14041F9
:100CC0008142EFF3008070474FF47F0C1CEAD01292
:100CD0001EBF1CEAD11392EA0C0F93EA0C0F00F02E
:100CE000858090EA010F48BF42F4807240F4000C06
:100CF00041F400002CF07F4120F07F4000B581429C
:100D0000A2EB03020FF2081CACEB504EC0F1000046
:100D10009EF800E04FEA4E0E00FB0EFC38BF490083
:100D20004FEA2C1C02F5FA020CFB0EF34FEACE1E22
:100D30004FEA112C4FEAC1210EEB635E42EB2242D7
:100D40000EFB0CFC4FEA1C5300FB03114FEA112C65
:100D50004FEA01310EFB0CFC4FEADC4C00FB0C119E
:100D6000C14228BF09184CEB03335DF804EB10EBCC
:100D7000410143EBC250B2F57C0F38BF704729D513
:100D800012F0F00F1CBF00F1C04000F000407047AF
:100D9000008182838485868788898B8C8D8E8F9154
:100DA0009293959697999A9C9D9FA0A2A3A5A7A878
:100DB000AAACAEB0B2B3B5B7B9BCBEC0C2C5C7C9A4
:100DC000CCCED1D4D7D9DCDFE2E6E9ECF0F3F7FA08
:100DD000FE0000004FEA400C0CF1807CBCF17E4F1D
:100DE00028BF7047B0F1C04000F04BB990EA010F46
:100DF0000CEAD11348BF42F48072624538BF6345A4
:100E000007D213F47F0F16D080EA010000F00040F3
:100E1000704710B500F0EFF8097EFC3E00F005B811
:100E200080EA010000F00040704780EA010000F015
:100E3000004000F026B912F47F0F04BF024870474B
:100E400080EA010000F01DB90000C07FC10DD1F1A2
:100E50009E0206DB4FEA002343F0004323FA02F030
:100E60007047004207D54FEA4001B1F1FE4F02D270
:100E70004FF00000704710B500F0BDF84992248093
:100E8000002070476FEA20007047000050EA010C14
:100E900000F113801CF5000F58BFBCF5000F01D402
:100EA0008842704707D710F5000F58BF11F5000FA3
:100EB00015D488427047894270471CF5000F04D54D
:100EC000BCF5000FF7D5814270474FF0807C1CEBDA
:100ED000400F38BF1CEB410F01D28142704710B563
:100EE00000F089F8922449004FF000504FF08051F3
:100EF000FFF7DEBE4FF47F0C1CEAD0121EBF1CEAC7
:100F0000D11392EA0C0F93EA0C0F00F0478090EA9D
:100F1000010F48BF42F480724FF0004C4CEA0020B1
:100F20004CEA012102EB0302A0FB0113A2F500022F
:100F3000002918BF43F001035B0028BF4FEA3303C9
:100F400042EB22425FEA132C4CEBC2502EBFBCEBAB
:100F5000436FB2F57C0F70474FEA036CBCF1004F52
:100F600008BF20F00100B2F57C0F38BF70470BD5E9
:100F700082F0FF0212F5803FC8BF704700F1C04009
:100F8000D8BF00F00040704700F5000C5FEA4C0C41
:100F900048BF7047B0F1C04000F073B890EA010F4D
:100FA0000CEAD11348BF42F48072624538BF6345F2
:100FB00004D280EA010000F00040704710B500F054
:100FC0001AF800BF8900013E00F007B800F009B828
:100FD0005FEA410C5FEA1C6C08D080EA010000F077
:100FE00050B85FEA400C5FEA1C6CF6D14FF000404D
:100FF000A0F5800070470EF1020E2EF0030E5EF891
:10100000044B244204D44FEA4102B2F17F4F11D87D
:101010004FEA4003B3F17F4F0CD80ED14FEAD07C9A
:10102000B2F17F4F0CEB4C0C0CF1020C08BF4CEBF7
:10103000D17C04E04FF0080C01E04FEAD17C0CEBCE
:101040004C0324FA03F404F00704B4F1040C06D2B0
:101050000EEB840CBDE810404CF0010C6047DFE85B
:101060000CF0070802024FF00040A0F5800010BD10
:101070000846420018BFD2F1807288BF00F00040DD
:1010800010BDFF2141EAD050C005704751EA000C65
:1010900000F113801CF5000F58BFBCF5000F01D400
:1010A0008142704707D711F5000F58BF10F5000FA8
:1010B00015D481427047894270471CF5000F04D552
:1010C000BCF5000FF7D5884270474FF0807C1CEBD1
:1010D000410F38BF1CEB400F01D28842704780EAB5
:1010E000010081EA000180EA0100FFF7F8BE00007C
:1010F00090EA010F48BF81F000413FF57EAD421AF2
:1011000004D882F00042A0EB020011444FEAD05212
:101110004FF07F4C1CEA410FA2EBD15318BF9CEA61
:10112000026F4AD04FF0004C4CEA00204CEA0121FB
:1011300021FA03FCB0EB0C0C0FD412F0FE0F36D0EA
:101140005FEA4C001DD5001240EBC25038BF70471B
:101150001CF03F0F18BF70470BE0A2F101025FEADD
:101160001C2040EBC25038BF70471CF07F0F18BFE7
:101170007047C3F12003994014BF401E20F00100C6
:10118000704780084FEA122308BF7047B0FA80FC0E
:10119000A2EB0C02CCF1280C60FA0CF093EA122FAF
:1011A00004BF00EBC25070474FEAC3707047130A88
:1011B0005FEADC1008BF7047F6E79CEA026F04D0D4
:1011C00010EA5C0F08BF0020704710B5FFF713FF4F
:1011D00040DFF63E81F00040704700000000000054
:1011E00000000000000000000000000000F8000007
:1011F0000000000000333000000000100C06100C4E
:101200000600000000000000000040C07840C078E8
:101210004000043F04043F040400007088FC0830D0
:101220000000001820FF211E0000F008F000E01868
:10123000000000211C031E211E0000F00888700021
:1012400000001E2123241927211010160E00000073
:1012500000000000000000000000000000E0180492
:101260000200000000071820400000020418E000FF
:1012700000000040201807000000404080F080403F
:1012800040000202010F01020200000000F0000015
:1012900000000101011F0101010000000000000029
:1012A000000080B07000000000000000000000009E
:1012B0000000000101010101010100000000000027
:1012C00000000030300000000000000000008060DE
:1012D0001804006018060100000000E01008081063
:1012E000E000000F102020100F00001010F8000088
:1012F00000000020203F202000000070080808881F
:1013000070000030282422213000003008888848EE
:1013100030000018202020110E000000C02010F81E
:10132000000000070424243F240000F808888808EF
:1013300008000019212020110E0000E010888818F4
:101340000000000F112020110E0000380808C838D6
:1013500008000000003F00000000007088080888B6
:101360007000001C222121221C0000E0100808103F
:10137000E0000000312222110F00000000C0C00078
:10138000000000000030300000000000008000007D
:10139000000000008060000000000000804020107D
:1013A0000800000102040810200040404040404076
:1013B00040000404040404040400000810204080D9
:1013C000000000201008040201000070480808080E
:1013D000F0000000003036010000C030C828E810DE
:1013E000E0000718272423140B000000C038E00099
:1013F0000000203C23020227382008F888888870E3
:101400000000203F202020110E00C03008080808EE
:101410003800071820202010080008F808080810D5
:10142000E000203F202020100F0008F88888E808FE
:101430001000203F20202320180008F88888E808A2
:101440001000203F200003000000C03008080838CA
:10145000000007182020221E020008F808000008DB
:10146000F808203F210101213F20000808F8080862
:1014700000000020203F2020000000000808F8089D
:101480000800C08080807F00000008F888C028180D
:101490000800203F20012638200008F8080000003E
:1014A0000000203F20202020300008F8F800F8F845
:1014B0000800203F003F003F200008F830C000082F
:1014C000F808203F200007183F00E0100808081027
:1014D000E0000F10202020100F0008F8080808086E
:1014E000F000203F210101010000E0100808081071
:1014F000E0000F18242438504F0008F888888888A6
:101500007000203F2000030C30200070880808087D
:1015100038000038202121221C00180808F808088B
:1015200018000000203F2000000008F80800000814
:10153000F808001F202020201F000878880000C81D
:101540003808000007380E010000F80800F800080D
:10155000F800033C0700073C030008186880806817
:10156000180820302C03032C30200838C800C83855
:1015700008000000203F2000000010080808C838BC
:1015800008002038262120201800000000FE02025A
:1015900002000000007F40404000000C30C000000E
:1015A0000000000000010638C00000020202FE0038
:1015B0000000004040407F000000000004020202E2
:1015C0000400000000000000000000000000000017
:1015D0000000808080808080808000020204000003
:1015E00000000000000000000000000080808080FB
:1015F00000000019242222223F2008F800808000E9
:101600000000003F112020110E00000000808080AB
:101610000000000E112020201100000000808088B2
:10162000F800000E112020103F20000080808080F4
:101630000000001F222222221300008080F08888F0
:1016400088180020203F202000000000808080803B
:101650008000006B94949493600008F80080808070
:101660000000203F210000203F20008098980000CB
:1016700000000020203F20200000000000809898FB
:10168000000000C08080807F000008F8000080809B
:101690008000203F24022D302000000808F80000C0
:1016A00000000020203F202000008080808080807B
:1016B0008000203F20003F20003F8080008080800D
:1016C0000000203F210000203F200000808080801B
:1016D0000000001F202020201F008080008080004C
:1016E000000080FFA12020110E00000000808080FB
:1016F0008000000E112020A0FF808080800080806C
:10170000800020203F212000010000008080808098
:1017100080000033242424241900008080E080808D
:1017200000000000001F20200000808000000080DA
:101730008000001F202020103F208080800000803B
:10174000808000010E30080601008080008000804B
:1017500080800F300C030C300F00008080008080F0
:1017600080000020312E0E3120008080800000801B
:10177000808080818E7018060100008080808080CB
:1017800080000021302C2221300000000000807CED
:10179000020200000000003F404000000000FF0087
:1017A000000000000000FF0000000002027C80003A
:1017B00000000040403F000000000006010102025E
:1017C000040400000000000000000000EC17000806
:1017D000000000200800000028010008F41700089D
:1017E000080000206006000044010008000000001E
:0417F00000000000F5
:04000005080000ED02
:00000001FF
