:020000040800F2
:10000000080700209D010008552D00081D24000848
:10001000512D0008C10800083D390008000000000B
:10002000000000000000000000000000892D000812
:10003000C508000800000000852D0008BD2D00083F
:10004000B7010008B7010008B7010008B7010008B0
:10005000B7010008B7010008B7010008B7010008A0
:10006000B7010008B7010008B7010008B701000890
:10007000B7010008B7010008B7010008B701000880
:10008000B7010008B7010008B7010008B701000870
:10009000B7010008B7010008B7010008B701000860
:1000A000B7010008B7010008B7010008B701000850
:1000B000B7010008312F0008B7010008B701000898
:1000C000B7010008B7010008B7010008B701000830
:1000D000B70100081137000821370008B7010008F0
:1000E000B7010008B7010008B7010008B701000810
:1000F000B7010008B7010008B7010008B701000800
:10010000B7010008B7010008B7010008B7010008EF
:10011000B7010008B7010008412F0008B701000827
:10012000B7010008B7010008B7010008B7010008CF
:10013000B7010008B7010008B7010008B7010008BF
:10014000B7010008B7010008B7010008B7010008AF
:10015000B7010008B7010008B7010008B70100089F
:10016000B7010008B7010008B7010008B70100088F
:10017000B7010008B7010008B7010008000000003F
:10018000B7010008B7010008DFF80CD000F07EFAD4
:10019000004800471D3B000808070020064880472C
:1001A00006480047FEE7FEE7FEE7FEE7FEE7FEE75C
:1001B000FEE7FEE7FEE7FEE71D2F000889010008C5
:1001C0002DE9F05F0546002092469B46884606468C
:1001D000814640241BE0284641464746224600F01F
:1001E0008CF853465A46C01A914110D3114618460E
:1001F000224600F073F82D1A67EB01084F4622469D
:100200000120002100F06AF817EB00094E41201E82
:10021000A4F10104DFDC484631462A464346BDE8E6
:10022000F09FD2B201E000F8012B491EFBD27047CB
:100230000022F6E710B513460A4604461946FFF7B2
:10024000F0FF204610BD421C10F8011B0029FBD115
:10025000801A704730B5041E71F1000404DB4FF0C2
:100260000044404264EB0101141E73F1000405DBFD
:100270001C464FF00043524263EB0403101A8B41BB
:1002800001D3012030BD002030BD00F0004230F02D
:1002900000400AD0C10D01F56071C0F3160042EABA
:1002A0000151C208400711437047002001467047C2
:1002B00030B50B46014600202022012409E021FA36
:1002C00002F59D4205D303FA02F5491B04FA02F533
:1002D0002844151EA2F10102F1DC30BD202A04DB06
:1002E000203A00FA02F1002070479140C2F1200349
:1002F00020FA03F3194390407047202A04DB203A88
:1003000021FA02F00021704721FA02F3D040C2F135
:10031000200291400843194670472DE9FE4F804660
:1003200081EA0300C00F0C46009021F0004123F049
:100330000045B8EB0200A94105D24046214690464F
:100340001C460B46024623F00040104347D0270DC1
:10035000C7F30A00C3F30A510290401A01904028E3
:100360006BDAC3F3130040F4801B0098924620B16F
:100370000023D2EB030A63EB0B0B01985946C0F143
:1003800040025046FFF7AAFF06460D465046594622
:10039000019A00F08DF910EB08006141002487EA12
:1003A000115284EAE7731A4340D0009A62B3019A6B
:1003B000012A4FEA075215DC001B61EB02014FF0E6
:1003C000004202EA0752CDE90042001C41F58011CB
:1003D00032462B4600F08DF903B0BDE8F08F404661
:1003E0002146F9E7001B61EB0201001C41F5801377
:1003F00000185B412018A2F5001747EB030140EA03
:10040000D570B6196D4111E06D084FEA360645EA20
:10041000C0754FEA0752001B61EB0201001C41F559
:10042000801149084FEA30000019514132462B46ED
:1004300003B0BDE8F04F00F04DB900980122400034
:100440000023D0EB020263EBE073009821464FEAF1
:10045000E074B8EB000061EB0401E9E783F00043CE
:100460005BE781F0004158E72DE9FE4F81EA030484
:1004700004F0004421F0004100944FF0000B23F001
:10048000004350EA01045ED052EA03045BD0C3F398
:100490000A54C1F30A552C44A4F2F3340194A0FB8E
:1004A0000254C1F3130141F48011C3F3130343F465
:1004B000801301FB024400FB034E840A970A44EABE
:1004C000815447EA8357A4FB076802958D0A05FB10
:1004D00007854FEA932C04FB0C542705029D4FEA35
:1004E000065847EA1637B5EB08056EEB070C870E82
:1004F000920E47EA811742EA8312A7FB0201B6EB8C
:100500000B0164EB00042B0D43EA0C335E1844EB43
:100510001C50DA465146E7FB0201C5F313044FEACB
:100520000B3343EA14534FEA0432019C43EA0603B7
:10053000A4F10C040294009CCDE900B400F0D9F8B9
:1005400003B0BDE8F08F00200146F9E72DE9F04D3A
:1005500081EA030404F0004B21F0004514464FF0FB
:10056000000A23F0004150EA050220D054EA0102BB
:100570001DD0C5F30A570246C5F31303C1F3130098
:10058000C1F30A5640F4801543F48013A7EB060824
:10059000101BD64608F2FD3873EB050002D308F1B4
:1005A000010801E092185B41B8F1000F03DA002066
:1005B0000146BDE8F08D00204FF4801106468446C8
:1005C0000EE0171B73EB050705D3121B63EB050346
:1005D00006434CEA010C49084FEA300092185B418F
:1005E00050EA0107EDD152EA030012D082EA04007A
:1005F00083EA0501084305D0101BAB4106D2012256
:10060000002306E000224FF0004302E06FF00102F9
:1006100053101AEB06004CEB085110EB0A0041EBAB
:100620000B01BDE8F04D00F055B8C1F30A52C1F31B
:10063000130140F2FF3341F480119A4202DA0020A4
:100640000146704740F233439A42A2F2334202DC41
:100650005242FFF752BEFFF741BE000030B5041E04
:1006600071F1000404DB4FF00044404264EB0101EF
:10067000141E73F1000405DB1C464FF00043524288
:1006800063EB0403994208BF904230BD064C074D0E
:1006900006E0E06840F0010394E807009847103452
:1006A000AC42F6D3FFF774FD84460008A446000868
:1006B000202A06DBCB17203A41FA02F043EAE07326
:1006C00006E041FA02F3D040C2F120029140084313
:1006D0001946704710B5141E73F1000408DA401C67
:1006E00041F1000192185B411A4301D120F0010051
:1006F00010BD2DE9F04D92469B4611B1B1FA81F241
:1007000002E0B0FA80F220329046FFF7E7FD04469F
:100710000F4640EA0A0041EA0B0153465A46084395
:1007200013D0114653EA010019D0C8F140025046D7
:10073000FFF7E3FD05460E46504659464246FFF791
:10074000CDFD084305D0012004E020463946BDE830
:10075000F08D0020054346EAE0762C4337430A98A3
:100760006305E40AA0EB08000022FD0A44EA4754AE
:100770000A3002D500200146E9E701051019694158
:10078000DDE9084500196941BDE8F04DA2E7000028
:100790002DE9F04381B0984616460F46044603F013
:1007A00033FA40F2FC21C2F20001087801284FF030
:1007B000000077D140F2C70940F23212C2F20009BC
:1007C000C2F2000299F800500870118840F2FD232F
:1007D000C2F20003012D1970108063D8CDB2A81E9B
:1007E000C1B2484603F0F4F805EB090111F8011C09
:1007F000C2B2914259D105EB090111F8021CC0F3B4
:100800000720814251D1D9F803009FED2A1A00BA7E
:1008100000EE100AB8EE400A80EE010A9FED262A8B
:1008200040F2BC02C2F2000284ED000AD9F80700CF
:1008300000BA00EE100AB8EE400A80EE020A87ED18
:10084000000AD9F80B0000BA00EE100AB8EE400A10
:1008500080EE010A9FED191A86ED000AD9F81300FF
:1008600000BA00EE100AB8EE400A80EE020AD9F88B
:100870000F0000BA106040F2A002C2F2000288ED40
:10088000000AD9F81F10D9F8173009BA00EE101A6B
:10089000B8EE400A80EE010A089918BA10600120EB
:1008A00081ED000A01B0BDE8F083002001B0BDE891
:1008B000F08300BF00401C4600007A440000C8429C
:1008C000FEE7000070470000EFF3108072B600BF33
:1008D000FEE700007047000080B54379012B4FF020
:1008E000020316D00371D0F800E001F01001DEF829
:1008F00000C04FF47C638B4042F080022CEA03037B
:1009000002FA01F11943CEF8001001210023017110
:100910004371184680BD000010B54379012B4FF09C
:1009200002031DD00371036802F0100ED3F800C05B
:10093000D1E9004140F6FE7202FA0EF221432CEAA0
:10094000020201FA0EF111431960C0211A6801FA7E
:100950000EF122EA010119600121002301714371A6
:10096000184610BD7047000010B5044600680168C5
:10097000890444BF416B5FEA814108D42068016863
:10098000890044BF416B5FEA810111D410BD04218D
:100990002171216941F0010121614FF4005141634E
:1009A000016821F4805101602046FFF7DBFFE5E795
:1009B00004212171216941F0020121614FF00051B0
:1009C0004163016821F0805101602046FFF782FFFA
:1009D00010BD0000002804BF0120704710B5044678
:1009E000007920B900206071204600F007F802204D
:1009F0002071002001212061217110BD80B586B0D9
:100A000047F200410068C4F20001002288420592CA
:100A1000CDE903220292019201D006B080BD43F6D7
:100A200030000092C4F20200036943F000530361F6
:100A3000036903F000530093009B0092036843F0A6
:100A400001030360006800F001000090009810208E
:100A500001900320CDE9020201F5C63001A900F0A2
:100A600071F836200021002200F0B2F9362000F0A3
:100A7000ABF906B080BD000070B5866D044600F08D
:100A80002FF994F83510022925D105462068216CEC
:100A9000026822F016020260426922F0800242617E
:100AA00009B9A16C19B1016821F008010160016860
:100AB00021F00101016000BF20680068C0070ED06E
:100AC00000F00EF9401B0628F6D3202060650320B5
:100AD00084F835000CE080206065012008E0E06DBE
:100AE0003F2101FA00F0B060012084F835000020B9
:100AF000002184F8341070BD90F83510022909D116
:100B0000052180F835100068016821F001010160BD
:100B1000002070478021416501207047B0B5044630
:100B200000F0DEF8054640F29400C2F200000078C2
:100B3000611C18BF044400BF00F0D2F8401BA04263
:100B4000FAD3B0BD2DE9F04F83B000F13E4202F17F
:100B5000FF724FEAB22241F600470192C4F2020747
:100B600008224FF0010E00254FF0000A4FF0000858
:100B7000B84208BF072200920AE000BF08F101084E
:100B80000AF1040AB8F1100F05F1020500F0A48083
:100B90000C680EFA08FB14EA0B09EFD04C6804F05D
:100BA000030CACF1010EBEF1010F11D803228768CE
:100BB00002FA05F6CA68B743AA403A43826042681F
:100BC000C4F3001722EA0B0207FA08F73A4342601F
:100BD000BCF1030F1CD0C26803238E6803FA05F72B
:100BE000BA4306FA05F73A43BCF1020FC2600FD1CF
:100BF0006FF0030202EA580202440AF01C060F23B7
:100C0000176A03FA06F40B69A743B3403B43136228
:100C1000026803234F68AB409A4307F00303AB40DD
:100C20001A4317F4403F4FF0010E0260A6D0002295
:100C300043F644030292C4F202031A6843F60044E6
:100C400042F480421A601A68C4F2010402F480423D
:100C50000292029A28F003024FF6084B2244CFF684
:100C6000FF7B52F80B300AF00C070F26BE4023EA38
:100C7000060C019B009E072B38BF1E4606FA07F79D
:100C800047EA0C0342F80B30A2684B6842EA0907B6
:100C900043F60C4CDE0258BF22EA0907A760C4F2F3
:100CA000010CDCF800209E0242EA090758BF22EA44
:100CB0000907CCF8007062689E0342EA090758BF32
:100CC00022EA090767602268DB0342EA090358BF8A
:100CD00022EA0903236051E703B0BDE8F08F00006A
:100CE00040F20430C2F200000068704740F2940005
:100CF00040F20431C2F20000C2F2000100780A683A
:100D0000104408607047000080B543F60040C4F20C
:100D10000200016841F400710160016841F48061E2
:100D20000160016841F480710160032000F060F807
:100D30000F2000F005F800F02BF8002080BD000027
:100D4000B0B540F29402C2F2000240F204011278FF
:100D5000C2F200014FF47A730968B3FBF2F2044661
:100D6000B1FBF2F1084600F0F9FA0F2C4FF0010543
:100D70000CD858B94FF0FF3021460022002500F072
:100D800027F840F29800C2F2000004602846B0BD87
:100D900082B0002043F640010190C4F202014A688B
:100DA00042F480424A604A6802F480420192019A09
:100DB0000090086840F080500860086800F080509B
:100DC0000090009802B0704780B502F0B9FD80BD78
:100DD00070B514460D46064602F0C2FD294622466D
:100DE00001F0BAFF0146304602F0C2FD70BD0000BE
:100DF00080B502F0CFFD80BD2DE9F041002800F064
:100E00008B8043F60808C4F202080446D8F8F803B9
:100E10000D4600F00700884207D288F8F853D8F84A
:100E2000F80300F00700A84276D12068810717D5A3
:100E3000410705D5D8F8001041F4E051C8F800107A
:100E4000010705D5D8F8001041F46041C8F800103A
:100E5000D8F80010A26821F0F0011143C8F8001082
:100E6000C0073FD1D8F8F80300F00700A84207D91F
:100E700088F8F853D8F8F80300F00700A8424BD1DF
:100E80002068410707D5D8F80010E26821F4E05146
:100E90001143C8F80010000708D5D8F800002169F0
:100EA00020F4604040EAC100C8F8000000F07EF87D
:100EB000D8F8001044F27C52C1F30311C0F60002CE
:100EC000515C40F2040220FA01F140F29800C2F2B3
:100ED00000000068C2F200021160FFF731FF00203D
:100EE000BDE8F0816068811E022907D258F8081C0D
:100EF00089015CBF0120BDE8F08110E0012807D125
:100F000058F8081C89035CBF0120BDE8F08106E0A9
:100F100058F8081C890702D40120BDE8F081D8F8F0
:100F2000001021F003010843C8F80000FFF7D8FEC5
:100F3000064641F2883700BFD8F80000616800F02B
:100F40000C00B0EB810F8DD0FFF7CAFE801BB842BA
:100F5000F2D90320BDE8F08140F20400C2F20000A3
:100F60000068704780B5FFF7F7FF43F60801C4F249
:100F70000201096844F28C52C1F38221C0F60002DA
:100F8000515CC84080BD000080B5FFF7E5FF43F627
:100F90000801C4F20201096844F28C52C1F34231E3
:100FA000C0F60002515CC84080BD000010B543F699
:100FB0000404C4F20204606800F00C0008280AD09F
:100FC000042819BF42F20040C0F2F40047F6400086
:100FD000C0F27D1010BD206821682368490247F6E1
:100FE0004001C0F27D1100F03F02C3F388105CBFE6
:100FF00042F20041C0F2F401A1FB00010023FFF71F
:10100000DFF821680222C1F3014102EB4101B0FB8C
:10101000F1F010BD2DE9F04182B0002800F0A2806F
:101020000446007843F60006C007C4F2020643D027
:10103000B06800F00C00042805D1306880033BD56F
:101040006068C8BB8EE0B06800F00C00082802D1D0
:1010500070684002F1D46568B5F5A02F0AD0B5F5E7
:10106000803F0BD0306820F480303060306820F44E
:10107000802006E0306840F480203060306840F422
:1010800080303060FFF72CFE002D054611D000BFE8
:101090003068800310D4FFF723FE401B6428F7D983
:1010A00022E100BFFFF71CFE401B64284FF0030045
:1010B00055D830688003F5D4207880071AD5B068F9
:1010C00010F00C0F09D0B06800F00C00082840F0B8
:1010D0008A807068400200F186803068800702D5FF
:1010E000E06801283ED13068216920F0F80040EA2C
:1010F000C10030602078000738D4207840074CD4F5
:10110000A5695DB3B06800F00C00082840F09E802F
:10111000012D27D07068E16900F480028A4221D154
:10112000216A00F03F028A421CD147F6C071626A10
:101130000140B1EB821F15D1A26A0023CFF6FF73E5
:1011400003EBC23200F440316FF30F02914209D138
:10115000E16A00F07060B0EB016F03D1002002B0D3
:10116000BDE8F081012002B0BDE8F081606900288F
:1011700040F20000C4F2472057D00121C0F8801E81
:10118000FFF7AEFD054600BF706F8007B5D4FFF7CF
:10119000A7FD401B0228F7D9A6E0306C10F080585C
:1011A0000AD100200190306C40F080503064306CE7
:1011B00000F080500190019847F20007C4F2000748
:1011C0003868C00524D4386840F480703860FFF770
:1011D00087FD05463868C0051AD4FFF781FD401B1E
:1011E0000228F7D980E0E068002851D00020C4F23E
:1011F000472001210160FFF773FD05463068800735
:101200003FF571AFFFF76CFD401B0228F6D96BE08C
:10121000A568052D50D0012D52D0306F20F001006F
:101220003067306F20F004004DE00021C0F8801ED0
:10123000FFF756FD054600BF706F80077FF55DAF75
:10124000FFF74EFD401B0228F6D94DE00027C4F2FF
:10125000472700203866FFF743FD022D05460BD1D6
:101260003068800158D5FFF73BFD401B02284FF046
:101270000300F5D973E700BF306880017FF56EAFDA
:10128000FFF72EFD401B02284FF00300F4D966E75C
:101290000020C4F2472000210160FFF721FD054630
:1012A000306880077FF526AFFFF71AFD401B022844
:1012B0004FF00300F4D952E7306F40F0040030677C
:1012C000306F40F001003067FFF70AFD002D054642
:1012D00041F2883714D000BF306F800713D4FFF776
:1012E000FFFC401BB842F7D9032002B0BDE8F081F3
:1012F000FFF7F6FC401BB8424FF003003FF62FAF5C
:10130000306F8007F4D4B8F1000F7FF4F9AE306C81
:1013100020F080503064F3E604F11C052FCD084323
:101320000021CFF6FF7140EA821001EBC3316FF369
:101330000F0140EA05600843706001203866FFF73E
:10134000CFFC0446306880013FF508AFFFF7C8FCCA
:10135000001B02284FF00300F4D900E780B501F02C
:1013600015FD80BD704700007047000010B590F873
:101370003C20012A4FF0020252D0012380F83C3079
:1013800080F83D200268D2F804E0D2F808C00C686A
:101390002EF07003234341F2FF74C4F20004A24212
:1013A00053600DDC40F2FF73C4F200039A4215DC77
:1013B000B2F1804F29D040F20043C4F2000322E092
:1013C00040F2FF33C4F201039A4212DC41F60003FB
:1013D000C4F200039A4218D0002312E040F6000342
:1013E000C4F200039A4210D040F60043C4F2000356
:1013F00009E044F20003C4F201039A4205D040F22E
:101400000043C4F201039A4204D149682CF08003DE
:10141000194391600121002280F83D1080F83C20A2
:10142000104610BD002804BF0120704710B50446C7
:1014300090F83D0028B9002084F83C00204600F0D8
:101440001FF8022084F83D002068211D01F086FD70
:10145000012084F8460084F83E0084F83F0084F8B8
:10146000400084F8410084F8420084F8430084F886
:10147000440084F8450084F83D00002010BD0000C1
:1014800080B586B0006841F20002C4F2000200217B
:101490009042CDE90411CDE9021101913ED040F610
:1014A0000001C4F20001884250D040F20041C4F271
:1014B0000001884248D1002043F640010090C4F268
:1014C00002010A6842F002020A600A6802F002029F
:1014D0000092009A009051F8102C42F0010241F85D
:1014E000102C51F8101C01F00101009100994021CD
:1014F00001910221CDE90210CDE904010020C4F2DE
:10150000020001A9FFF71EFB1D2000210022FFF7AA
:101510005FFC1D20FFF758FC06B080BD43F640007D
:101520000091C4F202000168002241F01001016044
:101530000068002100F01000009000983620FFF7AE
:1015400047FC3620FFF740FC06B080BD002000902D
:1015500043F64000C4F20200016841F0040101605A
:10156000006800F004000090009806B080BD000004
:1015700010B5044690F83C0001284FF0020008BF67
:1015800010BD012284F83C2084F83D0020684FF60D
:10159000777382689A4382600A684F2A0FDC1F2A99
:1015A00022DD202A23D0302A21D0402A4DD14B6879
:1015B000CA68194601F04EFE206840213BE06F2AC0
:1015C00017DDB2F5005F20D0B2F5805F2AD0702A17
:1015D0003BD1D1E9012CCB68614601F063FD206865
:1015E000816841F077011AE00AB1102A2DD1114625
:1015F00021E0502A18D0602A27D14B68CA681946C2
:1016000001F08EFE2068602115E0D1E9012CCB6845
:10161000614601F047FD2068816841F480418160A6
:1016200000200BE0002009E04B68CA68194601F071
:1016300011FE2068502101F041FD0020012184F8B5
:101640003D10002184F83C1010BD0120F6E7000099
:1016500070B50446006840F20041C4F200018842BF
:1016600018BF70BD20460021002500F0FFFB40F2AE
:101670003C16C2F2000630602046042100F0F6FB62
:1016800040F238112268C2F20001086055623168E8
:1016900000EE100A01EE101AB8EE400AB8EE411A38
:1016A00080EE011A44F24020C0F20F00B0FBF1F0CE
:1016B000632940F2C001C2F200019FED100A0860E8
:1016C00040F2B800C2F2000021EE001A80ED001ACC
:1016D0009CBF0D60056090ED001AB4EE401AF1EE6B
:1016E00010FAC4BF002101602046002100F084F8F8
:1016F0002046042100F080F870BD00BF0000C84201
:10170000B0B5044690F83C00012804BF0220B0BDEB
:101710000D464FEAB2010120032984F83C0037D876
:10172000DFE801F0020C16242068D5E90012EB680E
:1017300001F0A2FD206850F8181F12E02068D5E9DA
:101740000012EB6801F0FEFD206850F8181F16E04B
:101750002068D5E90012EB6801F012FE206850F80D
:101760001C1F21F00C010160A9680DE02068D5E97B
:101770000012EB6801F01EFE206850F81C1F21F4D7
:1017800040610160A96809020268114301600020FC
:10179000002184F83C10B0BD002804BF0120704730
:1017A00010B5044690F83D0028B9002084F83C00AC
:1017B000204600F01FF8022084F83D002068211D1B
:1017C00001F0CCFB012084F8460084F83E0084F848
:1017D0003F0084F8400084F8410084F8420084F817
:1017E000430084F8440084F8450084F83D0000205C
:1017F00010BD00007047000010B5044641B1082933
:1018000009D0042914BF04F1410004F13F0004E0B1
:1018100004F13E0001E004F14000007841B10829E4
:1018200009D0042914BF04F1450204F1430204E085
:1018300004F1420201E004F1440201284FF00100EA
:10184000127808BF012A00D010BD022041B108293A
:1018500009D0042914BF84F8410084F83F0004E053
:1018600084F83E0001E084F84000022041B10829DC
:1018700009D0042914BF84F8450084F8430004E02B
:1018800084F8420001E084F844002068012201F05D
:10189000F7FB206841F2FF71C4F2000188420DDCC1
:1018A00040F2FF71C4F20001884215DCB0F1804FB4
:1018B00029D040F20041C4F2000122E040F2FF31A1
:1018C000C4F20101884212DC41F60001C4F20001B9
:1018D000884218D0002112E040F60001C4F2000155
:1018E000884210D040F60041C4F2000109E044F201
:1018F0000001C4F20101884205D040F20041C4F267
:101900000101884206D1816801F00701062904BF60
:10191000002010BD016841F001010160002010BDF0
:10192000B0B5044641B1082909D0042914BF04F117
:10193000410004F13F0004E004F13E0001E004F145
:101940004000007841B1082909D0042914BF04F1EE
:10195000450204F1430204E004F1420201E004F113
:10196000440201284FF00105127808BF012A01D076
:101970002846B0BD022041B1082909D0042914BF6E
:1019800084F8410084F83F0004E084F83E0001E060
:1019900084F84000022041B1082909D0042914BF6D
:1019A00084F8450084F8430004E084F8420001E034
:1019B00084F844004FEAB10003280AD823682BA218
:1019C00052F82020DD682A430025DA60032803D975
:1019D000CEE701250328CBD82068012201F050FB77
:1019E000206841F2FF71C4F2000188420DDC40F230
:1019F000FF71C4F20001884215DCB0F1804F29D09C
:101A000040F20041C4F2000122E040F2FF31C4F292
:101A10000101884212DC41F60001C4F20001884253
:101A200018D0002112E040F60001C4F20001884203
:101A300010D040F60041C4F2000109E044F2000178
:101A4000C4F20101884205D040F20041C4F2010114
:101A5000884205D1816801F0070106293FF488AF6B
:101A6000016841F0010101602846B0BD020000009C
:101A700004000000080000001000000010B504463B
:101A800000680169890744BFC1685FEA817138D481
:101A900020680169490744BFC1685FEA41713CD4CD
:101AA00020680169090744BFC1685FEA017141D438
:101AB00020680169C90644BFC1685FEAC16145D4B5
:101AC00020680169C9071CBFC1685FEAC1714AD1BA
:101AD00020680169090644BFC1685FEA016149D411
:101AE00020680169490644BFC1685FEA416148D482
:101AF00020680169890644BFC1685FEA816147D4F3
:101B000010BD6FF00201016101212177806980071A
:101B100045D02046FFF79CFD47E06FF004010161CE
:101B200002212177806910F4407F41D02046FFF7E1
:101B30008FFD43E06FF00801016104212177C06946
:101B400080073ED02046FFF783FD40E06FF0100194
:101B5000016108212177C06910F4407F3AD0204606
:101B6000FFF776FD3CE06FF001010161204600F0D7
:101B70007BF9ADE76FF0800101612046FFF7F2FBD2
:101B8000AEE76FF040010161204600F089F9AFE750
:101B90006FF0200101612046FFF7E6FB10BD2046F3
:101BA00000F050F8204600F0CBF8002020776FE7D7
:101BB000204600F047F8204600F0C2F800202077C9
:101BC0006EE7204600F03EF8204600F0B9F800200D
:101BD00020776DE7204600F035F8204600F0B0F899
:101BE000002020776CE7000080B586B040F6000149
:101BF0000068C4F20001002288420592CDE9032268
:101C00000292019201D006B080BD43F630000092EE
:101C1000C4F20200036843F008030360006800F0A8
:101C20000800009000984FF4805001900220CDE908
:101C30000202CDE9042001F5013001A9FEF782FF7F
:101C400006B080BD70470000B0B5044690F83C0077
:101C5000012804BF0220B0BD0D464FEAB2010120A9
:101C6000032984F83C0037D8DFE801F0020A122289
:101C70002068294601F02AFA206850F8181F0EE063
:101C80002068294601F054FA206850F8181F16E021
:101C90002068294601F082FA206850F81C1F41F0A4
:101CA00008010160016821F00401016029690FE069
:101CB0002068294601F0A6FA206850F81C1F41F45C
:101CC00000610160016821F48061016029690902F5
:101CD0000268114301600020002184F83C10B0BD6F
:101CE000002804BF0120704710B5044690F83D005D
:101CF00028B9002084F83C00204600F01FF802209C
:101D000084F83D002068211D01F028F9012084F8A5
:101D1000460084F83E0084F83F0084F8400084F8D0
:101D2000410084F8420084F8430084F8440084F8B9
:101D3000450084F83D00002010BD00007047000001
:101D40007047000010B5044641B1082909D00429A4
:101D500014BF04F1410004F13F0004E004F13E002F
:101D600001E004F14000007801281CBF012010BDF3
:101D7000022041B1082909D0042914BF84F8410088
:101D800084F83F0004E084F83E0001E084F840005D
:101D90002068012201F074F9206841F2FF71C4F259
:101DA000000188420FDC40F2FF71C4F2000188425A
:101DB00017DCB0F1804F49D040F20041C4F200017D
:101DC000884243D049E040F2FF32C4F2010290421F
:101DD00014DC41F60003C4F20003984236D000231D
:101DE00014E040F60001C4F2000188422ED040F613
:101DF0000041C4F20001884228D02EE044F20003E2
:101E0000C4F20103984221D040F20043C4F201031E
:101E1000984222D1436C884243F400434364C2DDBC
:101E2000904207DC41F60001C4F2000188420DD067
:101E3000002107E044F20001C4F20101884205D00C
:101E400040F20041C4F20101884206D1816801F0EC
:101E50000701062904BF002010BD016841F00101FF
:101E60000160002010BD0000704700004FEAB10182
:101E7000032984BF00207047DFE801F0020E060A44
:101E8000006834300068704700683C300068704774
:101E9000006840300068704700683830006870475C
:101EA000704700007047000070470000B0B582B076
:101EB000036804461868D9685A6900F02F05202D78
:101EC00001F0200505D125B1204601F0CDFA02B080
:101ED000B0BD5FEA007C1EBF02F0010E01F49072FB
:101EE00012EB0E0248D1226B0840C1063BD5012AF5
:101EF00039D100200190186801905868019001982C
:101F00005869400640D4A08DE18DE28D002A1CBFA7
:101F1000401A5FEA004101D102B0B0BD216851E82A
:101F2000031F226821F4907142E80313002BF5D1BE
:101F3000216851E8051F226821F0010142E80513DC
:101F4000002BF5D1202184F83E100021216300BF31
:101F5000216851E8031F226821F0100142E80313B1
:101F6000002BF5D152E0010656D44006D4D52046C8
:101F700001F06EFA02B0B0BDC20718BF11F4807252
:101F80004FD1420753D459E0A06B016849688AB227
:101F9000002AC1D0A38D9A42BED2E185C069B0F5B6
:101FA000807F30D0206850E8030F216820F48070D3
:101FB00041E80302002AF5D1206850E8050F2168A6
:101FC00020F0010041E80502002AF5D1206850E820
:101FD000050F216820F0400041E80502002AF5D1F4
:101FE000202084F83E000020206300BF206850E8D5
:101FF000030F216820F0100041E80302002AF5D108
:10200000A06BFEF739FDA08DE18D401A81B220460C
:10201000FFF748FF02B0B0BD204601F011FB02B04F
:10202000B0BD226C42F001022264420706D5BEF127
:10203000000F03D0226C42F002022264820706D510
:10204000BEF1000F03D0226C42F004022264BCF106
:10205000000F06D55EEA050203D0226C42F00802AA
:102060002264226C002A3FF457AF0840800602D554
:10207000204601F0F9F920684069216C00F0400029
:1020800001F00801401827D0204601F0B9F9206876
:10209000406940061BD500BF206850E8050F216845
:1020A00020F0400041E80502002AF5D1A06B70B194
:1020B00043F2F131C0F600010165FEF71DFD002875
:1020C0003FF42AAFA06B016D884702B0B0BD204637
:1020D000FFF7EAFE02B0B0BD2046FFF7E5FE0020A4
:1020E000206402B0B0BD0000002804BF012070478A
:1020F00010B5044690F83D0028B9002084F83C0053
:10210000204600F021F8242084F83D002068C168B2
:1021100021F40051C160204601F008FA20680169ED
:1021200021F490410161416921F02A014161C168B6
:1021300041F40051C16000202021206484F83D104A
:1021400084F83E1010BD000080B586B0006844F2EF
:102150000042C4F2000200219042CDE90411CDE911
:10216000021101913CD044F60001C4F20001884202
:1021700067D041F20001C4F20101884240F08C8036
:10218000002043F630010090C4F202014A6942F097
:1021900010024A614A6902F010020092009A00900F
:1021A0000A6842F001020A60096801F00101009129
:1021B00000994FF4C06101910221CDE90210032082
:1021C0000490072005900020C4F2020001A9FEF748
:1021D000B9FC252000210022FEF7FAFD25202CE085
:1021E00043F630000091C4F20200026942F400326A
:1021F0000261026902F400320092009A00910268C2
:1022000042F001020260006800F0010000900098B6
:102210000C2001900220CDE9020103200490072048
:1022200005900020C4F2020001A9FEF78BFC2620D5
:1022300000210022FEF7CCFD2620FEF7C5FD06B0EA
:1022400080BD002043F630010090C4F202010A690B
:1022500042F480220A610A6902F480220092009A04
:1022600000900A6842F002020A60096801F0020167
:10227000009100994FF4406101910221CDE90210D3
:1022800003200490072005900020C4F2020000F50E
:10229000806001A9FEF756FC06B080BD10B590F82D
:1022A0003E30202B0BD100294FF0010418BF002A2B
:1022B00001D1204610BD90F83C30012B01D1022005
:1022C00010BD0123002480F83C30046301F09CF928
:1022D000204610BD80B5016844F20042C4F20002FD
:1022E00091421AD041F20002C4F20102914218BF99
:1022F00080BD40F2F20CC2F2000CBCF8003040F29B
:10230000F001C2F200015A1C91F800E0ACF8002084
:1023100040F2F402C2F2000212E040F2321CC2F2B9
:10232000000CBCF8003040F2EF01C2F200015A1C70
:1023300091F800E0ACF8002040F2C702C2F20002BF
:1023400002F803E00122FFF7A9FF80BD2DE9F04369
:1023500081B0044690F83D0020280BD10E4600299C
:102360004FF0010055D01746002A52D094F83C0097
:10237000012803D1022001B0BDE8F083012084F8D8
:102380003C004FF0000921201D46C4F8409084F81D
:102390003D00FEF7A5FCA784E784A1680746B1F5D8
:1023A000805F07D1206900281CBF30464E46B046EA
:1023B000064601E04FF0000884F83C9007E000BFBB
:1023C00016F8010B21684860E08C0138E084E08C4D
:1023D00080B1204680213A462B4601F05BF980B956
:1023E000002EEDD138F8020B21686FF35F204860B2
:1023F0000026E9E7204640213A462B4601F04AF9FB
:1024000018B1032001B0BDE8F083202084F83D001E
:10241000002001B0BDE8F08370470000FEE7000037
:102420002DE9F04F81B02DED0A8B96B040F20800F7
:10243000C2F20000C06840F23001019040F21C007E
:10244000C2F20000C2F20001C068C96840F2580B35
:10245000CDE9020140F24400C2F20000C2F2000BDA
:10246000C068DBF80C1040F28008CDE9040140F2AE
:102470006C00C2F20000C2F20008C068D8F80C106C
:1024800044F2C4570024A6A5ACA6C0F60007CDE9C7
:102490001444CDE91244CDE910440F94CDE906016E
:1024A00003E000BF0134072C09D0062CFAD855F8F8
:1024B000241056F824000F6001F0CEFBF2E740F242
:1024C000A400C2F2000090ED038A08A80FAC061F1A
:1024D00001A89FEDA19A9FEDA1AA9FED8FBB251F9B
:1024E000A0F104094FF0000AB7EE08CA002709E07E
:1024F000B4EE4C0AF1EE10FAC0F2AB800137802F37
:1025000000F00281CDE914AACDE912AACDE910AA02
:10251000CDF83CA077B12846394600BF01EBD17217
:1025200022F00103CB1A0131521040F8043F022976
:102530001146F3D800204A46314600BF04EB800321
:1025400093ED000A92ED011AB8EEC00A21EE000ADE
:102550000130043281ED010A04310728EED1072051
:102560003146B0EE490A00BF91ED011A043130EE58
:10257000010A0138F8D130EE481AB4EE4A0AF1EEF9
:1025800010FAB0EEC10AB3DA10EE100AFDF77DFEC4
:1025900053EC1B2BFDF75EFE0028AFD144F2C8556B
:1025A00044F2266A44F24D6944F25A660027C0F6A6
:1025B0000005C0F6000AC0F60009C0F6000605E0F6
:1025C00001F04AFB0137072F00F09E8054F82700E6
:1025D0000128F7D1062FF5D8DFE807F008200F19FA
:1025E000042A3400CBF810503046E9E740F20800E6
:1025F000C2F2000005615046E2E740F23000C2F24C
:102600000000056144F24060C0F60000D8E740F2E7
:102610004400C2F2000005614846D1E740F21C00C8
:10262000C2F20000056144F23360C0F60000C7E763
:1026300040F26C00C2F20000056144F26760C0F62F
:102640000000BDE744F27460C0F60000C8F8105006
:10265000B6E744F2C85544F2266A44F2676944F288
:1026600074660027C0F60005C0F6000AC0F600092F
:10267000C0F6000605E000BF01F0EEFA0137072FB3
:1026800042D054F827000128F8D1062FF6D8DFE809
:1026900007F0080F19232D3404003046C8F81050F5
:1026A000EAE740F20800C2F2000005615046E3E7A5
:1026B00040F21C00C2F20000056144F23360C0F633
:1026C0000000D9E740F23000C2F20000056144F298
:1026D0004060C0F60000CFE740F24400C2F20000C4
:1026E000056144F24D60C0F60000C5E744F25A604F
:1026F000CBF81050C0F60000BEE740F26C00C2F20A
:10270000000005614846B7E716B0BDEC0A8B01B082
:10271000BDE8F08F00BF00BF9A9999999999E93F58
:10272000180000202C000020400000205400002051
:10273000680000207C00002090000020CB450008AD
:10274000D8450008E5450008F2450008FF450008A7
:102750000C46000819460008000000000000704206
:1027600010B582B040F2401047F200410024C2F29E
:102770000000C4F20001CDE900440160FEF72AF92F
:10278000002818BFFEF7A0F80420CDE9000440F2AD
:102790004010C2F2000069460022FEF7BDF8002892
:1027A00018BFFEF791F840F24010C2F2000000217D
:1027B0004FF43062FEF790F8002818BFFEF784F857
:1027C00002B010BD81B0002043F630010090C4F289
:1027D00002010A6842F080020A600A6802F0800280
:1027E0000092009A00900A6842F001020A600A68AA
:1027F00002F001020092009A00900A6842F0020280
:102800000A600A6802F002020092009A00900868CA
:1028100040F008000860086800F008000090009888
:1028200001B0704710B58AB040F2541040F2004237
:102830000021C2F20000C4F200024F234FF6FF74E1
:10284000CDE90811CDE90611CDE90411CDE9021158
:10285000CDE90011C0E90023C0E9021401618161E2
:10286000FEF7E0FD002818BFFEF72EF84FF4805069
:10287000069040F25410C2F2000006A9FEF778FE5E
:10288000002818BFFEF720F840F25410C2F20000F2
:10289000FEF782FF002818BFFEF716F840F254102A
:1028A0000024C2F2000004A9CDE90444FEF75EFD55
:1028B000002818BFFEF708F80120CDE9010440F216
:1028C0005410C2F200006946002200940394FEF7FF
:1028D00017FF002818BFFDF7F7FF0220CDE9000021
:1028E00040F25410C2F2000069460422FEF708FFCD
:1028F000002818BFFDF7E8FF0AB010BD10B58EB074
:1029000040F29C100021C2F2000040F6000240F6A6
:1029100028340D91CDE90B11CDE90911CDE907114D
:10292000CDE90511CDE90311CDE90111C4F2000291
:1029300040F2F713C0E9021401618021C0E90023CD
:102940008161FEF76FFD002818BFFDF7BDFF4FF452
:1029500080500A9040F29C10C2F200000AA9FEF7D3
:1029600007FE002818BFFDF7AFFF40F29C10C2F22F
:102970000000FFF7B5F9002818BFFDF7A5FF40F2EA
:102980009C100024C2F2000008A9CDE90844FEF71B
:10299000EDFC002818BFFDF797FF60200190D620BE
:1029A000CDE9020440F29C10C2F2000001A900220D
:1029B0000594FFF749F9002818BFFDF785FF40F29D
:1029C0009C10C2F20000FFF70FF90EB010BD00001E
:1029D00010B582B040F2E41041F20001C2F20000F2
:1029E000C4F2000100244F2240F2E73380E81600D1
:1029F0008021CDE90044C3608161FEF713FD00280A
:102A000018BFFDF761FF40F2E410C2F20000694612
:102A1000CDE90044FEF7AAFC002818BFFDF754FFDB
:102A200002B010BD80B540F22C2041F20001C2F28C
:102A30000000C4F2010100234FF00C0C4FF41652B9
:102A400080E80E00C0E90333C0E905C3C361FFF7A6
:102A50004BFB002818BFFDF737FF80BD80B540F263
:102A6000702044F20041C2F20000C4F200010023D1
:102A70004FF00C0C4FF4965280E80E00C0E903337F
:102A8000C0E905C3C361FFF72FFB002818BFFDF79E
:102A90001BFF80BD80B540F2B42044F60001C2F2B5
:102AA0000000C4F2000100234FF00C0C4FF416524A
:102AB00080E80E00C0E90333C0E905C3C361FFF736
:102AC00013FB002818BFFDF7FFFE80BDB0B586B030
:102AD00040F23710C2F200000178012940F0D080A6
:102AE0000021017040F2FB2040F2A404C2F2000079
:102AF0000121C2F20004017004F11005211D04F14E
:102B00000C0204F1080320460095FDF741FE206900
:102B1000FDF7BBFB02466AA00B4601F09DF820685A
:102B2000FDF7B3FB02466DA00B4601F095F8E06897
:102B3000FDF7ABFB02466FA00B4601F08DF8A068D5
:102B4000FDF7A3FB024672A00B4601F085F8606812
:102B5000FDF79BFB024675A00B4601F07DF840F2A5
:102B6000C505C2F200052878042800F28980DFE854
:102B700000F0031E39546F002068FDF786FB0B46FA
:102B800044F2945101AC0246C0F60001204601F027
:102B900073F82046FDF757FB82B240F2B420C2F230
:102BA000000021463223FFF7D1FB012067E0606877
:102BB000FDF76BFB0B4644F2AC5101AC0246C0F68C
:102BC0000001204601F058F82046FDF73CFB82B298
:102BD00040F2B420C2F2000021463223FFF7B6FBD8
:102BE00002204CE0E068FDF750FB0B4644F2B85180
:102BF00001AC0246C0F60001204601F03DF8204637
:102C0000FDF721FB82B240F2B420C2F2000021465F
:102C10003223FFF79BFB032031E02069FDF735FBF2
:102C20000B4644F2A05101AC0246C0F6000120461A
:102C300001F022F82046FDF706FB82B240F2B420F4
:102C4000C2F2000021463223FFF780FB042016E089
:102C5000A068FDF71AFB01AC02460B4639A12046DD
:102C600001F00AF82046FDF7EEFA82B240F2B420F5
:102C7000C2F2000021463223FFF768FB00202870D3
:102C800040F2FA20C2F20000007801280CD140F294
:102C9000C600C2F20000017801290ED100210170A6
:102CA000FFF7BEFB06B0B0BD40F2F820C2F2000054
:102CB0000078012808BF00F0B1FE06B0B0BD00BF2B
:102CC0007431342E7478743D22C6B5C2CA3A252EAA
:102CD0003266487A22FFFFFF000000007431302E78
:102CE0007478743D22B5E7D1B93A252E3266562262
:102CF000FFFFFF007431322E7478743D22D7DCB9A7
:102D0000A6C2CA3A252E32665722FFFFFF000000F6
:102D10007431332E7478743D22B9A6C2CAD2F2CA75
:102D2000FD3A252E326622FFFFFF00007431312E5E
:102D30007478743D22B5E7C1F73A252E32664122F8
:102D4000FFFFFF0070663A25332E32660D0A000041
:102D5000FEE70000FEE7000000F0070080F0070338
:102D6000042B28BF04234FF0FF3C03380CFA03F375
:102D700038BF0020994381400CFA00F022EA00009D
:102D8000084370477047000070470000B0B5013835
:102D90000024B4EB106F1CBF0120B0BD4EF2100533
:102DA000CEF2000568604FF0FF300F2100F0E0FD2B
:102DB0000720AC6028602046B0BD000080B540F21E
:102DC0000030C2F2000040F2281C0168C2F2000C80
:102DD000BCF8003001310160591C45F6294388B226
:102DE000CCF28F2343434BF651024FEA7303C0F2F8
:102DF0001E529342ACF8001005D840F22611C2F2E0
:102E0000000101220A7047F6D501C2F2E96141438F
:102E100048F637134FEAF102C0F241039A4205D84F
:102E200040F2C402C2F200020123137041F26E228A
:102E30004FEAB101C0F28302914205D840F2C601C7
:102E4000C2F2000101220A7042F64701CBF2A371DF
:102E500048434BF2CF014FEAB000C0F22B01884249
:102E600002D9FDF743FF80BD40F23710C2F20000E7
:102E700001210170FDF73AFF80BD0000F0B593B06D
:102E800007AC20463021FDF7D3F9002543F640007A
:102E90000695CDE90455CDE902550195C4F202002D
:102EA0000168022641F08051016000680F2700F0A0
:102EB00080500190019847F200000195C4F2000093
:102EC000016841F480410160006800F48040019095
:102ED0000198012007904FF4803008904FF4800053
:102EE0000E906020CDE910060420129020460D9629
:102EF0000F97FEF78FF870B94FF48050CDE90505B4
:102F000002A80221CDE902760495FDF775FF00289D
:102F100004BF13B0F0BDFDF7D7FC00004EF688509B
:102F2000CEF20000016841F47001016070470000BA
:102F300080B540F25410C2F20000FEF79FFD80BD44
:102F400080B540F24010C2F20000FDF70DFD40F2E6
:102F5000E410C2F20000FEF791FD80BD10B540F60E
:102F6000FF3E0368C4F2000E40F2004C7045C4F20C
:102F7000010C0FDCB0F1804F19D040F20042C4F2D6
:102F80000002904213D040F60002C4F200029042C8
:102F90000DD010E040F60042C4F20002904206D08C
:102FA000604504D00022C4F20102904203D14A6875
:102FB00023F07003134341F6FF72C4F20002904203
:102FC0000DDC70451FDCB0F1804F41D040F2004273
:102FD000C4F2000290423BD040F6000221E043F6EA
:102FE000FF72C4F20102904220DC42F20002C4F2FD
:102FF000000290422CD00022C4F20102904227D05D
:10300000604525D028E040F60042C4F2000290421C
:103010001ED041F60002C4F20002904218D041F6E0
:103020000042C4F20002904212D015E044F20002C5
:10303000C4F2010290420BD044F60002C4F2010235
:10304000904205D044F20042C4F20102904203D102
:10305000CA6823F44073134323F080024B69D1F80C
:1030600000E08C681A430260C46240F48062C0F8D9
:1030700028E0624504BF096901630121416110BD77
:1030800080B501F01F014FF0010CD0F820E00CFAE0
:1030900001F32EEA03030362036A02FA01F1194302
:1030A000016280BDD0F808C011432CF47F4C41EA86
:1030B000032141EA0C01816070470000826822F020
:1030C0007002114341F0070181607047B0B5026A98
:1030D00040F2004522F001020262026AD0F804E0E8
:1030E000D0F818C08C6822F0020240F48063C4F269
:1030F0000105AB4242EA040205D1CC6822F00C0281
:1031000024F0040422430C68AB4207D1D1E90553F3
:103110002EF4407E45EA0E0545EA030E2CF07303BB
:103120002343C0F804E08361496841630262B0BD93
:1031300070B5026A40F2004422F010020262026A94
:10314000D0F804E0D0F818C08D6822F0200240F4D6
:103150008063C4F20104A34242EA051207D1CD689C
:103160006FF0400622F0C00206EA05152A430D68FA
:10317000A34207D1D1E905642EF4406343EA8603F4
:1031800043EA840E2CF4E64343EA0523C0F804E046
:10319000836149688163026270BD000070B5026A94
:1031A00040F2004422F480720262026AD0F804E025
:1031B000D0F81CC08D6822F4007240F48063C4F221
:1031C0000104A34242EA052207D1CD6840F2FF463E
:1031D0002D0222F44062B5432A430D68A34207D171
:1031E000D1E905642EF4405343EA061343EA041E72
:1031F0002CF073032B43C0F804E0C3614968C1633A
:10320000026270BD70B5026A40F2004622F480523C
:103210000262026A4368D0F81CE00C68D1F808C06A
:1032200040F48065C4F20106B54204D14D6923F42F
:10323000804343EA85132EF4E64646EA04264360BB
:10324000C66122F40052496842EA0C32016402620B
:1032500070BD0000D0F820C0036A23F001030362B0
:10326000836923F0F00343EA02122CF00A031943A6
:10327000826101627047000010B5D0F820C041F2B1
:10328000FF742CF0010CC0F820C0D0F818E0D0F882
:1032900020C0C4F20004A0420DDC40F2FF74C4F26E
:1032A0000004A04215DCB0F1804F29D040F2004468
:1032B000C4F2000422E040F2FF34C4F20104A04250
:1032C00012DC41F60004C4F20004A04218D000242D
:1032D00012E040F60004C4F20004A04210D040F610
:1032E0000044C4F2000409E044F20004C4F2010402
:1032F000A04205D040F20044C4F20104A0420CD127
:103300002EF00304224363F307122CF00A0301F0AA
:103310000A0119448261016210BD4EF00102F2E718
:10332000036A23F0100303628369D0F820C023F4FA
:10333000704343EA02322CF0A00343EA0111826198
:103340000162704710B5D0F820C012022CF0100CAA
:10335000C0F820C0D0F818C0D0F820E04FF2FF0429
:10336000A2432CF4734C63F30F322EF0A00301F050
:103370000A0142EA0C0243EA01118261016210BDB6
:1033800080B5D0F820C063F307122CF4807CC0F81D
:1033900020C0D0F81CC0D0F820E02CF0F30C2EF4A4
:1033A000206301F00A0142EA0C0243EA0121C261F2
:1033B000016280BD10B5D0F820C012022CF4805CF0
:1033C000C0F820C0D0F81CC0D0F820E04FF2FF04B5
:1033D000A2432CF4734C63F30F322EF4204301F01C
:1033E0000A0142EA0C0243EA0131C261016210BDE6
:1033F00080B5806B0021C185C184FEF755FD80BD7D
:10340000016851E8031F026821F4907142E8031338
:10341000002BF5D1016851E8051F026821F0010178
:1034200042E80513002BF5D1016B01290AD100BF39
:10343000016851E8031F026821F0100142E80313FC
:10344000002BF5D1202180F83E1000210163704748
:1034500080B50168CA6822F04002CA60202180F865
:103460003D10FEF7D9FF80BD80B582B090F83E10C8
:1034700022291ED18268B2F5805F02D1016900293C
:1034800048D0816AB2F5805F07D00AB9026922B1DB
:103490000268526802F07F0201E0026852680A7016
:1034A0000121826A11448162C18D01390A04C185FA
:1034B00001D002B080BD0168CA6822F02002CA6053
:1034C000CA6822F48072CA604A6922F001024A6125
:1034D000202180F83E10016B012923D100210163D6
:1034E000016851E8031F026821F0100142E803134C
:1034F000002BF5D101680A68D20606D50022019298
:103500000A680192496801910199818DFEF7CAFC10
:1035100002B080BD0168826A49686FF35F21118043
:103520000221BEE7FEF7D6FE02B080BD10B504460C
:103530000068D4E902C22369016921F440511143B2
:103540000161626943EA0C01E3691143C2681943EE
:1035500049F20C639A431143C1604169A26921F4A5
:10356000407141F20043114340F48062C4F2010310
:103570009A42416102D1FDF707FD01E0FDF7F2FC3F
:10358000E16963681922B1F5004FA0FB02011CD16B
:103590005A00DB0FFCF714FE48F21F51C5F2EB1185
:1035A000A0FB01235A096FF0630302FB03003223DF
:1035B00003EBC000A0FB01014FF4F87000EA11100A
:1035C00000EB0210C1F342111AE09A009B0FFCF7C6
:1035D000F7FD48F21F51C5F2EB11A0FB01235A0978
:1035E0006FF0630302FB0300322303EB0010A0FB28
:1035F0000101F02000EA511000EB0210C1F3431169
:1036000022680843906010BD81628285C2850021D6
:103610002222016480F83E20026980F83C1022B129
:103620000168CA6842F48072CA600168486940F063
:1036300001004861C86840F020020020CA6070475D
:1036400090F83D10212923D18168B1F5805F01D127
:10365000016931B1016A02684B1C0362097851604B
:1036600007E0016A036831F8022B6FF35F225A60AA
:103670000162C18C01390A04C18418BF7047006817
:10368000C16821F08001C160C16841F04001C160A2
:10369000704700002DE9F0410446006800680840CA
:1036A000884202D10020BDE8F0811D460E469046BA
:1036B0005F1C04E0206800683040B042F2D0002F68
:1036C000F8D02DB1FDF70CFBA0EB0800A842F1D912
:1036D000206850E8030F216820F4D07041E803020D
:1036E000002AF5D1206850E8050F216820F001007C
:1036F00041E80502002AF5D1202084F83D0084F835
:103700003E00002084F83C000320BDE8F08100006A
:1037100080B540F22C20C2F20000FEF7C7FB80BD4E
:1037200080B540F27020C2F20000FEF7BFFB80BD02
:103730002DE9F04140F2F408C2F2000898F80000C8
:10374000012840F08C8098F80100032817D0022847
:1037500040F0858044F2C454002542A648A7C0F634
:10376000000402E00135072D23D0062DFAD856F8C3
:10377000251057F825000C6000F06EFAF2E798F873
:1037800002000138062888BFBDE8F081DFE800F0BC
:1037900004353B41474D5B0040F23610C2F2000059
:1037A0000121017040F2F920C2F200000170BDE871
:1037B000F08198F80200012811D000284FD140F282
:1037C000F920C2F200000021017040F2F820C2F29C
:1037D0000000017040F2FA20C2F200002FE040F237
:1037E000F820C2F200000121017040F2FA20C2F27A
:1037F000000000210170BDE8F08140F23610C2F2F5
:103800000000022116E040F23610C2F2000003214F
:1038100010E040F23610C2F2000004210AE040F24B
:103820003610C2F20000052104E040F23610C2F268
:1038300000000621017040F2F920C2F200000121CF
:103840000170BDE8F08140F23610C2F2000007219D
:10385000017040F2F920C2F2000001210170BDE8C0
:10386000F08100BF180000202C0000204000002044
:1038700054000020680000207C0000209000002000
:10388000CB450008D8450008E5450008F24500088A
:10389000FF4500080C460008194600082DE9F041D4
:1038A00040F2F205C2F200052F8840F234160446B9
:1038B000C2F200065FB1307848B901204FF001082C
:1038C000FDF72CF92888874208BF86F800803078F9
:1038D000012818BFBDE8F0812888032801D1A0473E
:1038E00001E00020307000202880BDE8F081000059
:1038F000F0B581B040F23215C2F200052E8840F2D8
:103900003514C2F200044EB1207838B901200127E5
:10391000FDF704F92888864208BF2770207801281F
:103920000AD12888252805D140F2FC20C2F20000E7
:10393000012101700020207001B0F0BDFEE7000001
:10394000002848BF704700F01F01012202FA01F170
:103950004EF200124009CEF2000242F820107047E9
:103960004EF60C50CEF200000068C0F30220704703
:103970004EF6145300F00F02CEF2000309011A4470
:1039800000F16043B0F1FF3FC8BF03F5644211701E
:10399000704700004EF60C51CEF200010A684FF657
:1039A000FF031A4060F30A2242F0806040F0FD708D
:1039B00008607047484000214AF20102C307C0F383
:1039C0004E0018BF5040072901F10101F6D370479E
:1039D00071B1B0B50C46451E4FF6FF7115F8010FD9
:1039E000FFF7E8FF013C0146F8D1BDE8B04001E037
:1039F0004FF6FF7108BA000C7047000080B582B026
:103A0000019040F22C20C2F2000001A901224FF0E7
:103A1000FF33FEF79BFC019802B080BDB0B582B0C9
:103A200040F2F920C2F200000178012932D140F2BF
:103A3000A4050021C2F20005017005F11004291D42
:103A400005F10C0205F1080328460094FCF7A0FEDE
:103A500000B340F23610C2F2000000780138C1B263
:103A6000062914D840B20CA151F820106C6811A29C
:103A70000C6052F82020296815A3116053F82030FB
:103A8000E9681AA4196054F82000A96801601EA012
:103A900000F0E2F802B0B0BD0C00002020000020D1
:103AA00034000020480000205C000020700000204E
:103AB00084000020080000201C00002030000020AE
:103AC00044000020580000206C00002080000020EE
:103AD00014000020280000203C000020500000209E
:103AE00064000020780000208C00002010000020DE
:103AF00024000020380000204C000020600000203E
:103B0000740000208800002067756E5F666C616736
:103B10002E76616C3D31FFFFFF000000FDF7F4F8E9
:103B2000FFF7ACF9FEF74EFEFEF71AFEFEF77AFE3F
:103B3000FEF7E4FEFEF74CFFFEF774FFFEF78EFF84
:103B4000FEF7A8FF40F22C2040F2F001C2F2000084
:103B5000C2F2000101220124FEF7A0FB40F2702016
:103B600040F2EF01C2F20000C2F200010122FEF7B2
:103B700095FB40F29C10C2F200000021FEF7E2F833
:103B800040F25410C2F200000021FDF7C9FE4FF4CC
:103B90007A70FCF7C3FF40F2FA20C2F20000047012
:103BA0000AA000F059F840F6B830FCF7B7FF0EA0B5
:103BB00000F052F843F23174C0F60004FFF798FEAB
:103BC0002046FFF76BFEFEF781FFF7E767312E74A3
:103BD00078743D22D5FDD4DAC1AACDF8D6D02E2EE8
:103BE0002E22FFFFFF00000067312E7478743D2203
:103BF000D2D1C1ACBDD3BBA5C1AACDF8C6BDCCA89E
:103C00002E2E22FFFFFF000010B540F2FB20C2F273
:103C100000000178012918BF10BD0021017040F299
:103C20002A1440F20130C2F20004C4F60000206001
:103C30004FF40060A08020460621FFF7C9FE00BABD
:103C4000000CE08040F27020C2F200002146082201
:103C50003223FEF77BFB10BD0FB4054B10B503A953
:103C6000044A029800F0EEF810BC5DF814FB000066
:103C7000FD390008000000200FB4084B10B504A95E
:103C800002AA039800F0DEF8044602A9002000F022
:103C900070FC204610BC5DF814FB00007345000862
:103CA00002E008C8121F08C1002AFAD17047704705
:103CB000002001E001C1121F002AFBD17047000063
:103CC0002DE9FF5F82B00021DDE90430020DDDF84F
:103CD00040B0034318D044F61050A2F2FF324243E2
:103CE0001514119801281FD0A5EB0B00401C5FEAAA
:103CF000000A4FF000064E4FDFF83891B0465046AC
:103D000015D5CAF1000413E0119801244AA3012833
:103D100001D16FEA0B010298119AC0E90031C0E9A4
:103D2000024206B0BDE8F09FCBF10000DFE7044699
:103D30000021404A491842EB0450CDE9001012E03E
:103D4000E00707D032463B4640464946FCF78CFB2D
:103D50008046894632463B4610461946FCF784FBAE
:103D600006460F466410002CEAD1DDE90401DDE9C6
:103D70000023BAF1000F06DAFCF776FB42464B4609
:103D8000FCF772FB05E0FCF7E1FB42464B46FCF713
:103D9000DDFB04460E460022284BFCF75FFC03D8EF
:103DA0004FF0FF30014607E00022254B2046314608
:103DB000FCF7B3FAFCF739FC102409E0002C0ADB0D
:103DC0000A220023FCF7FCF9039B30321A55641ECB
:103DD00050EA0102F2D1641C039AC4F111031444A5
:103DE000119A012A03D0012208430DD10AE00843A9
:103DF00004D000204FF0110B119072E7A3EB0B05DC
:103E00006D1E0DE05B4504DD4FF0000205F101057C
:103E100004E003DA4FF00002A5F10105002AECD01E
:103E200002981199C0E90231C0E9004579E7000024
:103E3000000014400000F03F300000000000F0439C
:103E40000000E03F2DE9FF4F95B09B4689460646AE
:103E500000250FE2252877D100242746F84A0121C2
:103E6000059400E0044316F8013F203B01FA03F0FB
:103E70001042F7D130782A2811D06FF02F03307814
:103E8000A0F13002092A16D8059A44F0020402EB88
:103E9000820203EB42021044761C0590EFE759F8CA
:103EA000042B0592002A03DA504244F40054059092
:103EB00044F00204761C30782E2816D116F8010F33
:103EC00044F004042A280DD06FF02F023078A0F1BE
:103ED0003003092B09D807EB870302EB4303C7180C
:103EE000761CF3E759F8047B761C30786C280FD0E9
:103EF00006DC4C2817D068280DD06A2814D104E0BD
:103F0000742810D07A280FD10DE044F400140AE090
:103F100044F4801401E044F440147278824202D1E7
:103F200004F58014761C761C307866280BD013DCE0
:103F3000582877D009DC002875D04528F6D04628C7
:103F4000F4D047281AD19DE118E0632835D06428C1
:103F500079D0652812D195E1702873D008DC6728E4
:103F6000F1D069286FD06E280DD06F2806D1B5E04A
:103F700073282CD0752875D0782874D05A46179994
:103F800090476D1C75E1C4F30250022809D0032844
:103F90000DD0D9F8001004280DD00D6009F10409E6
:103FA00067E1D9F80010EA17C1E90052F6E7D9F83D
:103FB00000100D80F2E70D70F0E719F8041B8DF882
:103FC000001000208DF80100EA46012003E059F8B6
:103FD00004AB4FF0FF3061074FF0000102D40DE059
:103FE00008F101018846B9420FDA8045F8DB1AF87A
:103FF00008100029F4D108E008F101018846814247
:10400000FADB1AF808100029F6D105985B46A0EBF8
:10401000080721463846179A00F094FA284400EB26
:10402000080507E04DE029E10DE01AF8010B5A46BA
:1040300017999047B8F10108F7D25B4621463846F8
:10404000179A13E142E00A220092C4F302524FF0A1
:10405000000A022A08D059F804CB032A4FEAEC716F
:104060000AD00DE029E02AE009F1070121F007025A
:10407000F2E802C1914609E00FFA8CFC4FEAEC71BC
:10408000042A03D14FFA8CFC4FEAEC71002907DABD
:104090000A460021DCF1000C61EB02012D2202E056
:1040A000220504D52B228DF80420012203E0E2072B
:1040B00001D02022F7E7904659E00A2102E01022C1
:1040C0000DE010214FF0000A00910BE010224FF09C
:1040D000000A44F004040827009203E008224FF08D
:1040E000000A0092C4F30252022A05D059F804CB08
:1040F0000021032A08D009E009F1070121F0070295
:10410000F2E802C1914605E01FFA8CFC042A01D1B5
:104110000CF0FF0C4FF00008220728D5702806D0BD
:10412000009B83F0100353EA0A0305D00EE04022FF
:104130008DF80420012208E05CEA010206D030225A
:104140008DF804208DF8050002229046009B83F034
:10415000080353EA0A030AD15CEA010201D16207AB
:1041600005D530228DF804204FF001087F1E582815
:1041700004D034A003900EA802900DE036A0F9E719
:1041800053466046009AFCF71BF884460398825C0D
:104190000298401E029002705CEA0100F0D1029881
:1041A00006A9081A00F1200A600702D524F4803419
:1041B00000E00127574502DDA7EB0A0000E00020E0
:1041C00000EB0A01009005984144401A0590E00375
:1041D00006D45B462146179A059800F0B3F90544CA
:1041E000002706E001A85A46C05D179990476D1C4C
:1041F0007F1C4745F6DBE0030CD55B462146179A4A
:10420000059800F09FF9054404E030205A461799BC
:1042100090476D1C0099481E00900029F5DC08E0CD
:10422000029802995A460078491C029117999047C2
:104230006D1CBAF10001AAF1010AF1DC65E1000090
:10424000092801003031323334353637383961626C
:104250006364656600000000303132333435363730
:1042600038394142434445460000000000F058F907
:104270000544761C307800287FF4ECAD19B0284650
:10428000BDE8F08F620700D4062709F1070222F08B
:10429000070CFCE80223E14603F000485FEA080C43
:1042A00002D00FF2702C0DE05FEA045C02D50FF231
:1042B000682C07E05FEAC47C02D00FF2602C01E0BA
:1042C000AFF2700C4FF0FF3823F00043CDF850C030
:1042D00065280CD006DC452809D046281DD0472883
:1042E0003DD13DE0662818D067287ED138E0002116
:1042F000112F01DB112000E0781CCDE9000106A997
:104300000EA8FFF7DDFCDDE90F010E9A03910021F5
:10431000009207F1010A04914DE04FF00040009730
:10432000CDE9011006A90EA8FFF7CAFCDDE90F02CE
:1043300003920E9B11990022DDF80CA000930492C9
:1043400011B9791C00EB010AB7EB0A0004D4C0F1E3
:10435000FF3007F1010A0490AAEB0700019044E046
:10436000012F00DA01270021112F01DD112000E0CB
:104370003846CDE9000106A90EA8FFF7A1FCDDE94A
:104380000F010E9A0391002104910092BA46210771
:104390000CD40399514500DA8A46BAF1010F05DDC4
:1043A000009AAAF10101515C302908D0B84202DA22
:1043B00010F1040F06DA0121CDE9011015E0AAF190
:1043C0000101E9E7002805DC049901440491AAEB06
:1043D000000102E0411C514500DD8A460499401A63
:1043E000401C01904FF000400290200704D4019837
:1043F000504501DBCDF8048000208DF84F00029875
:104400000DF14F07B0F1004F25D02B200E900298F0
:104410004FF0020800280CDA404202902D200E9046
:1044200007E00A210298FBF743FF3031029007F8BA
:10443000011DB8F10001A8F10108F2DC0298002882
:10444000EFD1791E0E980870307800F0200040F00F
:10445000450007F8020D12A8C01B00F107081498C8
:10446000007800B1012000EB0A01019801EBE07136
:1044700005984144401A401E0590E00306D45B466F
:104480002146179A059800F05DF8054414980078C5
:1044900018B15A46179990476D1CE00324D55B4626
:1044A0002146179A059800F04DF805441CE0049841
:1044B000002807DBDDE90301884203DD0098405C4A
:1044C000179901E0179930205A469047049805F152
:1044D0000105401C04900198401E019004D12E203B
:1044E0005A46179990476D1CBAF10001AAF1010ACA
:1044F000DDDC05E017F8010B5A46179990476D1C53
:10450000B8F10001A8F10108F4DC5B462146179AD6
:104510000598ABE62D0000002B00000020000000F5
:104520002DE9F041044600251E461746880404D4B0
:1045300005E039462020B0476D1C641EF9D5284699
:10454000BDE8F0812DE9F041044600251E46904665
:10455000C80301D5302700E02027880404D505E0F2
:1045600041463846B0476D1C641EF9D52846BDE863
:10457000F0810A68531C0B60107070470000000047
:104580000000000001020304060708090000000003
:1045900001020304766F6C3A25332E32660D0A0051
:1045A0006672713A25332E32660D0A006375723ACF
:1045B00025332E32660D0A00706F773A25332E327E
:1045C000660D0A006F6666006F6E007377302E7698
:1045D000616C3D30FFFFFF007377312E76616C3DDB
:1045E00030FFFFFF007377322E76616C3D30FFFFA6
:1045F000FF007377332E76616C3D30FFFFFF007351
:1046000077342E76616C3D30FFFFFF007377352ED7
:1046100076616C3D30FFFFFF007377362E76616C5C
:104620003D30FFFFFF007377302E76616C3D31FF28
:10463000FFFF007377312E76616C3D31FFFFFF0085
:104640007377322E76616C3D31FFFFFF0073773355
:104650002E76616C3D31FFFFFF007377342E76615B
:104660006C3D31FFFFFF007377352E76616C3D3175
:10467000FFFFFF007377362E76616C3D31FFFFFF41
:1046800000000000A846000800000020A000000074
:10469000A03C000848470008A00000206806000071
:1046A000B03C000800000000000000000024F400FE
:1046B000B0F26A430000803E295C4F3F6666964038
:1046C000C4450008BC546B439A99593F5C8F023F24
:1046D0009A992141C44500080E0D6B4300006041CA
:1046E0008FC2F53E66669A41C4450008B4686B43C4
:1046F0007B140E4048E17A3F3333A741C44500089C
:1047000033736843CDCC6C40B81E053F333317423A
:10471000C445000800006B430000C04014AE5E4278
:10472000CDCC3A42C4450008962366433333054254
:104730000000C842CD6C5444C4450008010000008C
:08474000100000000000000061
:040000050800018965
:00000001FF
