:020000040800F2
:10000000F806002005010008D12A00087524000820
:10001000CD2A0008B10300080539000800000000DF
:10002000000000000000000000000000393100085E
:10003000F103000800000000293000083B310008EF
:100040001F0100081F0100081F0100081F01000810
:100050001F0100081F0100081F0100080704000815
:10006000110400081F0100081F0100081F010008FB
:100070001F0100081F0100081F010008B503000848
:100080001F0100081F0100081F0100081F010008D0
:100090001F0100081F0100081F0100081B040008C1
:1000A0001F0100081F0100081F0100081F010008B0
:1000B0001F0100081F010008AD3100081F010008E2
:1000C0001F0100081F0100081F010008153100086A
:1000D0001F010008713800081F0100081F010008F7
:1000E000F30300081F0100081F010008DFF810D00B
:1000F00000F038F9004800474D3A0008AFF300809F
:10010000F80600200648804706480047FEE7FEE75D
:10011000FEE7FEE7FEE7FEE7FEE7FEE7FEE7FEE7B7
:10012000A9310008ED000008D2B201E000F8012B6F
:10013000491EFBD270470022F6E710B513460A4667
:1001400004461946FFF7F0FF204610BDF0B480EAE0
:100150000102D40F4200B2EB410F02D20246084620
:1001600011464A0042D0C30DDDB2C1F3C752AD1AE9
:10017000202D35DAC1F3160141F4000204B15242D8
:10018000C5F1200602FA06F12A411044B3EBD05F14
:1001900023D0C4B1012DA0EBC35009DCF0BC4FF05B
:1001A000004202EAC352DBB200F5000000F0ABB837
:1001B000400000F1807000EBC350A0F1807040EA75
:1001C000D170490009E0490841EAC071A0EBC35071
:1001D00000F50000400800EBC350F0BC00F08AB806
:1001E0006142012202EB4101001BF6E7F0BC7047BF
:1001F00081F00041AAE780F00040A7E780EA010211
:1002000010B502F00043400022D04A001FD0010E7A
:1002100001EB1261C0F35600C2F3560240F4000035
:1002200042F40002A0FB022000047F39140400D035
:10023000401C50EA124001D44000491EC2B20C06D4
:1002400004EBD010401C4008802A02D003E00020BC
:1002500010BD20F00100002900DA0020184310BD75
:10026000C10F80EAE0700844CA079623002100F01D
:100270004AB800F0004220F00040C10DC0F3160063
:1002800040F400007F2901DA00207047962903DC42
:10029000C1F19601C84001E096398840002AF4D0A7
:1002A0004042704720F00040C10DC0F3160040F4FA
:1002B00000007F2901DA00207047962903DCC1F194
:1002C0009601C8407047963988407047002801DB86
:1002D000C0F10040002901DBC1F1004181427047BB
:1002E000002801DBC0F10040002901DBC1F1004121
:1002F000884270470029A8BF7047401C490008BFCA
:1003000020F00100704710B4B0FA80FC00FA0CF045
:1003100050EA010404BF10BC704749B1CCF120047D
:1003200021FA04F411FA0CF118BF0121214308430A
:10033000A3EB0C01CB1D4FEA00614FEA102042BF36
:10034000002010BC704700EBC35010440029A4BF2C
:1003500010BC7047401C490008BF20F0010010BCD1
:1003600070470000064C074D06E0E06840F00103CE
:1003700094E8070098471034AC42F6D3FFF7BAFE72
:10038000344300085443000870B505460C4607483E
:10039000056006480C300460962000F019FA002031
:1003A0000249086001490C31086070BD342C0140DD
:1003B00000BFFEE710B5024800F0BAF810BD00001B
:1003C000B402002030B590F840500124AC40C56B19
:1003D0006C60046863604468102C04D10468A260F7
:1003E0000468E16003E00468A1600468E26030BD75
:1003F000704710B54FF4804000F03CFA4FF40040D5
:1004000000F038FA10BD10B5022000F033FA10BD2C
:1004100010B5042000F02EFA10BD10B5802000F0B9
:1004200029FA10BD72B600BFFEE70146002291F81E
:100430002100022808D00420886300BF002081F832
:10044000200000BF012070470868006820F00E00FF
:100450000B6818600868006820F001000B681860DD
:1004600091F8403001209840CB6B5860012081F812
:10047000210000BF002081F8200000BF1046E2E705
:1004800070B50446002594F82100022803D004200A
:10049000A063012548E02068006820F00E00216874
:1004A00008602068006820F00100216808601F498A
:1004B0002068884201D1012026E01C4914312068BF
:1004C000884201D110201FE0184928312068884255
:1004D00001D1801518E015493C312068884201D1CE
:1004E000801411E0114950312068884202D14FF444
:1004F000803009E00D4964312068884202D14FF410
:10050000801001E04FF080700849083948600120F0
:1005100084F8210000BF002084F8200000BF606B39
:1005200010B12046616B8847284670BD0800024024
:1005300070B50446E06B05682068066894F84010C2
:10054000042088402840002846D006F004000028F7
:1005500042D02068006800F0200028B920680068B8
:1005600020F004002168086057492068884201D1C2
:10057000042027E0544914312068884201D14020EA
:1005800020E0514928312068884201D1001519E046
:100590004D493C312068884202D14FF4804011E03F
:1005A000494950312068884202D14FF4802009E047
:1005B000454964312068884202D14FF4800001E04F
:1005C0004FF08060404908394860E06A00287AD0DE
:1005D0002046E16A884776E094F84010022088407F
:1005E0002840A0B306F0020088B32068006800F03D
:1005F000200040B92068006820F00A0021680860E7
:10060000012084F8210030492068884201D102206D
:1006100028E02D4914312068884201D1202021E0B2
:10062000294928312068884201D140151AE026491D
:100630003C312068884202D14FF4005012E0224938
:1006400050312068884203D14FF400300AE017E0AF
:100650001D4964312068884202D14FF4001001E046
:100660004FF0007018490839486000BF002084F836
:10067000200000BFA06A30B32046A16A884722E06C
:1006800094F84010082088402840E0B106F00800A7
:10069000C8B12068006820F00E002168086094F856
:1006A000401001208840E16B48600120A06384F87D
:1006B000210000BF002084F8200000BF206B10B193
:1006C0002046216B884770BD080002400146002289
:1006D00009B901207047164B0868C01A1423B0FBF3
:1006E000F3F08000086412480838C863022081F8DB
:1006F00021000868026843F6F0708243D1E90103E3
:100700001843CB6818430B6918434B6918438B692E
:100710001843CB69184302430868026000208863CD
:10072000012081F82100002081F8200000BFD1E7DE
:10073000080002402DE9F04104460D4616461F46CA
:100740004FF0000800BF94F82000012802D10220D9
:10075000BDE8F081012084F8200000BF94F821005A
:1007600001282CD1022084F821000020A0632068F9
:10077000006820F00100216808603B4632462946A7
:100780002046FFF71FFEE06A30B12068006840F0A5
:100790000E00216808600BE02068006820F004006B
:1007A000216808602068006840F00A00216808603D
:1007B0002068006840F001002168086006E000BF82
:1007C000002084F8200000BF4FF002084046BFE739
:1007D00070B5044600F0FAF906462546681C10B1CB
:1007E00004480078054400BF00F0F0F9801BA842DF
:1007F000FAD370BD3000002010B50446B4F5004FA8
:100800000CD14FF40041174800F0D2F9012801D172
:10081000154908704FF4004014490860B4F5804F42
:100820000CD14FF480410F4800F0C2F9012801D1EA
:100830000F4908704FF480400C490860022C06D123
:100840000221084800F0B4F9A00308490860042C0C
:1008500006D10421034800F0ABF9600303490860A6
:1008600010BD0000000C0140930000201404014062
:100870009400002010B5044604480068204020B1D0
:10088000024804602046FFF7B7FF10BD1404014082
:100890002DE9F8470346002294466EE14FF0010827
:1008A00008FA02F4D1F8008008EA0400A0427DD1E1
:1008B000DFF8DCA2D1F80480A8EB0A09D0453AD0D1
:1008C00014DCB8F1030F50D009DCB8F1000F31D0BF
:1008D000B8F1010F1CD0B8F1020F49D120E0B8F1F6
:1008E000110F18D0B8F1120F42D11EE0B9F5881FD0
:1008F00025D006DCB9F5803F20D0B9F5801F37D16F
:100900001AE0B9F5001F18D0B9F5041F30D117E06F
:10091000D1F80CC02DE0D1F80C8008F1040C28E0CF
:10092000D1F80C8008F1080C23E0D1F80C8008F114
:100930000C0C1EE000BF00BF00BF00BF00BF00BF27
:10094000D1F80880B8F1000F02D14FF0040C0BE091
:10095000D1F80880B8F1010F03D14FF0080C1C61E9
:1009600002E04FF0080C5C6103E04FF0000C00E087
:1009700000BF00BFFF2801D8984601E003F104083A
:100980004646FF2802D84FEA820803E0A2F1080891
:100990004FEA88084746D6F800804FF00F0909FA59
:1009A00007F928EA09080CFA07F900E088E048EAA4
:1009B0000908C6F80080D1F8048008F08058B8F122
:1009C000805F7DD100BFDFF8CC81D8F8188048F077
:1009D0000108DFF8C091C9F81880C846D8F8188017
:1009E00008F00108CDF8008000BF00BF4FEAB93819
:1009F0004FEA920958F829504FEA82784FEA18795D
:100A00004FF00F0808FA09F825EA0805DFF8888191
:100A1000434502D14FF0000816E0DFF880814345DE
:100A200002D14FF001080FE0DFF87481434502D195
:100A30004FF0020808E0DFF86C81434502D14FF027
:100A4000030801E04FF004084FEA82794FEA197970
:100A500008FA09F848EA0505DFF84C814FEA9209DF
:100A600048F82950D1F8048008F48038B8F5803F60
:100A70000AD1DFF83881D8F8008048EA0008DFF8AA
:100A80002C91C9F8008009E0DFF82081D8F80080B7
:100A900028EA0008DFF81491C9F80080D1F8048032
:100AA00008F40038B8F5003F10D1DFF8008108F1F4
:100AB0000408D8F8008048EA0008DFF8F09000E069
:100AC0005AE009F10409C9F800800DE0DFF8DC8084
:100AD00008F10408D8F8008028EA0008DFF8CC9074
:100AE00009F10409C9F80080D1F8048008F48018DD
:100AF000B8F5801F0ED1DFF8B48008F10808D8F8E7
:100B0000008048EA0008DFF8A49009F10809C9F854
:100B100000800DE0DFF8948008F10808D8F8008024
:100B200028EA0008DFF8849009F10809C9F8008074
:100B3000D1F8048008F40018B8F5001F0ED1DFF8D2
:100B40006C8008F10C08D8F8008048EA0008DFF84B
:100B50005C9009F10C09C9F800800DE0DFF84C80C9
:100B600008F10C08D8F8008028EA0008DFF83C906B
:100B700009F10C09C9F80080521CD1F8008028FA4C
:100B800002F8B8F1000F7FF489AEBDE8F8870000E5
:100B9000000011100010024000080140000C01404C
:100BA0000010014000140140080001400004014011
:100BB000024693680B400BB1012000E00020704713
:100BC0000AB1016101E00B0403617047014800684C
:100BD0007047000028000020034800680349097896
:100BE00008440149086070472800002030000020B8
:100BF00010B50848006840F010000649086003205E
:100C000000F09EF80F2000F007F800F02BF800200D
:100C100010BD00000020024070B504460E48007868
:100C20004FF47A71B1FBF0F00C490968B1FBF0F5B3
:100C3000284600F047FD08B1012070BD102C07D2F6
:100C400000222146501E00F03DF80548046001E0F6
:100C50000120F2E70020F0E73000002034000020FF
:100C60002C00002008B500BF0D48806940F001004D
:100C70000B4988610846806900F00100009000BFC0
:100C800000BF00BF0846C06940F08050C8610846F8
:100C9000C06900F08050009000BF00BF08BD000098
:100CA0000010024001460846002809DB00F01F033F
:100CB00001229A4043099B0003F1E023C3F800217D
:100CC00000BF70472DE9F05F80460D4616460027AD
:100CD00002F01AFE074639462A46334601F007005D
:100CE000C0F1070ABAF1040F02D94FF0040A01E07B
:100CF000C0F1070AD14600F1040ABAF1070F02D287
:100D00004FF0000A01E0A0F1030AD4464FF0010AB7
:100D10000AFA09FAAAF1010A0AEA020A0AFA0CFA1C
:100D20004FF0010B0BFA0CFBABF1010B0BEA030BC1
:100D30004AEA0B042146404602F0EEFDBDE8F09F72
:100D400000BF00F00702064B19684FF6FF03194079
:100D5000044B0B4343EA0221014B196000BF70476B
:100D60000CED00E00000FA0570B504460D460CB924
:100D7000012070BD5A48006800F00700A8420ED25A
:100D80005748006820F00700284355490860084686
:100D9000006800F00700A84201D00120E9E72078B0
:100DA00000F0020002281DD1207800F00400042881
:100DB00005D14C48406840F4E0604A4948602078DA
:100DC00000F00800082805D14648406840F460500B
:100DD000444948604348406820F0F000A168084357
:100DE00040494860207800F0010078B3606801282D
:100DF00006D13C48006800F4003090B90120B8E703
:100E00006068022806D13748006800F0007040B9D9
:100E10000120AEE73348006800F0020008B9012065
:100E2000A7E73048406820F00300616808432D4977
:100E30004860FFF7CBFE064609E0FFF7C7FE801BC0
:100E400041F28831884202D9032092E707E0254821
:100E5000406800F00C006168B0EB810FEDD12048D4
:100E6000006800F00700A8420ED91D48006820F075
:100E7000070028431A4908600846006800F0070088
:100E8000A84201D0012074E7207800F00400042873
:100E900007D11448406820F4E060E1680843114934
:100EA0004860207800F00800082808D10D48406804
:100EB00020F46050216940EAC1000A49486000F00E
:100EC0003FF808494968C1F30311074A515CC8401B
:100ED0000649086006480068FFF79EFE002048E7C4
:100EE00000200240001002402C3D00083400002089
:100EF0002C000020014800687047000034000020EA
:100F000000B5FFF7F7FF04494968C1F30221034A1E
:100F1000515CC84000BD0000001002403C3D00088C
:100F200000B5FFF7E7FF04494968C1F3C221034A4E
:100F3000515CC84000BD0000001002403C3D00086C
:100F4000F0B585B00FF26C0C9CE8E01001A8A0E8A9
:100F5000E0101CA52D68009500210022002300242C
:100F60000020194D696801F00C05F5B1042D02D07F
:100F7000082D19D101E0154819E001ADC1F38346F0
:100F8000AC5D01F4803555B10F4D6D68C5F340453A
:100F90001DF805200D4D6543B5FBF2F302E00C4D45
:100FA00004FB05F3184602E000BF084800BF00BF7D
:100FB00005B0F0BD02030405060708090A0B0C0D75
:100FC0000E0F1010010200000010024000127A0003
:100FD00000093D00F8B504460CB90120F8BD2078A1
:100FE00000F00100002878D0F848406800F00C00BC
:100FF00004280CD0F548406800F00C00082811D1F6
:10100000F248406800F48030B0F5803F0AD1EF48E4
:10101000006800F4003000285FD0606800285CD1D0
:101020000120DBE700BF6068B0F5803F06D1E748EC
:10103000006840F48030E549086028E0606858B9ED
:10104000E248006820F48030E04908600846006803
:1010500020F4802008601AE06068B0F5A02F0BD162
:10106000DA48006840F48020D849086008460068E3
:1010700040F4803008600AE0D448006820F48030F2
:10108000D24908600846006820F48020086000BF4C
:10109000606888B1FFF79AFD054606E0FFF796FD08
:1010A000401B642801D9032098E7C848006800F471
:1010B00000300028F2D010E0FFF788FD054606E07A
:1010C000FFF784FD401B642801D9032086E7BF4851
:1010D000006800F400300028F2D1207800F002000F
:1010E000022857D1B948406800F00C0050B1B74809
:1010F000406800F00C00082818D1B448406800F49B
:10110000803098B9B148006800F0020020B1206931
:10111000012801D0012061E7AC48006820F0F80008
:10112000616940EAC100A949086033E02069E8B17B
:101130000120A7490860FFF749FD054606E0FFF7D3
:1011400045FD401B022801D9032047E79F4800685E
:1011500000F002000028F2D09C48006820F0F8005F
:10116000616940EAC1009949086013E0002098498C
:101170000860FFF72BFD054606E0FFF727FD401B43
:10118000022801D9032029E79048006800F00200F6
:101190000028F2D1207800F0080008282DD1A0699D
:1011A000B8B101208B490860FFF710FD054606E045
:1011B000FFF70CFD401B022801D903200EE78348EE
:1011C000406A00F002000028F2D0012001F02EFF5A
:1011D00013E000207F490860FFF7F8FC054606E0B1
:1011E000FFF7F4FC401B022801D90320F6E67748FC
:1011F000406A00F002000028F2D1207800F00400DC
:10120000042873D100277148C06900F0805070B97C
:1012100000BF6E48C06940F080506C49C861084604
:10122000C06900F08050009000BF00BF01276A48ED
:10123000006800F48070B0B96748006840F48070BE
:1012400065490860FFF7C2FC054606E0FFF7BEFCF3
:10125000401B642801D90320C0E65F48006800F401
:1012600080700028F2D000BFE068012806D15748FE
:10127000006A40F001005549086227E0E06858B96B
:101280005248006A20F00100504908620846006A8E
:1012900020F00400086219E0E06805280BD14B48F3
:1012A000006A40F00400494908620846006A40F0BC
:1012B000010008620AE04548006A20F00100434945
:1012C00008620846006A20F00400086200BFE06877
:1012D000A0B1FFF77BFC054609E0FFF777FC401B58
:1012E00041F28831884202D9032077E622E037486C
:1012F000006A00F002000028EFD012E0FFF766FC61
:10130000054608E0FFF762FC401B41F28831884245
:1013100001D9032062E62D48006A00F0020000288F
:10132000F0D1012F05D12948C06920F0805027490C
:10133000C86100BFE069C8B32448406800F00C00F1
:10134000082860D0E069022848D1002020490866BA
:10135000FFF73CFC054606E0FFF738FC401B02287F
:1013600001D903203AE61948006800F0007000280F
:10137000F2D1206AB0F5803F07D11448406820F4CC
:101380000030A168084311494860D4E908010843C6
:101390000E49496821F4741108430C494860012042
:1013A0000B490866FFF712FC054607E03DE0FFF732
:1013B0000DFC401B022801D903200FE603480068FA
:1013C00000F000700028F2D02FE000000010024072
:1013D0000000424280044242007000400020144954
:1013E0000866FFF7F3FB054606E0FFF7EFFB401B3F
:1013F000022801D90320F1E50E48006800F00070D2
:101400000028F2D111E0E069012800D1E6E50948A1
:10141000466806F48031206A814204D106F47011D6
:10142000606A814201D00120D8E50020D6E50000A5
:10143000000042420010024070470000F8B5044628
:101440002068466820688568C5F3801048B905F0B3
:10145000010030B1C6F3801018B12046216C8847D6
:10146000F8BDC5F3400030B1C6F3C01018B1204636
:10147000616C8847F4E7C5F3401018B9C5F38010D4
:10148000002871D0C6F3401000286DD0C5F380103D
:10149000F0B194F8510003280ED0606D40F00400C4
:1014A000606500BF002000902068C0680090206840
:1014B0008068009000BF0BE000BF00200090206813
:1014C000C068009020688068009000BF00BFC7E738
:1014D000C5F3401088B1606D40F00100606500BF49
:1014E000002000902068806800902068006820F04C
:1014F00040002168086000BF00BF606D70B32068C5
:10150000406820F0E00021684860012084F8510024
:1015100006F0020010B906F0010000B32068406830
:1015200020F0030021684860E06C50B10F48E16C86
:101530004863E06CFEF7A4FF18B1606D40F0400016
:101540006065A06C50B10948A16C4863A06CFEF7BF
:1015500097FF18B1606D40F04000606502E02046E2
:10156000FFF76AFF7CE7FFE700BF79E72531000856
:1015700010B504460CB9012010BD606A38B9606826
:10158000B0F5827F00D105E00021E16102E0002199
:10159000216161610021A16294F8510028B9002005
:1015A00084F85000204600F043F8022084F85100EF
:1015B0002068006820F0400021680860A08800F4DE
:1015C0008270218901F404410843A18901F400617A
:1015D0000843217C01F002010843217D01F0010153
:1015E0000843218B01F400710843217F01F0380189
:1015F00008432021095D01F080010843218D01F499
:1016000000510843216808600421A06901EA1040E4
:10161000216848602068C06920F400602168C861C2
:1016200000206065012084F851000020A4E700003C
:1016300010B586B0044600200290039004900590F7
:101640001D492068884235D100BF1C48806940F49C
:1016500080501A4988610846806900F480500190E2
:1016600000BF00BF00BF0846806940F004008861E9
:101670000846806900F00400019000BF00BFA02070
:101680000290022003900320059002A90C48FFF766
:10169000FFF84020029000200390049002A908481F
:1016A000FFF7F6F8002211462320FFF70BFB23205B
:1016B000FFF7F8FA06B010BD0030014000100240FC
:1016C0000008014070B504462546681EB0F1807FD1
:1016D00001D301200FE0681E4FF0E02148610F2187
:1016E0004FF0FF3002F018F900204FF0E021886140
:1016F00007200861002070BD7047704710B5034691
:10170000002200BF93F83C00012801D1022010BD47
:10171000012083F83C0000BF22F0FF00CC6840EAC3
:10172000040222F440708C6840EA040222F48060D3
:101730004C6840EA040222F400600C6840EA0402AB
:1017400022F480500C6940EA040222F400504C69F3
:1017500040EA040222F48040CC6940EA040218689E
:10176000426400BF002083F83C0000BF00BFCEE70A
:1017700030B502460B4600BF92F83C00012801D16B
:10178000022030BD012082F83C0000BF022082F818
:101790003D00106844681068816824F0700418687F
:1017A000044310684460104D1068A8420BD01068C4
:1017B000B0F1804F07D00D4D1068A84203D00C4DFA
:1017C0001068A84205D121F08001586801431068D3
:1017D0008160012082F83D0000BF002082F83C00BB
:1017E00000BF00BFCDE70000002C01400004004016
:1017F0000008004010B504460CB9012010BD94F853
:101800003D0028B9002084F83C00204600F026F86E
:10181000022084F83D00211D206801F0CFFC01204A
:1018200084F8460000BF84F83E0001213F200155A6
:10183000402001554120015500BF00BF012084F820
:10184000420043200155442001554520015500BF69
:10185000012084F83D000020D0E7000038B50446A0
:101860002849206888420DD100BF2748806940F48C
:101870000060254988610846806900F40060009096
:1018800000BF3DE02068B0F1804F0DD100BF1E4881
:10189000C06940F001001C49C8610846C06900F0F9
:1018A0000100009000BF2BE01849206888420DD14C
:1018B00000BF1548C06940F002001349C8610846DE
:1018C000C06900F00200009000BF19E010492068D4
:1018D000884215D100BF0C48C06940F004000A4995
:1018E000C8610846C06900F00400009000BF00BF56
:1018F000002211461E20FFF7E5F91E20FFF7D2F95E
:1019000038BD0000002C01400010024000040040DF
:1019100000080040014691F83D00012801D0012057
:101920007047022081F83D000868C06840F001005F
:101930000B68D860124B086898420BD00868B0F169
:10194000804F07D00F4B0868984203D00E4B0868B1
:1019500098420CD10868806800F00702062A0CD073
:101960000868006840F001000B68186005E008682E
:10197000006840F001000B6818600020D0E700000C
:10198000002C014000040040000800402DE9F04117
:1019900004460D4600BF94F83C00012802D1022005
:1019A000BDE8F081012084F83C0000BF022084F8EB
:1019B0003D002068866826F0770626F47F4620687A
:1019C00086602868502833D00CDC202850D004DCF6
:1019D00000284BD0102851D149E0302849D0402868
:1019E0004CD139E060282DD0702807D0B0F5805F49
:1019F00003D0B0F5005F41D10DE040E0D5E902131E
:101A00006A68206801F025FC2068866846F0770641
:101A10002068866033E0D5E902136A68206801F027
:101A200018FC2068806840F480402168886026E0C7
:101A3000EA686968206801F0DDFC5021206801F047
:101A400013FC1CE0EA686968206801F0E6FC60218C
:101A5000206801F009FC12E0EA686968206801F07A
:101A6000C9FC4021206801F0FFFB08E000BF00BF77
:101A700000BF2968206801F0F7FB00E000BF00BF4D
:101A8000012084F83D0000BF002084F83C0000BF26
:101A900000BF85E7704710B5044620680069C0F3B1
:101AA0004000D8B12068C068C0F34000B0B16FF00A
:101AB000020021680861012020772068806900F019
:101AC000030018B12046FFF7E5FF05E0204600F0CF
:101AD00023F9204600F0D3F9002020772068006920
:101AE000C0F38000D8B12068C068C0F38000B0B1F6
:101AF0006FF0040021680861022020772068806967
:101B000000F4407018B12046FFF7C4FF05E02046FE
:101B100000F002F9204600F0B2F90020207720689A
:101B20000069C0F3C000D8B12068C068C0F3C0002D
:101B3000B0B16FF0080021680861042020772068A8
:101B4000C06900F0030018B12046FFF7A3FF05E0CD
:101B5000204600F0E1F8204600F091F900202077BF
:101B600020680069C0F30010D8B12068C068C0F3D5
:101B70000010B0B16FF010002168086108202077D4
:101B80002068C06900F4407018B12046FFF782FF5A
:101B900005E0204600F0C0F8204600F070F9002073
:101BA00020772068006900F0010058B12068C06803
:101BB00000F0010030B16FF001002168086120469B
:101BC00000F0C8F920680069C0F3C01058B120685F
:101BD000C068C0F3C01030B16FF0800021680861A8
:101BE0002046FFF789FD20680069C0F3801058B1D6
:101BF0002068C068C0F3801030B16FF040002168E9
:101C00000861204600F0E0F920680069C0F3401048
:101C100058B12068C068C0F3401030B16FF02000A8
:101C2000216808612046FFF768FD10BD10B586B039
:101C300004460020029003900490059030492068EB
:101C4000884218D100BF2F48806940F004002D4918
:101C500088610846806900F00400019000BF00BF61
:101C60004FF41060029002200390059002A92648CC
:101C7000FEF70EFE41E02068B0F1804F17D100BFA3
:101C80002048806940F004001E4988610846806948
:101C900000F00400019000BF00BF0F20029002205E
:101CA0000390059002A91848FEF7F2FD25E01749B8
:101CB0002068884221D100BF1248806940F00800A6
:101CC000104988610846806900F00800019000BF53
:101CD00000BF2020029002200390059002A90C482A
:101CE000FEF7D6FD00BF0B49486820F4406040F085
:101CF000E06040F40060486000BF06B010BD000026
:101D0000002C014000100240000801400004004087
:101D1000000C014000000140704770B504460D46BC
:101D2000164600BF94F83C00012801D1022070BD86
:101D3000012084F83C0000BF36B1042E1BD0082ED1
:101D400031D00C2E5ED145E02946206801F096FA8C
:101D50002068806940F008002168886120688069F7
:101D600020F004002168886120688069296908439F
:101D70002168886147E02946206801F0AFFA2068B1
:101D8000806940F40060216888612068806920F4DF
:101D900080602168886120688069296940EA0120A3
:101DA000216888612FE02946206801F0CBFA20687D
:101DB000C06940F008002168C8612068C06920F04F
:101DC00004002168C8612068C06929690843216846
:101DD000C86118E02946206801F0E8FA2068C06967
:101DE00040F400602168C8612068C06920F4806008
:101DF0002168C8612068C069296940EA012021681A
:101E0000C86100E000BF00BF00BF002084F83C00B4
:101E100000BF00BF8BE710B504460CB9012010BD10
:101E200094F83D0028B9002084F83C00204600F0DA
:101E300025F8022084F83D00211D206801F0BEF93C
:101E4000012084F8460000BF84F83E0001213F20B5
:101E50000155402001554120015500BF00BF012020
:101E600084F8420043200155442001554520015586
:101E700000BF012084F83D000020D0E77047704784
:101E800070B504460D4615B994F83E000BE0042DDC
:101E900002D13F20005D06E0082D02D14020005D08
:101EA00001E04120005D012801D0012070BD1DB975
:101EB000022084F83E000EE0042D03D102213F20D1
:101EC000015508E0082D03D102214020015502E010
:101ED00002214120015501222946206801F0A8F97C
:101EE00019492068884201D1012000E0002028B172
:101EF0002068406C40F40040216848641249206822
:101F000088420BD02068B0F1804F07D00F4920687D
:101F1000884203D00E49206888420CD1206880682E
:101F200000F00706062E0CD02068006840F0010083
:101F30002168086005E02068006840F00100216821
:101F400008600020B2E70000002C014000040040BF
:101F50000008004010B504461548844226D10120EF
:101F60001449087014480078401C1349087013483D
:101F7000007801281AD112480088401C10490880B6
:101F800008460088B0F5FA7F06DB01F0ABFE0022C0
:101F900001210C48FEF714FE09480088B0F5487F7F
:101FA00004DB0020064908800449087010BD0000C9
:101FB000D0010020970000209A0000209800002007
:101FC00026000020000C01407047704770B50446A1
:101FD000002520684069C0F3C01594F83D00212811
:101FE0000ED16DB12068406920F080002168486101
:101FF000606B10B1606BFEF718FA204601F0C2FA70
:1020000020684069C0F3801594F83E0022280ED164
:102010006DB12068406920F0400021684861A06BE4
:1020200010B1A06BFEF701FA204601F080FA002003
:1020300070BD70472DE9F84F044620680568206898
:10204000C668206847694FF00009CA4605F00F09C5
:10205000B9F1000F0AD105F0200038B106F02000D8
:1020600020B1204601F098FABDE8F88FB9F1000FD1
:1020700071D007F0010018B906F4907000286AD0FA
:1020800005F0010030B106F4807018B1206C40F00A
:102090000100206405F0040030B107F0010018B120
:1020A000206C40F00200206405F0020030B107F01F
:1020B000010018B1206C40F00400206405F0080015
:1020C00048B106F0200010B907F0010018B1206CEB
:1020D00040F008002064206C68B305F0200028B1AF
:1020E00006F0200010B1204601F056FA2068406941
:1020F000C0F3801A206C00F0080010B9BAF1000F8C
:1021000022D0204601F013FA2068406900F0400018
:10211000B0B12068406920F0400021684861A06BA0
:1021200050B15648A16B4863A06BFEF7A9F910B1F6
:10213000A06B416B88470CE02046FFF77AFF08E070
:102140002046FFF776FF04E02046FFF772FF0020ED
:10215000206489E7FFE7206B012878D105F01000A3
:10216000002874D006F01000002870D000BF0020B6
:10217000009020680068009020684068009000BFD0
:1021800000BF2068406900F04000C0B3A06B006849
:1021900040681FFA80F8B8F1000F2FD0A08D40459D
:1021A0002CDDA4F82E80A06B806920281FD0206829
:1021B000C06820F480702168C8602068406920F001
:1021C0000100216848612068406920F040002168D2
:1021D0004861202084F83E00002020632068C06809
:1021E00020F010002168C860A06BFEF71EF9A08DDA
:1021F000E28D801A81B22046FFF7E7FE34E7FFE761
:10220000A08DE18D401A1FFA80F8E08DE8B1B8F199
:10221000000F1AD02068C06820F490702168C86050
:102220002068406920F0010021684861202084F87E
:102230003E00002020632068C06820F01000216864
:10224000C86041462046FFF7C0FE0DE7FFE705F0F6
:10225000800030B106F0800018B1204601F0D8FAB5
:1022600002E705F0400030B106F0400018B120460A
:1022700001F078F9F8E600BFF6E600004334000804
:1022800010B504460CB9012010BDA06900B100E0F2
:1022900000BF94F83D0028B9002084F83C00204697
:1022A00000F028F8242084F83D002068C06820F45D
:1022B00000502168C860204601F0E0F920680069FC
:1022C00020F49040216808612068406920F02A00CD
:1022D000216848612068C06840F400502168C860E7
:1022E00000202064202084F83D0084F83E00002077
:1022F000CAE7000010B586B00446002002900390A3
:10230000049005904249206888424AD100BF414864
:10231000806940F480403F4988610846806900F444
:102320008040019000BF00BF00BF0846806940F0B8
:10233000040088610846806900F00400019000BF35
:1023400000BF48150290022003900320059002A9C7
:102350003148FEF79DFA4FF4806002900020039010
:102360000120049002A92C48FEF792FA2B482C4930
:102370000860002048600021294881608021C160F8
:10238000002101614161202181610021C161FEF7CD
:102390009DF908B1FEF746F800BF2148A0634462EA
:1023A00033E02049206888422FD100BF1948C06916
:1023B00040F480201749C8610846C06900F48020B5
:1023C000019000BF00BF00BF0846806940F00800D0
:1023D00088610846806900F00800019000BF00BFD6
:1023E00008150290022003900320059002A90E48D0
:1023F000FEF74EFA4FF40060029000200390012097
:10240000049002A90848FEF743FA06B010BD000088
:10241000003801400010024000080140580002400E
:10242000B402002000480040000C014070B5044692
:102430000D46164694F83E00202816D105B10EB977
:10244000012070BD00BF94F83C00012801D102209A
:10245000F7E7012084F83C0000BF002020633246EB
:102460002946204601F088F9EBE70220E9E77047AA
:102470007047704700BFFEE72DE9F041044613485E
:1024800002681348016804F10C0000F029F80646C0
:102490001048026810480168204600F021F80746FD
:1024A0003146FDF753FE05460B48006809490860B0
:1024B000074800680549086008492846FDF710FFED
:1024C00000D8064D2846BDE8F08100007C000020C1
:1024D000780000206C000020680000200000C84246
:1024E0002DE9F04704460D46164629466068FDF77B
:1024F00085FE814631462846FDF77AFE82462168F0
:10250000FDF77CFE80464946FDF720FE07462E4635
:1025100000213846FDF7DAFE01D287F00047384641
:10252000BDE8F08708B500BF0A48406940F00100E7
:10253000084948610846406900F00100009000BF6A
:1025400000BF002211460F20FEF7BCFB0F20FEF754
:10255000A9FB08BD0010024000B585B00020019025
:1025600002900390049000BF6548806940F010001D
:10257000634988610846806900F01000009000BF40
:1025800000BF00BF0846806940F02000886108460F
:10259000806900F02000009000BF00BF00BF084627
:1025A000806940F0040088610846806900F00400FA
:1025B000009000BF00BF00BF0846806940F00800DF
:1025C00088610846806900F00800009000BF00BFE5
:1025D000012211464B48FEF7F3FA012211034A4843
:1025E000FEF7EEFA00224FF446714648FEF7E8FA8D
:1025F0004FF400500190002002900120039001A9A7
:102600004248FEF745F940F2012001900120029076
:1026100003900220049001A93A48FEF739F94CF2E0
:10262000060001903A4802900220039001A9354823
:10263000FEF72EF94FF48050019000200290039095
:1026400001A93048FEF724F94FF480500190012091
:102650000290002003900220049001A92A48FEF76E
:1026600017F9182001900120029000200390022009
:10267000049001A92348FEF70BF9402001900020A7
:1026800002900120039001A91E48FEF701F9802065
:102690000190204802900020039001A91948FEF7FC
:1026A000F7F84FF48070019001200290039003200E
:1026B000049001A91348FEF7EBF80022022107203D
:1026C000FEF700FB0720FEF7EDFA002202210820AA
:1026D000FEF7F8FA0820FEF7E5FA00221146172067
:1026E000FEF7F0FA1720FEF7DDFA0022022128207B
:1026F000FEF7E8FA2820FEF7D5FA05B000BD000085
:1027000000100240000C0140000801400010014090
:10271000000011100000211010B500220221252018
:10272000FEF7D0FA2520FEF7BDFA10BD10B50E4811
:102730000E4908604FF48270486000210B488160A8
:10274000C160016141614FF4007181611021C1617B
:1027500000210162416281620A21C162FEF708FF25
:1027600008B1FDF75FFE10BD00300140A000002061
:1027700000B595B0002011901290139014900F9016
:1027800010901C2108A8FDF7D6FC20216846FDF713
:10279000D2FC2F482F4908604720486000212D486F
:1027A000816040F2E731C160002101614161802117
:1027B0008161FFF71FF808B1FDF734FE4FF4805038
:1027C000119011A92348FFF7E1F808B1FDF72AFE9F
:1027D0002048FFF720FB08B1FDF724FE00200F90F2
:1027E00010900FA91B48FEF7C3FF08B1FDF71AFEB2
:1027F00060200890002009900A900B900C900D909A
:102800000E90002208A91348FFF787FA08B1FDF7D8
:1028100009FE0C2208A90F48FFF77FFA08B1FDF75F
:1028200001FE0020009001900290039004904FF46C
:10283000005005900020079069460648FEF75EFFAD
:1028400008B1FDF7EFFD0348FFF7F0F915B000BD43
:10285000002C0140F800002000B58DB00020099048
:102860000A900B900C90079008901C216846FDF789
:1028700062FC4FF080402C490860472048600021EE
:102880002948816040F2E731C16000210161802167
:102890008161FEF7AFFF08B1FDF7C4FD4FF4805032
:1028A000099009A92048FFF771F808B1FDF7BAFDB2
:1028B0001D48FFF7B0FA08B1FDF7B4FD00200790FE
:1028C000089007A91848FEF753FF08B1FDF7AAFDC5
:1028D0006020009000200190029004900022694640
:1028E0001148FFF71AFA08B1FDF79CFD042269466A
:1028F0000D48FFF712FA08B1FDF794FD082269466A
:102900000948FFF70AFA08B1FDF78CFD0C22694669
:102910000548FFF702FA08B1FDF784FD0248FFF70A
:1029200085F90DB000BD00004001002000B58DB05C
:10293000002009900A900B900C90079008901C21A1
:102940006846FDF7F8FB21482149086040F2F7107E
:10295000486000211E48816040F62831C160002196
:1029600001618161FEF746FF08B1FDF75BFD4FF4A1
:102970008050099009A91648FFF708F808B1FDF73B
:1029800051FD1348FFF747FA08B1FDF74BFD002052
:102990000790089007A90E48FEF7EAFE08B1FDF778
:1029A00041FD60200090D62001900020029004900C
:1029B000042269460648FFF7B0F908B1FDF732FD79
:1029C0000348FFF733F90DB000BD000000040040DC
:1029D0008801002000B587B0002003900490059086
:1029E00006900190029014481449086041F61F4077
:1029F00048600021114881606321C16000210161AC
:102A00008161FEF7F7FE08B1FDF70CFD4FF4805031
:102A1000039003A90948FEF7B9FF08B1FDF702FDCD
:102A200000200190029001A90448FEF7A1FE08B120
:102A3000FDF7F8FC07B000BD00080040D001002001
:102A400010B51148114908604FF4E1304860002189
:102A50000E488160C16001610C21416100218161EA
:102A6000C161FFF70DFC08B1FDF7DCFC0748006809
:102A7000C06840F0100005490968C8601422044984
:102A80000248FFF7D3FC10BD003801402C020020A3
:102A90001802002010B50B480B4908604FF4E130D4
:102AA0004860002108488160C16001610C214161DA
:102AB00000218161C161FFF7E3FB08B1FDF7B2FCC2
:102AC00010BD0000004800407002002000BFFEE77B
:102AD00000BFFEE770B500240EE00021204600F0A4
:102AE000D6F8002504E0002000F062F9681CC5B2A9
:102AF000802DF8DB601CC4B2082CEEDB70BD00003A
:102B000010B5012211020448FEF75AF801225102C1
:102B10000148FEF755F810BD000C014070B50546A0
:102B2000002415E08020204100EA05024FF40071E6
:102B30000E48FEF745F8012211020C48FEF740F856
:102B400000224FF480710948FEF73AF8601CC4B2C5
:102B5000082CE7DB012211020448FEF731F80022BD
:102B60004FF480710148FEF72BF870BD000C014056
:102B700010B5012251020A48FEF722F80122110283
:102B80000748FEF71DF800224FF400710448FEF7D5
:102B900017F800224FF480710148FEF711F810BDBC
:102BA000000C014010B500224FF400710648FEF7FA
:102BB00007F8012211020448FEF702F8012251022F
:102BC0000148FDF7FDFF10BD000C014070B5002469
:102BD00006E0002500E06D1CB5F57A7FFBD3641C90
:102BE000B4F57A7FF5D3FFF78BFFAE2000F0D0F875
:102BF000D52000F0CDF8802000F0CAF8A82000F021
:102C0000C7F83F2000F0C4F8D32000F0C1F800203E
:102C100000F0BEF8402000F0BBF8A12000F0B8F8AA
:102C2000C82000F0B5F8DA2000F0B2F8122000F069
:102C3000AFF8812000F0ACF8CF2000F0A9F8D9203F
:102C400000F0A6F8F12000F0A3F8DB2000F0A0F8D7
:102C5000302000F09DF8A42000F09AF8A62000F0A3
:102C600097F88D2000F094F8142000F091F8AF2030
:102C700000F08EF8FFF72EFF70BD10B50246012060
:102C800000E050430B1EA1F10101FAD110BD70B557
:102C900005460C4645F0B00000F07AF8102141EAF4
:102CA000141000F075F804F00F0000F071F870BD1A
:102CB0002DE9F04105460E461746721ED206110E4A
:102CC0006A1E5206100EFFF7E2FF002409E0A7F18A
:102CD0002001134A02EB0111085D00F069F8601C45
:102CE000C4B2082CF3DB721ED206110E6A1E012339
:102CF00003EB4202D0B2FFF7CAFF00240BE0A7F1BA
:102D00002001074A02EB011204F10801505C00F0B7
:102D10004FF8601CC4B2082CF1DBBDE8F081000064
:102D2000443D00082DE9F04780460E4617461D46F3
:102D3000002415E0281B411E0A20FFF79EFFB7FB69
:102D4000F0F00A21B0FBF1F201FB120000F13009B2
:102D50003019C1B24A464046FFF7AAFF601CC4B210
:102D6000AC42E7DBBDE8F0872DE9F04107460E46AF
:102D70001546002407E02A5D3019C1B23846FFF736
:102D800097FF601CC4B2285D0028F4D1BDE8F08133
:102D900010B50446FFF7ECFE7820FFF7BFFE0020D9
:102DA000FFF7BCFE2046FFF7B9FEFFF7FBFE10BDA4
:102DB00010B50446FFF7DCFE7820FFF7AFFE402099
:102DC000FFF7ACFE2046FFF7A9FEFFF7EBFE10BDB4
:102DD0002DE9F04183480078002878D0824949786D
:102DE000303964225143804A9278303A02EB8202B1
:102DF00001EB42027C49C97830395018FDF730FAAE
:102E00007A49086078498979303964225143764A91
:102E1000D279303A02EB820201EB42027249097A1E
:102E200030395018FDF71CFA714908606E48007877
:102E30002B2805D06D48006880F000406B49086081
:102E4000694840792B2805D06948006880F0004027
:102E500067490860674800780B280CD10120664953
:102E6000087000F04BFF4FF4C8710846FDF78CFA6C
:102E7000002000F02FFF614800F0ECF86049086086
:102E80006048FFF7F9FA05465F4801682846FDF7F4
:102E9000B2F904462046FDF7ECF905462046FDF759
:102EA000E8F906462046FDF7E4F907462046FDF717
:102EB000E0F980462B463246394600F0F9FE50488C
:102EC0000068FDF7D6F9054600F004FF00BF4F4843
:102ED0000078012809D1474800780A2813D14C48C6
:102EE000007880B100F00AFF0DE048480078022821
:102EF00009D046480078032805D0444800780428C3
:102F000001D000F0FBFE4348007801280BD0424876
:102F10000078012807D041480078012803D04048B4
:102F2000007800285BD034480078002857D1384812
:102F30000078002853D13B480088401C394908805C
:102F40000846008814280BD10020088031490870F9
:102F500031490870324908703049087026490870B4
:102F60002C48007801281BD123480078C0B92A4892
:102F70000078012833D100202A49088025490870AB
:102F80002549087001201C49087000F0B7FE4FF475
:102F9000C8710846FDF7F8F9002000F09BFE1EE01E
:102FA0001D48007801281AD113480078B8B919488B
:102FB0000078012813D100201A49088015490870AB
:102FC0001549087001200C49087000F097FE4FF475
:102FD000C8710846FDF7D8F9002000F07BFEBDE877
:102FE000F0810000910000201802002068000020FD
:102FF000780000209B00002098000020380000206E
:1030000000000020500000208C00002090000020D4
:1030100092000020930000209400002096000020E1
:10302000950000209E0000207047000008B5084968
:103030000968C9084FF47A72B1FBF2F1414300917B
:1030400000BF00BF00994A1E00920029F9D108BDB7
:10305000340000202DE9F04104461248026812486D
:10306000016804F10C0000F029F806460F480268D8
:103070000F480168204600F021F807463146FDF769
:1030800065F805460B492846FDF72AF901D8094D90
:1030900005E009492846FDF719F900D8064D2846EC
:1030A000BDE8F0817C000020780000206C0000204A
:1030B000680000200000F0410000F0C12DE9F04759
:1030C00004460D46164631462846FDF791F88246DD
:1030D000A168FDF793F8804629462068FDF78EF831
:1030E00081464146FDF732F8074608493846FDF764
:1030F000F7F801D8054F05E005493846FDF7E6F831
:1031000000D8034F3846BDE8F08700000000F041CA
:103110000000F0C110B50248FEF790F910BD0000A4
:10312000A000002070B505466C6A0020E087E086AC
:103130002046FEF781F970BD704710B5FDF74CFDD4
:1031400010BD00B58FB0282105A8FCF7F4FF1421AD
:103150006846FCF7F0FF012005900004069000206F
:1031600007900120099002200C90C1030D914FF4AB
:10317000E0110E9105A8FDF72DFF08B1FDF752F9FA
:103180000F20009002200190002002904FF48060F8
:1031900003900020049002216846FDF7E5FD08B188
:1031A000FDF740F90FB000BD7047000010B50248B0
:1031B000FEF771FC10BD0000D001002010B50268C0
:1031C000184B984208D0B0F1804F05D0164B98426A
:1031D00002D0164B984203D122F070024B681A437A
:1031E000104B984208D0B0F1804F05D00E4B98425A
:1031F00002D00E4B984203D122F44072CB681A439E
:1032000022F080034C6943EA040202608B68C362C7
:103210000B688362034B984201D10B69036301235E
:10322000436110BD002C0140000400400008004034
:1032300030B501F01F05012404FA05F3046A9C432C
:103240000462046A01F01F0502FA05F52C430462CA
:1032500030BD30B50C46816821F47F4142EA032538
:1032600025432943816030BD0A46816821F0700101
:1032700042F00703194381607047000030B5056ACA
:1032800025F001050562026A4368846924F0700430
:1032900024F003040D682C4322F002028D682A43B7
:1032A0000D4DA84206D100BF22F00802CD682A4386
:1032B00022F00402084DA84207D123F4807323F4BE
:1032C00000734D692B438D692B43436084614D68C6
:1032D0004563026230BD0000002C014030B5056A34
:1032E00025F010050562026A4368846924F4E0440D
:1032F00024F440740D6844EA052422F020028D680D
:1033000042EA05120E4DA84207D100BF22F080020A
:10331000CD6842EA051222F04002094DA84209D1C7
:1033200023F4806323F400634D6943EA85038D69C8
:1033300043EA8503436084614D688563026230BD62
:10334000002C014030B5056A25F480750562026ADB
:103350004368C46924F0700424F003040D682C430E
:1033600022F400728D6842EA05220F4DA84207D16F
:1033700000BF22F40062CD6842EA052222F4806296
:10338000094DA84209D123F4805323F400534D6919
:1033900043EA05138D6943EA05134360C4614D6830
:1033A000C563026230BD0000002C014030B5056AE3
:1033B00025F480550562036A4468C26922F4E0423C
:1033C00022F440720D6842EA052223F400538D680E
:1033D00043EA0533064DA84204D124F480444D69E4
:1033E00044EA85144460C2614D680564036230BDDF
:1033F000002C014030B50B461446026A056A25F0E0
:1034000001050562816921F0F00141EA041122F011
:103410000A021A438161026230BD30B50B46144680
:10342000056A25F0100505628169026A21F4704180
:1034300041EA043122F0A00242EA031281610262F1
:1034400030BD70B505466C6A0020E085E0842046FA
:10345000FEF7EFFD70BD70B506460025746A206862
:103460004069C0F3C01594F83D00212805D125B16D
:103470000020E084204600F085F820684069C0F311
:10348000801594F83E00222805D125B10020E08562
:10349000204600F04CF8206C40F0100020642046DC
:1034A000FEF7C7FD70BD70B505466C6A28680068F8
:1034B00000F02000F8B90020E0852068C06820F402
:1034C00080702168C8602068406920F00100216890
:1034D00048612068406920F0400021684861202050
:1034E00084F83E00206B012805D12068C06820F0D8
:1034F00010002168C860206B012804D1A18D2046EE
:10350000FEF763FD02E02046FEF7B1FF70BD70B527
:1035100005466C6A206B012805D1A08D4108204624
:10352000FEF753FD02E02046FEF7A2FF70BD0168E2
:10353000C96821F490710268D1600168496921F07D
:10354000010102685161016B012905D10168C96857
:1035500021F010010268D160202180F83E10002186
:103560000163704710B504462068C06820F0400031
:103570002168C860202084F83D002046FEF779FFCE
:10358000002010BD0168C96821F0C0010268D16047
:10359000202180F83D107047F8B5044694F83E00AD
:1035A000222869D1A068B0F5805F0CD1206950B99C
:1035B0000025A66A20684068C0F308003080A06A31
:1035C000801CA06215E0A56A0026A068B0F5805FA7
:1035D00003D0A06828B9206918B92068406828700D
:1035E00004E02068406800F07F002870A06A401C5A
:1035F000A062E08D401E80B2E085A8BB2068C06854
:1036000020F020002168C8602068C06820F4807025
:103610002168C8602068406920F001002168486185
:10362000202084F83E00206B01281ED1002020635A
:103630002068C06820F010002168C8602068006819
:1036400000F0100010280AD100BF00200090206870
:103650000068009020684068009000BF00BFA18D06
:103660002046FEF7B2FC03E004E02046FEF7FFFE32
:103670000020F8BD0020FCE70220FAE770B5044600
:103680002168096921F44051E268114322681161FF
:103690002269A1681143626941EA02052168C9688B
:1036A00041F20C62914329432268D1602168496943
:1036B00021F44071A2691143226851612D4A2168A9
:1036C000914202D1FDF72CFC01E0FDF719FC00EB63
:1036D000C00101EB001162689200B1FBF2F100EB56
:1036E000C00202EB001263689B00B2FBF3F264239A
:1036F000B2FBF3F202EBC20303EB0212A1EB820175
:10370000322202EB01116422B1FBF2F101F0F0016F
:1037100000EBC00202EB001263689B00B2FBF3F205
:103720006423B2FBF3F201EB021200EBC00101EBE8
:10373000001163689B00B1FBF3F100EBC00303EBE6
:1037400000136668B600B3FBF6F36426B3FBF6F32A
:1037500003EBC30606EB0313A1EB8301322303EB58
:1037600001116423B1FBF3F101F00F011144226850
:10377000916070BD0038014077B581B004461546B0
:103780000298A062A58500202064222084F83E00D3
:103790001C48A16B88621C48A16BC8621B48A16BC6
:1037A00008630020A16B486302AE32682368191DCC
:1037B0002B46A06BFCF7BEFF00BF002000902068E6
:1037C0000068009020684068009000BF00BF00BF04
:1037D000002084F83C0000BF2068C06840F480707E
:1037E0002168C8602068406940F001002168486194
:1037F0002068406940F0400021684861002004B022
:1038000070BD0000A73400080F35000857340008C9
:10381000014691F83D00212828D18868B0F5805FE5
:103820000BD1086948B90A6A1088C0F308000B6810
:103830005860086A801C086205E00B6A581C086220
:1038400018780B685860C88C401E80B2C88458B97C
:103850000868C06820F080000B68D8600868C068FD
:1038600040F040000B68D860002070470220FCE761
:1038700010B50348FEF7DEFB014800F003F810BD69
:103880002C02002038B504461949206888422ED100
:1038900020680068C0F3001048B300BF002000900B
:1038A00020680068009020684068009000BF00BF5A
:1038B0002046FEF78BFB0F4800684068C0F11400FB
:1038C0000D2808D101200C49087014220B490C481E
:1038D000FEF7ACFD0BE000200749087014210748F3
:1038E000FCF729FC142205492046FEF79FFD38BD50
:1038F00000380140B40200202500002018020020FA
:103900002C02002000BFFEE702480068C0F302203E
:10391000704700000CED00E010B5002804DB0A073A
:10392000130E054A135406E00A07140E034A00F06A
:103930000F031B1FD45410BD00E400E018ED00E09D
:1039400002E008C8121F08C1002AFAD17047704768
:10395000002001E001C1121F002AFBD170470000C6
:1039600010B50C48007850B14FF400510A48FDF7EB
:103970001FF920B9002007490870012010BD4FF43D
:1039800000510548FDF714F9012801D101490870DB
:103990000020F3E79C0000200010014010B50B4808
:1039A000007848B140210A48FDF702F920B900200B
:1039B00006490870012010BD40210548FDF7F8F8C0
:1039C000012801D1014908700020F4E79D00002082
:1039D000000C014010B5FFF7C3FF40B3174918486A
:1039E0000068FCF7B3FB16490860164914480068E4
:1039F000FCF776FC0ED214481149086008460068AE
:103A0000FCF750FC04460323224605210120FFF762
:103A100089F90AE00A480068FCF744FC04460323DD
:103A2000224605210120FFF77DF900F0F3F8FFF7AA
:103A3000B5FF08B100F0B0F810BD00000000C842AA
:103A40008C00002000803B440000AF43FDF7D0F81D
:103A5000FFF777FBFEF780FDFEF764FDFEF7FCFE47
:103A6000FEF764FFFEF7ECFFFFF714F8FEF7B2FF76
:103A7000FEF77EFEFEF75AFEFEF74EFEFFF7A6F8B3
:103A8000FFF728F834A201210846FFF76DF934A2A8
:103A900001210220FFF768F931A201210220FFF77E
:103AA00063F931A201210320FFF75EF930A207215B
:103AB0000220FFF759F930480068FCF7F3FB044691
:103AC0000323224605210120FFF72CF92BA2022116
:103AD0000420FFF749F900212948FEF7D1F90C210C
:103AE0002748FEF7CDF904212648FEF7C9F9082139
:103AF0002448FEF7C5F90C212248FEF7C1F94FF41E
:103B00007A70FCF765FE00211F48FEF7B9F9042121
:103B10001D48FEF7B5F908211B48FEF7B1F90C2145
:103B20001948FEF7ADF91948FDF7F4FE002000F042
:103B3000D1F810E01648007820B1FFF749F90020CD
:103B400013490870134800780A2804DB0020114943
:103B50000870FFF73FFFEDE750574D3A00000000B7
:103B600053706565643A00004D6F64653A0000006B
:103B7000302E336D2F7300008C0000206F6B00001F
:103B8000F80000208801002040010020D001002022
:103B9000970000209A00002010B51948007830B135
:103BA00001280FD0022816D0032825D11BE00120C0
:103BB0001349087000F096F812A207210320FFF7BE
:103BC000D3F81AE002200E4908700FA20721032043
:103BD000FFF7CAF811E00320094908700BA207217A
:103BE000FFF7C2F809E000200549087008A2072184
:103BF0000320FFF7B9F800E000BF00BF10BD0000D0
:103C0000900000203100000032000000330000006E
:103C10003400000010B51B480068FCF72AFB40F296
:103C20002622811A904218D006DCB0F5AF7F08D06A
:103C3000B0F5E17F23D10AE0642914D0C8291ED150
:103C400017E011A207210220FFF78EF818E010A25A
:103C500007210220FFF788F812E00FA207210220B7
:103C6000FFF782F80CE00EA207210220FFF77CF894
:103C700006E00DA207210220FFF776F800E000BF62
:103C800000BF10BD8C000020302E336D2F7300005C
:103C9000302E356D2F730000302E376D2F730000DE
:103CA000312E306D2F730000312E326D2F730000D6
:103CB00030B54FF080446063A163E2632364002465
:103CC000024D2C60024D2C6030BD0000342C0140B0
:103CD0004004004000F1D601014A11607047000025
:103CE0003804004000200349087001200249087090
:103CF0007047000092000020910000200120084938
:103D000008700020074908704FF0804148638863BD
:103D1000C86308640449086003490C3108607047AF
:103D20009200002091000020342C0140000000008F
:103D3000000000000102030406070809000000005B
:103D40000102030400000000000000000000000069
:103D500000000000000000F8000000000000003338
:103D60003000000000100C06100C060000000000DF
:103D70000000000040C07840C0784000043F0404C8
:103D80003F040400007088FC08300000001820FF89
:103D9000211E0000F008F000E018000000211C03C4
:103DA0001E211E0000F00888700000001E21232440
:103DB0001927211010160E0000000000000000005E
:103DC00000000000000000E01804020000000007EE
:103DD0001820400000020418E000000000402018F5
:103DE00007000000404080F0804040000202010FC8
:103DF00001020200000000F0000000000101011FAC
:103E000001010100000000000000000080B070000F
:103E1000000000000000000000000000000101019F
:103E2000010101010000000000000000003030002E
:103E30000000000000000000806018040060180608
:103E40000100000000E010080810E000000F102042
:103E500020100F00001010F8000000000020203F8C
:103E60002020000000700808088870000030282416
:103E700022213000003008888848300000182020B7
:103E800020110E000000C02010F8000000070424DC
:103E9000243F240000F80888880808000019212021
:103EA00020110E0000E0108888180000000F11207B
:103EB00020110E0000380808C83808000000003F34
:103EC000000000000070880808887000001C222193
:103ED00021221C0000E010080810E0000000312240
:103EE00022110F00000000C0C000000000000030E0
:103EF0003000000000000080000000000000806032
:103F000000000000000080402010080000010204B2
:103F10000810200040404040404040000404040499
:103F20000404040000081020408000000020100855
:103F300004020100007048080808F000000000308A
:103F400036010000C030C828E810E0000718272418
:103F500023140B000000C038E0000000203C2302C6
:103F60000227382008F8888888700000203F202029
:103F700020110E00C030080808083800071820205B
:103F80002010080008F808080810E000203F202052
:103F900020100F0008F88888E8081000203F202033
:103FA0002320180008F88888E8081000203F200027
:103FB00003000000C030080808380000071820205F
:103FC000221E020008F808000008F808203F21011E
:103FD00001213F20000808F8080800000020203FC9
:103FE0002020000000000808F8080800C080808039
:103FF0007F00000008F888C028180800203F200132
:104000002638200008F8080000000000203F20208B
:104010002020300008F8F800F8F80800203F003FA2
:10402000003F200008F830C00008F808203F2000BA
:1040300007183F00E01008080810E0000F102020CB
:1040400020100F0008F808080808F000203F2101A0
:1040500001010000E01008080810E0000F182424F7
:1040600038504F0008F8888888887000203F20006A
:10407000030C302000708808080838000038202120
:1040800021221C00180808F8080818000000203F2A
:104090002000000008F808000008F808001F202091
:1040A00020201F000878880000C838080000073862
:1040B0000E010000F80800F80008F800033C0700B3
:1040C000073C0300081868808068180820302C031B
:1040D000032C30200838C800C83808000000203FF2
:1040E0002000000010080808C838080020382621E1
:1040F00020201800000000FE020202000000007FE5
:1041000040404000000C30C00000000000000001F2
:104110000638C00000020202FE00000000404040DD
:104120007F00000000000402020204000000000002
:10413000000000000000000000000000808080807F
:104140008080808000020204000000000000000067
:104150000000000000008080808000000019242200
:1041600022223F2008F8008080000000003F11203C
:1041700020110E000000008080800000000E112041
:1041800020201100000000808088F800000E11201F
:1041900020103F200000808080800000001F22222D
:1041A00022221300008080F0888888180020203F99
:1041B000202000000000808080808000006B9494AC
:1041C0009493600008F8008080800000203F210068
:1041D00000203F2000809898000000000020203F31
:1041E00020200000000000809898000000C080801F
:1041F000807F000008F8000080808000203F2402BB
:104200002D302000000808F8000000000020203FAA
:10421000202000008080808080808000203F20005F
:104220003F20003F8080008080800000203F2100F0
:1042300000203F200000808080800000001F2020A0
:1042400020201F00808000808000000080FFA120CF
:1042500020110E000000008080808000000E1120E0
:1042600020A0FF80808080008080800020203F216F
:104270002000010000008080808080000033242422
:1042800024241900008080E0808000000000001FCE
:10429000202000008080000000808000001F20207F
:1042A00020103F20808080000080808000010E3040
:1042B0000806010080800080008080800F300C03A1
:1042C0000C300F0000808000808080000020312EA4
:1042D0000E312000808080000080808080818E7080
:1042E0001806010000808080808080000021302C32
:1042F0002221300000000000807C0202000000004B
:10430000003F404000000000FF00000000000000EF
:10431000FF0000000002027C800000000040403FDF
:104320000000000000060101020204040000000079
:10433000000000005443000800000020A00000001E
:1043400040390008F4430008A0000020580600008F
:104350005039000800000000003132330000000036
:10436000000000000000000000000000000000004D
:10437000000000000000000000000000000000003D
:1043800010000000010000000024F4000000C03F05
:1043900000000000CDCCCC3E0000003F000000003B
:1043A000CDCCCC3D00002041000040410000000089
:1043B0000000E0400000E0400000000000000000BD
:1043C00000000000000000000000000000000000ED
:1043D00000000000000000000000000000000000DD
:1043E0000000AF43000000000000000000000000DB
:0443F00001010000C7
:04000005080000ED02
:00000001FF
