:020000040800F2
:100000006006002005010008210D0008190D0008F8
:100010001D0D0008C10A0008CF21000800000000E3
:10002000000000000000000000000000A91100080E
:10003000C50A000800000000490E0008A9120008C7
:100040001F0100081F0100081F0100081F01000810
:100050001F0100081F0100081F0100081F01000800
:100060001F0100081F010008750B00081F01000890
:100070001F0100081F0100081F0100081F010008E0
:100080001F0100081F0100081F0100081F010008D0
:100090001F0100081F0100081F0100081F010008C0
:1000A0001F0100081F0100081F0100081F010008B0
:1000B000611500081F010008D91500081F0100087C
:1000C0001F0100081F0100081F0100081F01000890
:1000D0001F0100081F010008511F00081F01000830
:1000E000C90A00081F0100081F010008DFF810D02E
:1000F00000F086FB00480047B12C0008AFF30080F9
:10010000600600200648804706480047FEE7FEE7F5
:10011000FEE7FEE7FEE7FEE7FEE7FEE7FEE7FEE7B7
:10012000C1120008ED00000840EA01039B0703D05C
:1001300009E008C9121F08C0042AFAD203E011F826
:10014000013B00F8013B521EF9D27047D2B201E0E8
:1001500000F8012B491EFBD270470022F6E710B5CC
:1001600013460A4604461946FFF7F0FF204610BD25
:10017000F0B480EA0102D40F4200B2EB410F02D288
:100180000246084611464A0042D0C30DDDB2C1F313
:10019000C752AD1A202D35DAC1F3160141F4000221
:1001A00004B15242C5F1200602FA06F12A41104478
:1001B000B3EBD05F23D0C4B1012DA0EBC35009DC59
:1001C000F0BC4FF0004202EAC352DBB200F500007F
:1001D00000F030B9400000F1807000EBC350A0F196
:1001E000807040EAD170490009E0490841EAC071D5
:1001F000A0EBC35000F50000400800EBC350F0BC7A
:1002000000F00FB96142012202EB4101001BF6E749
:10021000F0BC704781F00041AAE780F00040A7E7FA
:1002200080EA010210B502F00043400022D04A00EB
:100230001FD0010E01EB1261C0F35600C2F356024B
:1002400040F4000042F40002A0FB022000047F39C9
:10025000140400D0401C50EA124001D44000491E52
:10026000C2B20C0604EBD010401C4008802A02D019
:1002700003E0002010BD20F00100002900DA00207A
:10028000184310BD30B480EA010202F0004530F09E
:10029000004221F0004013D090B1C30DD40DC2F341
:1002A0001601C0F31600E41A41F4000140F4000204
:1002B0007D34914201D3641C00E04900002C02DA35
:1002C00030BC002070474FF400000023914201D35E
:1002D000891A034340084FEA4101F7D151B19142D5
:1002E00002D14FF0004105E002D24FF0010101E0E0
:1002F0006FF0010103EBC450284430BC00F091B80A
:10030000C10F80EAE0700844CA079623002100F07C
:1003100091B800F0004220F00040C10DC0F316007B
:1003200040F400007F2901DA00207047962903DCA1
:10033000C1F19601C84001E096398840002AF4D006
:100340004042704700F0004230F000400AD0C10D3A
:1003500001F56071C0F3160042EA0151C20840077E
:10036000114370470020014670470000002801DB60
:10037000C0F10040002901DBC1F10041814270471A
:10038000002801DBC0F10040002901DBC1F1004180
:100390008842704730B50B460146002020220124D8
:1003A00009E021FA02F59D4205D303FA02F5491B43
:1003B00004FA02F52844151EA2F10102F1DC30BD59
:1003C0002DE9F05F0546002092469B46884606468A
:1003D000814640241BE0284641464746224600F01D
:1003E00030FA53465A46C01A914110D31146184666
:1003F000224600F017FA2D1A67EB01084F462246F5
:100400000120002100F00EFA17EB00094E41201EDA
:10041000A4F10104DFDC484631462A464346BDE8E4
:10042000F09F0029A8BF7047401C490008BF20F07A
:100430000100704710B4B0FA80FC00FA0CF050EAEA
:10044000010404BF10BC704749B1CCF1200421FA6B
:1004500004F411FA0CF118BF012121430843A3EB66
:100460000C01CB1D4FEA00614FEA102042BF002073
:1004700010BC704700EBC35010440029A4BF10BC4F
:100480007047401C490008BF20F0010010BC7047B5
:100490002DE9FE4F804681EA0300C00F0C46009014
:1004A00021F0004123F00045B8EB0200A94105D23C
:1004B0004046214690461C460B46024623F000402B
:1004C000104347D0270DC7F30A00C3F30A51029027
:1004D000401A019040286BDAC3F3130040F4801BEC
:1004E0000098924620B10023D2EB030A63EB0B0B7A
:1004F00001985946C0F14002504600F093F9064673
:100500000D4650465946019A00F0ABF910EB080031
:100510006141002487EA115284EAE7731A4340D00C
:10052000009A62B3019A012A4FEA075215DC001BB8
:1005300061EB02014FF0004202EA0752CDE90042AE
:10054000001C41F5801132462B4600F0ABF903B098
:10055000BDE8F08F40462146F9E7001B61EB020140
:10056000001C41F5801300185B412018A2F500170C
:1005700047EB030140EAD570B6196D4111E06D08F3
:100580004FEA360645EAC0754FEA0752001B61EB99
:100590000201001C41F5801149084FEA30000019A2
:1005A000514132462B4603B0BDE8F04F00F06BB925
:1005B0000098012240000023D0EB020263EBE073BD
:1005C000009821464FEAE074B8EB000061EB0401AB
:1005D000E9E783F000435BE781F0004158E72DE94C
:1005E000FE4F81EA030404F0004421F0004100942E
:1005F0004FF0000B23F0004350EA01045ED052EAB2
:1006000003045BD0C3F30A54C1F30A552C44A4F28B
:10061000F3340194A0FB0254C1F3130141F480119F
:10062000C3F3130343F4801301FB024400FB034EA6
:10063000840A970A44EA815447EA8357A4FB07686F
:1006400002958D0A05FB07854FEA932C04FB0C5499
:100650002705029D4FEA065847EA1637B5EB08050D
:100660006EEB070C870E920E47EA811742EA83125F
:10067000A7FB0201B6EB0B0164EB00042B0D43EA70
:100680000C335E1844EB1C50DA465146E7FB02017E
:10069000C5F313044FEA0B3343EA14534FEA043211
:1006A000019C43EA0603A4F10C040294009CCDE9EA
:1006B00000B400F0F7F803B0BDE8F08F0020014669
:1006C000F9E72DE9F04D81EA030404F0004B21F035
:1006D000004514464FF0000A23F0004150EA05029D
:1006E00020D054EA01021DD0C5F30A570246C5F3D3
:1006F0001303C1F31300C1F30A5640F4801543F409
:100700008013A7EB0608101BD64608F2FD3873EBE2
:10071000050002D308F1010801E092185B41B8F12D
:10072000000F03DA00200146BDE8F08D00204FF4F1
:100730008011064684460EE0171B73EB050705D3B0
:10074000121B63EB050306434CEA010C49084FEA10
:10075000300092185B4150EA0107EDD152EA0300E4
:1007600012D082EA040083EA0501084305D0101B79
:10077000AB4106D20122002306E000224FF00043E5
:1007800002E06FF0010253101AEB06004CEB085127
:1007900010EB0A0041EB0B01BDE8F04D00F073B81F
:1007A000C1F30A52C1F3130140F2FF3341F4801147
:1007B0009A4202DA00200146704740F233439A42DF
:1007C000A2F2334202DC524200F03BB800F02AB8F9
:1007D00030B5041E71F1000404DB4FF000444042C8
:1007E00064EB0101141E73F1000405DB1C464FF09D
:1007F0000043524263EB0403994208BF904230BD6C
:10080000064C074D06E0E06840F0010394E807005D
:1008100098471034AC42F6D3FFF76CFC0C35000857
:100820002C350008202A04DB203A00FA02F10020CF
:1008300070479140C2F1200320FA03F3194390401E
:100840007047202A04DB203A21FA02F00021704789
:1008500021FA02F3D040C2F1200291400843194628
:100860007047202A06DBCB17203A41FA02F043EA10
:10087000E07306E041FA02F3D040C2F12002914059
:1008800008431946704710B5141E73F1000408DAC6
:10089000401C41F1000192185B411A4301D120F044
:1008A000010010BD2DE9F04D92469B4611B1B1FA01
:1008B00081F202E0B0FA80F220329046FFF7B2FFF8
:1008C00004460F4640EA0A0041EA0B0153465A46E5
:1008D000084313D0114653EA010019D0C8F1400271
:1008E0005046FFF7AEFF05460E4650465946424673
:1008F000FFF798FF084305D0012004E02046394661
:10090000BDE8F08D0020054346EAE0762C433743EE
:100910000A986305E40AA0EB08000022FD0A44EAF5
:1009200047540A3002D500200146E9E701051019B5
:100930006941DDE9084500196941BDE8F04DA2E7CC
:100940002DE9FF5F4FF0000A0024A346A14602F004
:1009500015FB4549B1F90010C1EB01410844434979
:1009600008600846006842490968A0EB010A3F4850
:1009700000683F4908603F4801780068401C3D4AD4
:10098000106001F0010020BB002003903748006890
:10099000FFF7B6FC05462946374802F027F90390D1
:1009A00003A802F02BFD3548039902F0C3FC31483F
:1009B000007800F00F0008280AD10398FFF7A9FC7F
:1009C0002F49086001230A460221184602F038FC2C
:1009D00000BF5046FFF794FC07462A49FFF752FC38
:1009E00006462949FFF71CFC05462849FFF718FC75
:1009F00004462146214802F09FFC0646FFF789FC89
:100A0000054602F0A3FA81464946484602F04AFCF0
:100A10001F480068401C1E490860084600680C21F9
:100A200090FBF1F201FB120005281BD101230F4AB4
:100A30001946022002F004FC0F4802F0BEF80390B1
:100A4000FFF780FC05460E462046FFF77BFC074675
:100A50000648CDE9025600683A460B4600900DA0C4
:100A600001F0B8FBBDE8FF9F240000202800002013
:100A70003800002034000020200200204002002026
:100A80002C000020000004450000204100007042BE
:100A90003C0000205350454544A3BA25642E205005
:100AA0004C414345A3BA25642C2054415247455438
:100AB000504C414345A3BA252E30660A0000000081
:100AC00000BFFEE77047000010B54FF4005000F083
:100AD00059F8A8B14FF40051244800F00CF950B96E
:100AE00000BF4FF40051214800F005F90028F8D06C
:100AF00001201F4908704FF4005000F03DF834E029
:100B00004FF4804000F03EF8A8B14FF48041174800
:100B100000F0F1F850B900BF4FF48041134800F0E5
:100B2000EAF80028F8D00220114908704FF48040FC
:100B300000F022F819E04FF4004000F023F8A0B1D3
:100B40004FF40041094800F0D6F850B900BF4FF407
:100B50000041064800F0CFF80028F8D003200449EF
:100B600008704FF4004000F007F810BD000C014081
:100B70001400002070470000014908607047000021
:100B800014040140014600200022074B1B6803EAC1
:100B90000102054B14331B680B4013B10AB101204D
:100BA00000E000207047000000040140054909688A
:100BB00021F01001034A11601146096801431160D8
:100BC000704700000020024001460020034A1068E0
:100BD00000F0380008431060704700000020024019
:100BE0002DE9F041024600250026002000230024C4
:100BF000002791F803C00CF00F0591F803C00CF02A
:100C0000100CBCF1000F03D091F802C04CEA0505AE
:100C100091F800C0BCF1000F31D0146800202BE027
:100C20004FF0010C0CFA00F3B1F800C00CEA030617
:100C30009E4220D183004FF00F0C0CFA03F7BC4307
:100C400005FA03FC4CEA040491F803C0BCF1280F38
:100C500006D14FF0010C0CFA00FCC2F814C00AE0F7
:100C600091F803C0BCF1480F05D14FF0010C0CFA0C
:100C700000FCC2F810C0401C0828D1D31460B1F8A1
:100C800000C0BCF1FF0F34DD546800202EE000F1FD
:100C9000080C4FF0010808FA0CF3B1F800C00CEA98
:100CA00003069E4221D183004FF00F0C0CFA03F78C
:100CB000BC4305FA03FC4CEA040491F803C0BCF100
:100CC000280F05D100F1080C08FA0CF8C2F81480BE
:100CD00091F803C0BCF1480F07D100F1080C4FF0A8
:100CE000010808FA0CF8C2F81080401C0828CED37E
:100CF0005460BDE8F0810246002093680B400BB1C0
:100D0000012000E0002070474FF6FF7101800221B2
:100D100081700421C170704700BFFEE700BFFEE78D
:100D2000704710B54FF4A06000F03AF810BD000015
:100D300070B5002100230F22C47804B3154C246839
:100D400004F4E064C4F5E064210AC1F10403CA407C
:100D5000447804FA03F184781440214309010E4CCD
:100D60000678A155047804F01F050124AC400578ED
:100D70006D11AD0005F1E025C5F8004109E00478EA
:100D800004F01F050124AC40044D0678761145F8A7
:100D9000264070BD0CED00E000E400E080E100E0E2
:100DA00002490143024A1160704700000000FA0541
:100DB0000CED00E00EB500201D490860C8614860D8
:100DC000886088611B48C8600020086148611A4833
:100DD0001A4908600020C861486088608861184826
:100DE000C8604002086117484861002000900190E7
:100DF00002900F48C06800900D48006901900C48AF
:100E00004069029003236A460121184602F018FA4D
:100E10000A48C06800900948006901900748406985
:100E2000029003236A460221184602F009FA0EBD19
:100E300020020020CDCC4C3D00002041400200208B
:100E40000000A0420000C8427047000029B1064AD5
:100E5000D2690243044BDA6104E0034AD269824357
:100E6000014BDA61704700000010024029B1064AC8
:100E700012690243044B1A6104E0034A1269824377
:100E8000014B1A61704700000010024029B1064A68
:100E900092690243044B9A6104E0034A92698243D7
:100EA000014B9A61704700000010024029B1064AC8
:100EB000D2680243044BDA6004E0034AD2688243FA
:100EC000014BDA60704700000010024010B500F0DE
:100ED0002FF84FF4803000F0EDF800F049F90446A7
:100EE000012C24D14FF4E011000400F027F9002078
:100EF00000F0D4F8A00200F003F9002000F00CF993
:100F00000220FFF761FE1020FFF750FE012000F0E5
:100F10000FF900BF392000F09BF80028FAD002201A
:100F200000F01AF900BF00F0B1F80828FBD110BD9D
:100F30000F48006840F001000D490860084640680D
:100F40000C4908400A494860084600680A490840B8
:100F5000074908600846006820F4802008600846B9
:100F6000406820F4FE0048604FF41F00886070471E
:100F7000001002400000FFF8FFFFF6FE30B5002130
:100F80000022002400232D4D6D6805F00C0121B1D5
:100F9000042905D0082923D105E0294D056022E068
:100FA000274D05601FE0254D6D6805F47012234D37
:100FB0006D6805F48034022505EB92421CB9214D81
:100FC000554305600BE01D4D6D6805F400351DB1FE
:100FD0001C4D5543056002E0194D5543056002E084
:100FE000174D056000BF00BF144D6D6805F0F0019E
:100FF0000909154D6B5C0568DD4045600F4D6D6856
:1010000005F4E061090A104D6B5C4568DD408560C0
:101010000A4D6D6805F46051C90A0B4D6B5C45685B
:10102000DD40C560054D6D6805F44041890B074DF5
:101030006B5CC568B5FBF3F5056130BD001002407F
:1010400000127A0000093D0000000020100000207E
:1010500010B501460022002300204A11012A02D1C6
:10106000094C236806E0022A02D1074C236A01E0FA
:10107000054C636A01F01F02012494401C400CB12E
:10108000012000E0002010BD00100240024840682E
:1010900000F00C00704700000010024001460020E4
:1010A000034A506820F0F000084350607047000089
:1010B000001002401149096821F480310F4A116083
:1010C0001146096821F480211160B0F5803F03D0FA
:1010D000B0F5802F0ED106E00849096841F480314F
:1010E000064A116007E00549096841F4A021034A56
:1010F000116000E000BF00BF704700000010024018
:1011000001460020034A506820F4E0600843506024
:10111000704700000010024001460020034A50685A
:1011200020F4605040EAC100506070470010024057
:101130000149086670470000000042420246002054
:10114000044B586820F47C1042EA01031843014B19
:10115000586070470010024001460020034A506862
:1011600020F0030008435060704700000010024068
:1011700038B5002000900024002500BF3120FFF783
:1011800067FF05460098401C00900098B0F5A06FDE
:1011900001D0002DF2D03120FFF75AFF08B1012411
:1011A00000E00024204638BD704710B500F002F87A
:1011B00010BD00000CB5002001900090334800687D
:1011C00040F480303149086000BF3048006800F4C6
:1011D000003000900198401C0190009818B90198C7
:1011E000B0F5A06FF1D12948006800F4003010B1CB
:1011F0000120009001E0002000900098012843D1D8
:101200002348006840F01000214908600846006843
:1012100020F0030008600846006840F00200086003
:101220001A484068194948600846406848600846BE
:10123000406840F4806048600846406820F47C10B4
:1012400048600846406840F4E81048600846006876
:1012500040F08070086000BF0C48006800F000702B
:101260000028F9D00948406820F003000749486089
:101270000846406840F00200486000BF03484068EC
:1012800000F00C000828F9D10CBD0000001002404D
:101290000020024010B504462046FFF731F801490E
:1012A000086010BD3000002003480068C0430349B7
:1012B000C1F8B40170470000B4012242000022428C
:1012C00010B51348006840F0010011490860084655
:1012D0004068104908400E494860084600680E49B9
:1012E00008400B4908600846006820F48020086028
:1012F0000846406820F4FE0048604FF41F008860F4
:10130000FFF753FF4FF000600449086010BD000074
:10131000001002400000FFF8FFFFF6FE08ED00E0BD
:10132000F0B50C46154600220021068C4FF6FE77DC
:101330003E400684028B018C4FF60C7632407E1CB8
:1013400006EA03162E433243104EB0420ED0104E22
:10135000B0420BD0B0F1804F08D00E4EB04205D055
:101360000D4EB04202D00D4EB04206D14FF6FD7682
:10137000314044F00106314305E04FF6F576314047
:1013800044F00106314302830184F0BD002C01408A
:10139000003401400004004000080040000C004000
:1013A000F0B50C461546002200210026078C4FF6AA
:1013B000EF7C07EA0C070784028B018C4FF6FF775E
:1013C00007EA041640F6FF473A404FF6FF7707EA70
:1013D00003373A434FF6FF7707EA05273A43114FA1
:1013E000B8420ED0104FB8420BD0B0F1804F08D0A9
:1013F0000E4FB84205D00E4FB84202D00D4FB84242
:1014000006D14FF6DF77394046F01007394305E043
:101410004FF65F77394044F0100739430283018467
:10142000F0BD0000002C01400034014000040040E9
:1014300000080040000C0040F0B50C4615460022A4
:1014400000210026078C4FF6FF6C07EA0C07078483
:10145000828B018C4FF6FF7707EA04264FF60C7754
:101460003A404FF6FF7707EA03172F433A43114FED
:10147000B8420ED0104FB8420BD0B0F1804F08D018
:101480000E4FB84205D00E4FB84202D00D4FB842B1
:1014900006D14FF6FF57394046F48077394305E0CF
:1014A0004FF2FF57394044F48077394382830184F7
:1014B000F0BD0000002C0140003401400004004059
:1014C00000080040000C0040F0B50C461546002214
:1014D00000210026078C4EF6FF7C07EA0C070784E4
:1014E000828B018C4FF6FF7707EA043640F6FF4700
:1014F0003A404FF6FF7707EA05273A434FF6FF7762
:1015000007EA03373A43114FB8420ED0104FB842A2
:101510000BD0B0F1804F08D00E4FB84205D00E4F1F
:10152000B84202D00D4FB84206D14DF6FF77394090
:1015300046F48057394305E047F6FF57394044F4F5
:101540008057394382830184F0BD0000002C0140A4
:10155000003401400004004000080040000C00403E
:1015600010B50121880700F08EF928B10121880704
:1015700000F065F8FFF7E4F910BD7FB505460C46AD
:1015800001210846FFF762FCADF80850ADF80440B1
:101590000020ADF80A00ADF8060001A94FF0804028
:1015A00000F07CFB01224121880700F0DCF91C20BF
:1015B0008DF8000000208DF8010003208DF8020056
:1015C00001208DF803006846FFF7B2FB00214FF0C1
:1015D000804000F037F87FBD10B501210E4800F0C3
:1015E00052F9012812D10C48008800F01000102890
:1015F00006D00A480088401C00B20849088005E06F
:1016000006480088401E00B20449088001210248B3
:1016100000F015F810BD0000000800402400002074
:1016200021B1028842F08002028004E002884FF675
:101630007F731A4002807047CA4302827047CA43D0
:101640000282704721B1028842F00102028004E068
:1016500002884FF6FE731A400280704710B50446A8
:101660006848844208D10121C014FFF71FFC002103
:10167000E014FFF71BFCC4E0B4F1804F08D1012156
:101680000846FFF7F3FB00210120FFF7EFFBB8E06E
:101690005D48844208D101210220FFF7E7FB0021C9
:1016A0000220FFF7E3FBACE05848844208D1012157
:1016B0000420FFF7DBFB00210420FFF7D7FBA0E0AD
:1016C0005348844208D101210820FFF7CFFB0021B5
:1016D0000820FFF7CBFB94E04E48844208D101215B
:1016E0001020FFF7C3FB00211020FFF7BFFB88E0AD
:1016F0004948844208D101212020FFF7B7FB00218F
:101700002020FFF7B3FB7CE04448844208D101214C
:101710004014FFF7CBFB00216014FFF7C7FB70E01C
:101720003F48844209D10121C804FFF7BFFB0021D3
:101730004FF40020FFF7BAFB63E03A48844209D136
:1017400001210805FFF7B2FB00214FF48010FFF7DD
:10175000ADFB56E03448844209D101214805FFF72A
:10176000A5FB00214FF40010FFF7A0FB49E02F4834
:10177000844208D101214020FFF778FB002140205E
:10178000FFF774FB3DE02A48844208D10121802004
:10179000FFF76CFB00218020FFF768FB31E0254854
:1017A000844208D101218015FFF760FB0021A015BC
:1017B000FFF75CFB25E02048844209D101210804A1
:1017C000FFF774FB00214FF48030FFF76FFB18E048
:1017D0001A48844209D101214804FFF767FB002120
:1017E0004FF40030FFF762FB0BE01548844208D14C
:1017F00001218804FFF75AFB00214FF48020FFF7F6
:1018000055FB10BD002C01400004004000080040C2
:10181000000C004000100040001400400034014063
:10182000004C0140005001400054014000180040AD
:10183000001C0040002000400040014000440140E6
:1018400000480140F0B50C4615461E460021002216
:1018500000230189028B038C4FF6F877394021432E
:101860004FF6FC473A4040F201173A434FF6DD7716
:101870003B404FF6FF7707EA06172F433B430181B2
:1018800002830384F0BD30B502460020002300240B
:10189000158A05EA0103958905EA010413B10CB123
:1018A000012000E0002030BD70B505460C462448FC
:1018B00085420ED0234885420BD0B5F1804F08D029
:1018C0002148854205D02148854202D020488542E2
:1018D00000D100E000BF208850B92389A288618828
:1018E0002846FFF71DFDE188284600F0ABF925E00A
:1018F000208804280AD12389A28861882846FFF716
:101900004FFDE188284600F0A6F917E02088082856
:101910000AD12389A28861882846FFF78DFDE188D6
:10192000284600F0A5F909E02389A28861882846A5
:10193000FFF7CAFDE188284600F0A3F970BD00005A
:10194000002C014000340140000400400008004029
:10195000000C004000210180418001218180002194
:10196000C180018170471AB183890B43838102E0F2
:1019700083898B438381704770B500240022002344
:10198000058C4FF6FE7635400584028C8388048BE7
:101990004FF68F752C40B51E2C400D882C43751EBC
:1019A0002A400D892A434D882A43144DA8420BD062
:1019B000134DA84208D0134DA84205D0124DA8429D
:1019C00002D0124DA84213D14FF6F7752A404D8927
:1019D0002A434FF6FB752A408D882A434FF6FF6550
:1019E0002B404FF6FF552B408D892B43CD892B4340
:1019F00083800483CD888586028470BD002C0140DD
:101A000000340140004001400044014000480140D2
:101A10000A460021018B4FF6F773194011430183E9
:101A20007047000070B5002400220023058C4FF69B
:101A3000EF7635400584028C8388048B48F6FF7569
:101A40002C404FF6FF452C400D884FF6FF7606EAF6
:101A500005252C434FF6DF752A400D8906EA05154A
:101A60002A434D8806EA05152A43154DA84202D09F
:101A7000144DA8421DD14FF67F752A404D894FF66F
:101A8000FF7606EA05152A434FF6BF752A408D8872
:101A900006EA05152A434FF6FF352B404FF2FF7536
:101AA0002B408D8906EA85052B43CD8906EA8505FD
:101AB0002B4383800483CD880587028470BD00009A
:101AC000002C0140003401400A460021018B4FF2F6
:101AD000FF7319404FF6FF7303EA02231943018392
:101AE0007047000070B5002400220023058C4FF6DB
:101AF000FF6635400584028C8388848B4FF68F7592
:101B00002C404FF6FC752C400D882C434FF6FF55AA
:101B10002A400D894FF6FF7606EA05252A434D88AF
:101B200006EA05252A43154DA84202D0144DA842C5
:101B30001DD14FF2FF752A404D894FF6FF7606EA18
:101B400005252A434FF6FF352A408D8806EA0525EC
:101B50002A434EF6FF752B404DF6FF752B408D89BD
:101B600006EA05152B43CD8906EA05152B4383802C
:101B70008483CD888587028470BD0000002C0140DD
:101B8000003401400A460021818B4FF6F77319405B
:101B9000114381837047000070B5002200230024A8
:101BA000058C4EF6FF7635400584038C8488828B45
:101BB00048F6FF752A404FF6FF452A400D884FF63C
:101BC000FF7606EA05252A434DF6FF752B400D8961
:101BD00006EA05352B434D8806EA05352B430B4DA8
:101BE000A84202D00A4DA84208D14BF6FF752C40FE
:101BF0008D894FF6FF7606EA85152C438480828313
:101C0000CD88A0F84050038470BD0000002C014036
:101C1000003401400A460021818B4FF2FF731940C6
:101C20004FF6FF7303EA02231943818370478186CD
:101C300070470187704781877047A0F84010704750
:101C400081847047028B4FF6F3731A400283028B34
:101C50000A4302837047028B4FF2FF331A4002831C
:101C6000028B4FF6FF7303EA01231A430283704786
:101C7000828B4FF6F3731A408283828B0A438283EE
:101C80007047828B4FF2FF331A408283828B4FF66C
:101C9000FF7303EA01231A438283704700220288FC
:101CA0001D4B98420ED01D4B98420BD0B0F1804F87
:101CB00008D01B4B984205D01A4B984202D01A4BC1
:101CC000984204D14FF68F731A404B881A43174B32
:101CD000984207D0164B984204D04FF6FF431A4063
:101CE000CB881A4302808B8883850B8803850A4B37
:101CF00098420BD0094B984208D00E4B984205D021
:101D00000D4B984202D00D4B984201D10B7A0386BD
:101D10000123838270470000002C01400034014001
:101D20000004004000080040000C0040001000408B
:101D300000140040004001400044014000480140C0
:101D40004FF6FF71818000210180C18041800172C6
:101D5000704710B501218807FFF774FC10BD10B55E
:101D600000214FF08040FFF76DFC10BD00B589B039
:101D700001210920FFF76AF808A8FEF7C5FFC02077
:101D8000ADF8200028208DF8230008A92748FEF789
:101D900027FF01210420FFF759F82548FFF75EFCD3
:101DA00005A8FFF7CDFF0020ADF814004FF6FF7037
:101DB000ADF818000020ADF81A00ADF8160005A91E
:101DC0001B48FFF76BFF00231A4603211848FFF753
:101DD00039FD02A8FFF7BEFD0020ADF8100002A9F2
:101DE0001348FFF761FD00211148FFF729FF01218A
:101DF0000F48FFF721FC012211460D48FFF7B3FD04
:101E000001210B48FFF71EFC1E208DF80400022064
:101E10008DF8050000208DF8060001208DF80700E0
:101E200001A8FEF785FF09B000BD0000000C0140CD
:101E30000008004030B589B005460C46012102205B
:101E4000FFF704F801210D20FFF720F88020ADF8FE
:101E5000200018208DF8230003208DF8220008A907
:101E60003848FEF7BDFE4020ADF8200018208DF860
:101E7000230003208DF8220008A93248FEF7B0FEA7
:101E80000120ADF8200018208DF8230003208DF8E4
:101E9000220008A92C48FEF7A3FE0220ADF820007E
:101EA00018208DF8230003208DF8220008A9264869
:101EB000FEF796FEA8B2ADF81800A0B2ADF8140077
:101EC0000020ADF81A00ADF8160005A91F48FFF76D
:101ED000E5FE7020ADF804000120ADF806000020FA
:101EE000ADF80A000220ADF80C000020ADF810009B
:101EF00001A91648FFF796FD01A91448FFF73CFD1C
:101F000008211248FFF7E0FD08211048FFF780FD87
:101F100001A90E48FFF7E6FD01A90C48FFF73CFEBA
:101F200008210A48FFF72EFE08210848FFF772FE35
:101F300001210648FFF774FB01210448FFF782FBEB
:101F400009B030BD00080140000C01400004004011
:101F500000B5A1B040F22551224800F073F8B8B1A5
:101F6000204800F02BF9C0B220909DF880101E4848
:101F700002780078401C1C4B18701C4881540121C9
:101F800020A800F0DDFE40F22551164800F032F89E
:101F900040F22441134800F055F800B3114800887E
:101FA000C0B220900F48001D0088C0B22090104899
:101FB00001686846FEF7D1F80B4802780B4968467D
:101FC000FEF7B2F808480178684600F0B9FE084804
:101FD00001680648FEF7C1F800200349087021B0E7
:101FE00000BD0000004400401E0000209E010020B3
:101FF0002000002010B50022002340F66A14A14200
:1020000000D100BF0A1201249440A3B2DC43048033
:1020100010BD21B1828942F40052828104E082899C
:102020004DF6FF731A408281704702460020B1F5D9
:10203000007F00D100BF13880B400BB1012000E0EE
:102040000020704770B502460024002300250020C0
:1020500040F66A16B14200D100BFC1F3421501F04B
:102060001F03012606FA03F3012D02D1968933409E
:1020700006E0022D02D1168A334001E0968A3340F1
:102080000C12012606FA04F41688344013B10CB180
:10209000012000E0002070BDF0B5034600240026BA
:1020A0000025002040F66A17B94200D100BF18464B
:1020B000C1F3421401F01F06012707FA06F5012CAF
:1020C00001D10C3004E0022C01D1103000E01430BA
:1020D0001AB107682F43076002E00768AF43076043
:1020E000F0BD00002DE9F04786B005460E460024FD
:1020F000A24600BFA1460027B08900B100BF2F460D
:102100002C8A4CF6FF700440F08804432C82AC8982
:102110004EF6F3100440B0883189084371890843B2
:102120000443AC81AC8A4FF6FF400440B0890443BD
:10213000AC8201A8FEF722FF1F48874202D1DDF8DA
:1021400010A001E0DDF80CA0A88900F4004040B127
:102150000AEBCA0000EB0A1031684900B0FBF1F845
:1021600007E00AEBCA0000EB0A1031688900B0FBF7
:10217000F1F86420B8FBF0F004012009642101FBB0
:102180001089A88900F4004040B1322000EBC9005A
:10219000B0FBF1F000F00700044308E0322000EB50
:1021A00009106421B0FBF1F000F00F0004432C8112
:1021B00006B0BDE8F087000000380140014688887D
:1021C000C0F308007047C1F308028280704700BF67
:1021D000FEE700000FB4054B10B503A9044A0298AE
:1021E00000F0DAF810BC5DF814FB0000052B0008C5
:1021F0001800002002E008C8121F08C1002AFAD106
:1022000070477047002001E001C1121F002AFBD176
:10221000704700002DE9FF5F82B00021DDE9043046
:10222000020DDDF840B0034318D044F61050A2F27E
:10223000FF3242431514119801281FD0A5EB0B0063
:10224000401C5FEA000A4FF000064E4FDFF838915D
:10225000B046504615D5CAF1000413E01198012488
:102260004AA3012801D16FEA0B010298119AC0E933
:102270000031C0E9024206B0BDE8F09FCBF100009A
:10228000DFE704460021404A491842EB0450CDE9FB
:10229000001012E0E00707D032463B464046494670
:1022A000FEF79DF98046894632463B461046194660
:1022B000FEF795F906460F466410002CEAD1DDE9D9
:1022C0000401DDE90023BAF1000F06DAFEF787F911
:1022D00042464B46FEF783F905E0FEF7F2F9424627
:1022E0004B46FEF7EEF904460E460022284BFEF759
:1022F0006FFA03D84FF0FF30014607E00022254B6C
:1023000020463146FEF7C4F8FEF74AFA102409E0E9
:10231000002C0ADB0A220023FEF752F8039B30321E
:102320001A55641E50EA0102F2D1641C039AC4F1EA
:1023300011031444119A012A03D0012208430DD13C
:102340000AE0084304D000204FF0110B119072E70F
:10235000A3EB0B056D1E0DE05B4504DD4FF00002A5
:1023600005F1010504E003DA4FF00002A5F10105D3
:10237000002AECD002981199C0E90231C0E9004569
:1023800079E70000000014400000F03F300000003A
:102390000000F0430000E03F2DE9FF4F95B09A4662
:1023A000884606460025EEE1252877D100242746F9
:1023B000F94A0121039400E0044316F8013F203B51
:1023C00001FA03F01042F7D130782A2811D06FF0CB
:1023D0002F033078A0F13002092A16D8039A44F06E
:1023E000020402EB820203EB42021044761C0390CB
:1023F000EFE758F8042B0392002A03DA504244F422
:102400000054039044F00204761C30782E2816D134
:1024100016F8010F44F004042A280DD06FF02F02A3
:102420003078A0F13003092B09D807EB870302EBC2
:102430004303C718761CF3E758F8047B761C307802
:102440006C280FD006DC4C2817D068280DD06A28DD
:1024500014D104E0742810D07A280FD10DE044F490
:1024600000140AE044F4801401E044F4401472784B
:10247000824202D104F58014761C761C30786628DE
:102480000BD013DC582877D009DC002875D04528FC
:10249000F6D04628F4D047281AD193E118E06328F3
:1024A00035D0642879D0652812D18BE1702873D09B
:1024B00008DC6728F1D069286FD06E280DD06F280E
:1024C00006D1ACE073282CD0752874D0782853D06E
:1024D0005246179990476D1C54E1C4F302500228EC
:1024E00009D003280DD0D8F8001004280DD00D60B5
:1024F00008F1040846E1D8F80010EA17C1E90052D3
:10250000F6E7D8F800100D80F2E70D70F0E718F844
:10251000041B8DF8001000208DF80100EB4601200F
:1025200003E058F804BB4FF0FF3061074FF00001A3
:1025300002D40DE009F101018946B9420FDA814563
:10254000F8DB1BF809100029F4D108E009F10101BA
:1025500089468142FADB1BF809100029F6D103985D
:102560005346A0EB090721463846179A00F080FA37
:10257000284400EB090507E044E008E10DE01BF802
:10258000010B524617999047B9F10109F7D253460A
:1025900021463846179AF2E039E00A21C4F3025284
:1025A0004FF0000B0091022A06D058F8040BC11717
:1025B000032A09D00AE023E008F1070020F007020F
:1025C000F2E80201904605E000B2C117042A01D1E9
:1025D00040B2C117002906DA0A460021404261EBE9
:1025E00002012D2202E0220504D52B228DF80420C1
:1025F000012203E0E20701D02022F7E7914657E0ED
:102600000A2100E010214FF0000B00910BE0102197
:102610004FF0000B44F004040827009103E0082069
:102620004FF0000B0090C4F30252022A05D058F874
:10263000040B0021032A08D008E008F1070020F06D
:102640000702F2E80201904603E080B2042A00D1BA
:10265000C0B24FF0000922072AD53278702A07D07D
:10266000DDF800C08CF0100C5CEA0B0C05D00EE01D
:1026700040228DF80420012208E050EA010306D030
:1026800030238DF804308DF8052002229146009BFE
:1026900083F0080353EA0B030AD150EA010201D187
:1026A000620705D530228DF804204FF001097F1E06
:1026B0003278582A04D039A20C920CAA02920BE06C
:1026C0003BA2F9E75B46009AFDF77AFE0C9B9B5C08
:1026D000029A521E0292137050EA0102F2D102983D
:1026E00004A9081A00F1200B600702D524F48034F5
:1026F00000E001275F4502DDA7EB0B0000E00020B2
:1027000000EB0B01009003984944401A0390E0034A
:1027100006D453462146179A039800F0A9F90544B8
:10272000002706E001A85246C05D179990476D1C2E
:102730007F1C4F45F6DBE0030CD553462146179A24
:10274000039800F095F9054404E0302052461799AB
:1027500090476D1C0099481E00900029F5DC08E0A8
:102760000298029952460078491C029117999047A5
:102770006D1CBBF10001ABF1010BF1DC5BE100F082
:1027800065F90544761C307800287FF40DAE19B049
:102790002846BDE8F08F00000928010030313233AF
:1027A000343536373839616263646566000000008D
:1027B0003031323334353637383941424344454677
:1027C00000000000600700D4062708F1070020F091
:1027D0000700F0E80223804603F0004C5FEA0C009B
:1027E00001D097A009E0200501D596A005E0E007FB
:1027F00001D095A001E0AFF24C001390307823F0A7
:10280000004365280CD006DC452809D046281DD099
:1028100047287FD13BE0662818D067287AD136E078
:102820000021112F01DB112000E0781CCDE900010F
:1028300004A90CA8FFF7EEFCDDE90D010C9A4FF09E
:10284000000B07F10109109200914EE04FF000409B
:102850000097CDE9011004A90CA8FFF7DBFCDDE926
:102860000D020C9B0F994FF0000B914610930092B4
:1028700011B9791C00EB0109B7EB090003D4C0F1D1
:10288000FF3B07F10109A9EB0700019042E0012F8E
:1028900000DA01270021112F01DD112000E0384668
:1028A000CDE9000104A90CA8FFF7B4FCDDE90D0196
:1028B0000C9A00914FF0000BB946109221070FD4EB
:1028C000009A4A4503DA914601E0A9F10109B9F1FC
:1028D000010F05DD109AA9F10101515C3029F4D0F6
:1028E000B84202DA10F1040F03DA0121CDE9011038
:1028F00010E0002803DC8344A9EB000102E0411C46
:10290000494500DD8946A0EB0B00401C01904FF0CB
:1029100000400290200705D40198484502DB4FF0A3
:10292000FF30019000208DF84B0002980DF14B070D
:10293000B0F1004F25D002200C902B200D90029872
:1029400000280CDA404202902D200D9007E00A2169
:102950000298FDF71FFD3031029007F8011D0C9918
:10296000481E0C900029F2DC02980028EFD1791E55
:102970000D980870307800F0200040F0450007F80E
:10298000020D11A8C01BC01D02901398007800B161
:10299000012000EB0901019801EBE071029801446C
:1029A0000398401A401E0390E00306D45346214684
:1029B000179A039800F05CF805441398007818B152
:1029C0005246179990476D1CE00323D55346214684
:1029D000179A039800F04CF805441BE0BBF1000F78
:1029E00007DB0098584504DD1098179910F80B0084
:1029F00001E0179930205246904701980BF1010BE6
:102A0000401E05F10105019004D12E205246179970
:102A100090476D1CB9F10001A9F10109DEDC05E068
:102A200017F8010B5246179990476D1C0299481EE2
:102A300002900029F4DC53462146179A03989EE63B
:102A40002D0000002B000000200000002DE9F041C7
:102A5000044600251E461746880404D405E039467E
:102A60002020B0476D1C641EF9D52846BDE8F081D2
:102A70002DE9F041044600251E469046C80301D5C5
:102A8000302700E02027880404D505E04146384679
:102A9000B0476D1C641EF9D52846BDE8F08130B5FD
:102AA0000346184603E00C780444E0B2491C141EA7
:102AB000A2F10105EAB2F6D130BD00B5034603E04C
:102AC0004FF47A7000F006F8181EA3F101018BB2E2
:102AD000F6D100BD00EBC001C9004FF0E02251610A
:102AE000002191610521116100BF4FF0E0210969CA
:102AF00001F480310029F8D004214FF0E022116167
:102B00007047000000BF054A128802F04002002A08
:102B1000F9D0C2B2014B1B1D1A807047004400401F
:102B200030B503460C4615466019401E81B20A4670
:102B3000C81701EB5060C011A1EBC010185C30BD8C
:102B4000F0B503460F46781D81B20A46C81701EB5F
:102B50005060C011A1EBC01013F800C04E1CF0175C
:102B600006EB5060C011A6EBC010185C4CEA002CBC
:102B70008D1CE81705EB5060C011A5EBC010185C68
:102B80004CEA004CCC1CE01704EB5060C011A4EBE5
:102B9000C010185C4CEA006080B2F0BD10B503466E
:102BA0000C4604F1090081B20A46C81701EB5060D7
:102BB000C011A1EBC010185C10BD01460868704739
:102BC00008B501211020FEF761F910208DF80300EF
:102BD0004002ADF8000003208DF80200694602486B
:102BE000FDF7FEFF08BD0000001001402DE9F04791
:102BF00004460D4629462068FDF70CFB6060264917
:102C00006068FDF7BDFB08D824496068FDF7AEFB9E
:102C100003D800206060A061A06021496068FDF7D2
:102C2000AFFB18D21F496068FDF7A0FB13D26168A3
:102C3000A069FDF79DFAA0611B49A069FDF7A0FB03
:102C400002D21948A06106E01849A069FDF78EFB81
:102C500001D21648A061D4E90101FDF7DBFA8046F4
:102C60006169FDF7DDFA0646A1692069FDF7D8FA2A
:102C700080466168E068FDF7D3FA81464146FDF77A
:102C800077FA07463146FDF773FAE0616068A060A5
:102C9000E069BDE8F0870000000070C200007042EB
:102CA000000048C30000484300004844000048C4F6
:102CB00008B5FEF70BF9FEF734F84FF4E13000F0F9
:102CC000BBFB4FF4FA70FFF7F8FE48214FF47A701F
:102CD000FFF7B0F841F61F416320FEF74EFCFFF707
:102CE00045F800F025F9FEF765F800211148FEF7D8
:102CF000A0FF00210F48FEF79AFFFFF761FF0120B8
:102D00000D49086000231A460121052000F098FAB9
:102D10000A48FFF752FF0446FDF7FBFA0090012333
:102D20006A461946184600F08BFA01E000F02CF9CB
:102D3000FCE7000000040040B401224240020020F1
:102D400038B505460C460A490094CA882B460868DF
:102D5000802100F052FA0649C9880819C11700EB12
:102D60005161C911A0EBC111014AD18038BD0000E9
:102D7000400000202DE9F04706460F464FF0FF09BE
:102D80000024A0466949CB888A880889802100F000
:102D900023FA84B2092C02DA4846BDE8F08763487A
:102DA000408940BB4FF0FF3560498A882346086858
:102DB000802100F0D7F905B2002D0DDB01205B4921
:102DC00048818D80CB888A880889802100F004FAA8
:102DD00009280FDA4846E0E7544989882144C81E8B
:102DE000C11700EB5161C911A0EBC1114F4A91808D
:102DF0004846D2E700BF4D48008960B94B4A9188E8
:102E00001068FFF79DFE4949088108460089A042E5
:102E100001DD4846C1E7454800894449898808449E
:102E2000401E80281CDD41480068404B9B88C1182B
:102E30003E488088C0F18000C2B24046FFF72FFEB6
:102E400080463A48007A401E384B1B791844803837
:102E5000C2B2364801684046FFF721FE80460CE0CA
:102E600032480068314B9B88C1183048007A401EB8
:102E7000C2B24046FFF713FE80462C4B1A89998850
:102E80001868FFF74DFE40453ED128488088274905
:102E900009890844802816DD24488088C0F1800014
:102EA00085B222480068214A928881182A46304615
:102EB000FDF73AF91D4B1B895A1B1C4B70191968F9
:102EC000FDF732F909E019480068184B9B88C118D2
:102ED000164802893046FDF727F9144800893880E2
:102EE000124A91881068FFF759FE81460F49898878
:102EF0000E4A12898818C11700EB5161C911A0EB65
:102F0000C1110A4A91800AE008498988481CC11702
:102F100000EB5161C911A0EBC111044A918000205E
:102F2000024908814881484637E7000040000020F8
:102F30000448002101604160816003480149086044
:102F400000207047400000204C0000200146002077
:102F5000B1F57A7F02DB40F2E7300CE011F57A7FC1
:102F600001DC054807E011F1320F03DD322901DAF7
:102F7000002000E00846704719FCFFFF00200149CF
:102F8000088870472408004070B5A8B0002007905A
:102F9000FF24DAE007A908A8FFF7ECFE0446132C8B
:102FA00070D006DC102C0CD0112C6FD0122C6BD1F1
:102FB000A2E0142C69D0FF2CF9D14FF0FF3028B0DB
:102FC00070BD9DF824008DF8140008A8407B4FF0D8
:102FD0007F4101EA006008A9097B4FF47F0202EA01
:102FE0000141084308A9C97A121202EA01210843E3
:102FF00008A9897A0843039008A8407C110401EAD3
:10300000006008A9097C120202EA0141084308A9EC
:10301000C97B121202EA0121084308A9897B0843EF
:10302000029008A8407D110401EA006008A9097D0A
:10303000120202EA0141084308A9C97C121202EAFD
:103040000121084308A9897C084301909DF81400D8
:10305000012806D13D48DDE90132039900F066F907
:1030600009E09DF81400022805D13948DDE9013254
:10307000039900F05BF937480068C0433649C1F84E
:10308000B40161E041E001E05BE04BE008A8407B77
:103090004FF07F4101EA006008A9097B4FF47F02ED
:1030A00002EA0141084308A9C97A121202EA012181
:1030B000084308A9897A40EA01059DF824008DF8A3
:1030C00014009DF81400012808D12846FDF718F9CE
:1030D000064631461D4800F02DF906E09DF8140023
:1030E000022802D12846FEF7D5F81A480068C043E6
:1030F0001949C1F8B40127E0FEF72BFE1548006816
:10310000C0431549C1F8B4011EE00021084600F093
:10311000C9F8FEF724FE0F480068C0430E49C1F805
:10312000B40111E000BF0D48006800F4E0600C49F4
:103130000843001D09490860BFF34F8F00BF00BF5F
:10314000FEE74FF0FF303AE700BF23E72002002000
:1031500040020020B4012242000022420CED00E0B7
:103160000000FA05F0B505460C46002100BF2BE033
:10317000501890FBF4F604FB16002E5C5018401C0F
:1031800090FBF4F704FB1700285C46EA0026501871
:10319000801C90FBF4F704FB1700285C46EA00460D
:1031A0005018C01C90FBF4F704FB1700285C46EA9B
:1031B0000060084EB04205D1501890FBF4F604FBB5
:1031C0001600F0BD481C81B2D81E8842D0DC4FF0FA
:1031D000FF30F6E7535A485930B5044600259A4265
:1031E00002DC981A85B202E0881A184485B2AC4213
:1031F00001DD002030BD2846FCE72DE9F0470546FB
:103200000E4614461F46DDF8208004EB0800B0424D
:103210000FDD301B1FFA80F928194A463946FCF7A2
:1032200083FFA8EB090207EB09012846FCF77CFFA6
:1032300004E0281942463946FCF776FFBDE8F087DE
:10324000F8B506460F4615461C4600200090A0061D
:10325000040E1248124908600846077104F10B0079
:10326000C1F80500084646720A220020FFF717FC45
:103270000090224629469DF80000FFF710FC0090C0
:103280000A21074800F02AF92146284600F026F9CD
:103290000121684600F022F9F8BD0000535A485950
:1032A000CC00002070B504460D46002C08DBA1B20E
:1032B0001D48FEF7BEFC00211B48FEF7B8FC13E0DA
:1032C000002C09DA00211848FEF7B3FC604281B2F5
:1032D0001548FEF7ACFC07E000211348FEF7A9FCF7
:1032E00000211148FEF7A3FC002D08DBA9B20E480F
:1032F000FEF7A1FC00210C48FEF79FFC13E0002D17
:1033000009DA00210848FEF796FC684281B20648B7
:10331000FEF793FC07E000210348FEF78CFC002138
:103320000148FEF78AFC70BD00040040C1600261E4
:1033300043617047016070472DE9F04704460D4630
:1033400029462068FCF766FF606026496068FDF743
:1033500017F808D224496068FDF708F803D2002066
:103360006060A061A06021496068FDF709F818D28B
:103370001F496068FCF7FAFF13D26168A069FCF787
:10338000F7FEA0611B49A069FCF7FAFF02D21948B9
:10339000A06106E01849A069FCF7E8FF01D21648D1
:1033A000A061D4E90101FCF735FF80466169FCF7B3
:1033B00037FF0646A1692069FCF732FF8046616845
:1033C000E068FCF72DFF81464146FCF7D1FE074639
:1033D0003146FCF7CDFEE0616068A060E069BDE8C1
:1033E000F08700000000A0C00000A0400000C8C29C
:1033F0000000C84200008243000082C370B504464A
:103400000C4920680968FCF7BBFF03D20948006833
:1034100020600DE00748006880F0004528462168DC
:10342000FCF7AEFF04D20348006880F00040206043
:1034300070BD00003000002010B586B004460121A8
:103440000420FDF723FD01214804FDF7FFFC0820BF
:10345000ADF8140004208DF8170005A91D48FDF7EC
:10346000BFFB0420ADF8140003208DF816001820CF
:103470008DF8170005A91748FDF7B2FB019400204D
:10348000ADF80800ADF80A00ADF80C00ADF810007A
:103490000C20ADF80E0001A90F48FEF723FE012114
:1034A0000D48FEF7B6FD012240F225510A48FEF70D
:1034B000F3FD26208DF8000003208DF801008DF823
:1034C000020001208DF803006846FDF731FC06B0CC
:1034D00010BD0000000801400044004070B50546E2
:1034E0000E4600240CE000BF40210748FEF79DFD7A
:1034F0000028F9D0295D0448FEF765FE601CC4B2BF
:10350000B442F0DB70BD0000004400402C350008E0
:103510000000002040000000F42100086C35000885
:1035200040000020200600000422000800000000E7
:103530000102030401020304060708090204060845
:1035400000000000000000000000000080000000FB
:1035500000000000000000000000000000007042B9
:0C3560000000000000000000000000005F
:04000005080000ED02
:00000001FF
